{"src/contracts/libs/Attestation.sol":{"PublicGoodAttester":{"abi":[{"inputs":[{"internalType":"address","name":"eas","type":"address"},{"internalType":"bytes32","name":"easSchema","type":"bytes32"}],"stateMutability":"nonpayable","type":"constructor"},{"inputs":[],"name":"InvalidEAS","type":"error"},{"inputs":[],"name":"EAS_SCHEMA","outputs":[{"internalType":"bytes32","name":"","type":"bytes32"}],"stateMutability":"view","type":"function"}],"evm":{"bytecode":{"linkReferences":{},"object":"60c060405234801561001057600080fd5b5060405161016038038061016083398101604081905261002f9161006c565b6001600160a01b038216610056576040516341bc07ff60e11b815260040160405180910390fd5b6001600160a01b0390911660805260a0526100a6565b6000806040838503121561007f57600080fd5b82516001600160a01b038116811461009657600080fd5b6020939093015192949293505050565b60805160a051609b6100c560003960006031015260005050609b6000f3fe6080604052348015600f57600080fd5b506004361060285760003560e01c806325705f8b14602d575b600080fd5b60537f000000000000000000000000000000000000000000000000000000000000000081565b60405190815260200160405180910390f3fea2646970667358221220f645f6ecd034c14a9af14020c33f83198e82cf83ed84bdd8389b68d98f4619f664736f6c63430008130033","opcodes":"PUSH1 0xC0 PUSH1 0x40 MSTORE CALLVALUE DUP1 ISZERO PUSH2 0x10 JUMPI PUSH1 0x0 DUP1 REVERT JUMPDEST POP PUSH1 0x40 MLOAD PUSH2 0x160 CODESIZE SUB DUP1 PUSH2 0x160 DUP4 CODECOPY DUP2 ADD PUSH1 0x40 DUP2 SWAP1 MSTORE PUSH2 0x2F SWAP2 PUSH2 0x6C JUMP JUMPDEST PUSH1 0x1 PUSH1 0x1 PUSH1 0xA0 SHL SUB DUP3 AND PUSH2 0x56 JUMPI PUSH1 0x40 MLOAD PUSH4 0x41BC07FF PUSH1 0xE1 SHL DUP2 MSTORE PUSH1 0x4 ADD PUSH1 0x40 MLOAD DUP1 SWAP2 SUB SWAP1 REVERT JUMPDEST PUSH1 0x1 PUSH1 0x1 PUSH1 0xA0 SHL SUB SWAP1 SWAP2 AND PUSH1 0x80 MSTORE PUSH1 0xA0 MSTORE PUSH2 0xA6 JUMP JUMPDEST PUSH1 0x0 DUP1 PUSH1 0x40 DUP4 DUP6 SUB SLT ISZERO PUSH2 0x7F JUMPI PUSH1 0x0 DUP1 REVERT JUMPDEST DUP3 MLOAD PUSH1 0x1 PUSH1 0x1 PUSH1 0xA0 SHL SUB DUP2 AND DUP2 EQ PUSH2 0x96 JUMPI PUSH1 0x0 DUP1 REVERT JUMPDEST PUSH1 0x20 SWAP4 SWAP1 SWAP4 ADD MLOAD SWAP3 SWAP5 SWAP3 SWAP4 POP POP POP JUMP JUMPDEST PUSH1 0x80 MLOAD PUSH1 0xA0 MLOAD PUSH1 0x9B PUSH2 0xC5 PUSH1 0x0 CODECOPY PUSH1 0x0 PUSH1 0x31 ADD MSTORE PUSH1 0x0 POP POP PUSH1 0x9B PUSH1 0x0 RETURN INVALID PUSH1 0x80 PUSH1 0x40 MSTORE CALLVALUE DUP1 ISZERO PUSH1 0xF JUMPI PUSH1 0x0 DUP1 REVERT JUMPDEST POP PUSH1 0x4 CALLDATASIZE LT PUSH1 0x28 JUMPI PUSH1 0x0 CALLDATALOAD PUSH1 0xE0 SHR DUP1 PUSH4 0x25705F8B EQ PUSH1 0x2D JUMPI JUMPDEST PUSH1 0x0 DUP1 REVERT JUMPDEST PUSH1 0x53 PUSH32 0x0 DUP2 JUMP JUMPDEST PUSH1 0x40 MLOAD SWAP1 DUP2 MSTORE PUSH1 0x20 ADD PUSH1 0x40 MLOAD DUP1 SWAP2 SUB SWAP1 RETURN INVALID LOG2 PUSH5 0x6970667358 0x22 SLT KECCAK256 0xF6 GASLIMIT 0xF6 0xEC 0xD0 CALLVALUE 0xC1 0x4A SWAP11 CALL BLOCKHASH KECCAK256 0xC3 EXTCODEHASH DUP4 NOT DUP15 DUP3 0xCF DUP4 0xED DUP5 0xBD 0xD8 CODESIZE SWAP12 PUSH9 0xD98F4619F664736F6C PUSH4 0x43000813 STOP CALLER "},"methodIdentifiers":{"EAS_SCHEMA()":"25705f8b"}}}}}