{"src/contracts/mocks/MaticPriceAggregatorV3Mock.sol":{"MaticPriceAggregatorV3Mock":{"abi":[{"inputs":[],"name":"decimals","outputs":[{"internalType":"uint8","name":"","type":"uint8"}],"stateMutability":"pure","type":"function"},{"inputs":[],"name":"description","outputs":[{"internalType":"string","name":"","type":"string"}],"stateMutability":"pure","type":"function"},{"inputs":[],"name":"dollarToWei","outputs":[{"internalType":"uint256","name":"","type":"uint256"}],"stateMutability":"view","type":"function"},{"inputs":[{"internalType":"uint80","name":"","type":"uint80"}],"name":"getRoundData","outputs":[{"internalType":"uint80","name":"roundId","type":"uint80"},{"internalType":"int256","name":"answer","type":"int256"},{"internalType":"uint256","name":"startedAt","type":"uint256"},{"internalType":"uint256","name":"updatedAt","type":"uint256"},{"internalType":"uint80","name":"answeredInRound","type":"uint80"}],"stateMutability":"view","type":"function"},{"inputs":[],"name":"latestRoundData","outputs":[{"internalType":"uint80","name":"roundId","type":"uint80"},{"internalType":"int256","name":"answer","type":"int256"},{"internalType":"uint256","name":"startedAt","type":"uint256"},{"internalType":"uint256","name":"updatedAt","type":"uint256"},{"internalType":"uint80","name":"answeredInRound","type":"uint80"}],"stateMutability":"view","type":"function"},{"inputs":[{"internalType":"int256","name":"_price","type":"int256"}],"name":"setPrice","outputs":[],"stateMutability":"nonpayable","type":"function"},{"inputs":[],"name":"version","outputs":[{"internalType":"uint256","name":"","type":"uint256"}],"stateMutability":"pure","type":"function"}],"evm":{"bytecode":{"linkReferences":{},"object":"60806040526305a995c060005534801561001857600080fd5b50610475806100286000396000f3fe608060405234801561001057600080fd5b506004361061007d5760003560e01c80638234e68c1161005b5780638234e68c146100da5780639a6fc8f5146100e2578063f7a308061461012c578063feaf968c1461014157600080fd5b8063313ce5671461008257806354fd4d50146100965780637284e416146100a7575b600080fd5b604051600881526020015b60405180910390f35b60035b60405190815260200161008d565b60408051808201825260118152704d41544943202d3e20555344204d6f636b60781b6020820152905161008d9190610245565b610099610149565b6100f56100f0366004610293565b6101e2565b6040805169ffffffffffffffffffff968716815260208101959095528401929092526060830152909116608082015260a00161008d565b61013f61013a3660046102c6565b600055565b005b6100f5610214565b600080610154610214565b505050915050600081136101ae5760405162461bcd60e51b815260206004820152601f60248201527f556e61626c6520746f207265747269657665204d415449432070726963652e00604482015260640160405180910390fd5b60006101bc6008600a6103db565b9050816101d182670de0b6b3a76400006103ea565b6101db9190610417565b9250505090565b600080808080806101fd69ffffffffffffffffffff4361042b565b600054909890975042965086955088945092505050565b6000808080808061022f69ffffffffffffffffffff4361042b565b6000549097909650429550859450879350915050565b600060208083528351808285015260005b8181101561027257858101830151858201604001528201610256565b506000604082860101526040601f19601f8301168501019250505092915050565b6000602082840312156102a557600080fd5b813569ffffffffffffffffffff811681146102bf57600080fd5b9392505050565b6000602082840312156102d857600080fd5b5035919050565b634e487b7160e01b600052601160045260246000fd5b600181815b80851115610330578160001904821115610316576103166102df565b8085161561032357918102915b93841c93908002906102fa565b509250929050565b600082610347575060016103d5565b81610354575060006103d5565b816001811461036a576002811461037457610390565b60019150506103d5565b60ff841115610385576103856102df565b50506001821b6103d5565b5060208310610133831016604e8410600b84101617156103b3575081810a6103d5565b6103bd83836102f5565b80600019048211156103d1576103d16102df565b0290505b92915050565b60006102bf60ff841683610338565b80820281158282048414176103d5576103d56102df565b634e487b7160e01b600052601260045260246000fd5b60008261042657610426610401565b500490565b60008261043a5761043a610401565b50069056fea26469706673582212205835846e161391bef7879889bea861eb1d9620235c2bd2f0d24a120b7177d5dd64736f6c63430008130033","opcodes":"PUSH1 0x80 PUSH1 0x40 MSTORE PUSH4 0x5A995C0 PUSH1 0x0 SSTORE CALLVALUE DUP1 ISZERO PUSH2 0x18 JUMPI PUSH1 0x0 DUP1 REVERT JUMPDEST POP PUSH2 0x475 DUP1 PUSH2 0x28 PUSH1 0x0 CODECOPY PUSH1 0x0 RETURN INVALID PUSH1 0x80 PUSH1 0x40 MSTORE CALLVALUE DUP1 ISZERO PUSH2 0x10 JUMPI PUSH1 0x0 DUP1 REVERT JUMPDEST POP PUSH1 0x4 CALLDATASIZE LT PUSH2 0x7D JUMPI PUSH1 0x0 CALLDATALOAD PUSH1 0xE0 SHR DUP1 PUSH4 0x8234E68C GT PUSH2 0x5B JUMPI DUP1 PUSH4 0x8234E68C EQ PUSH2 0xDA JUMPI DUP1 PUSH4 0x9A6FC8F5 EQ PUSH2 0xE2 JUMPI DUP1 PUSH4 0xF7A30806 EQ PUSH2 0x12C JUMPI DUP1 PUSH4 0xFEAF968C EQ PUSH2 0x141 JUMPI PUSH1 0x0 DUP1 REVERT JUMPDEST DUP1 PUSH4 0x313CE567 EQ PUSH2 0x82 JUMPI DUP1 PUSH4 0x54FD4D50 EQ PUSH2 0x96 JUMPI DUP1 PUSH4 0x7284E416 EQ PUSH2 0xA7 JUMPI JUMPDEST PUSH1 0x0 DUP1 REVERT JUMPDEST PUSH1 0x40 MLOAD PUSH1 0x8 DUP2 MSTORE PUSH1 0x20 ADD JUMPDEST PUSH1 0x40 MLOAD DUP1 SWAP2 SUB SWAP1 RETURN JUMPDEST PUSH1 0x3 JUMPDEST PUSH1 0x40 MLOAD SWAP1 DUP2 MSTORE PUSH1 0x20 ADD PUSH2 0x8D JUMP JUMPDEST PUSH1 0x40 DUP1 MLOAD DUP1 DUP3 ADD DUP3 MSTORE PUSH1 0x11 DUP2 MSTORE PUSH17 0x4D41544943202D3E20555344204D6F636B PUSH1 0x78 SHL PUSH1 0x20 DUP3 ADD MSTORE SWAP1 MLOAD PUSH2 0x8D SWAP2 SWAP1 PUSH2 0x245 JUMP JUMPDEST PUSH2 0x99 PUSH2 0x149 JUMP JUMPDEST PUSH2 0xF5 PUSH2 0xF0 CALLDATASIZE PUSH1 0x4 PUSH2 0x293 JUMP JUMPDEST PUSH2 0x1E2 JUMP JUMPDEST PUSH1 0x40 DUP1 MLOAD PUSH10 0xFFFFFFFFFFFFFFFFFFFF SWAP7 DUP8 AND DUP2 MSTORE PUSH1 0x20 DUP2 ADD SWAP6 SWAP1 SWAP6 MSTORE DUP5 ADD SWAP3 SWAP1 SWAP3 MSTORE PUSH1 0x60 DUP4 ADD MSTORE SWAP1 SWAP2 AND PUSH1 0x80 DUP3 ADD MSTORE PUSH1 0xA0 ADD PUSH2 0x8D JUMP JUMPDEST PUSH2 0x13F PUSH2 0x13A CALLDATASIZE PUSH1 0x4 PUSH2 0x2C6 JUMP JUMPDEST PUSH1 0x0 SSTORE JUMP JUMPDEST STOP JUMPDEST PUSH2 0xF5 PUSH2 0x214 JUMP JUMPDEST PUSH1 0x0 DUP1 PUSH2 0x154 PUSH2 0x214 JUMP JUMPDEST POP POP POP SWAP2 POP POP PUSH1 0x0 DUP2 SGT PUSH2 0x1AE JUMPI PUSH1 0x40 MLOAD PUSH3 0x461BCD PUSH1 0xE5 SHL DUP2 MSTORE PUSH1 0x20 PUSH1 0x4 DUP3 ADD MSTORE PUSH1 0x1F PUSH1 0x24 DUP3 ADD MSTORE PUSH32 0x556E61626C6520746F207265747269657665204D415449432070726963652E00 PUSH1 0x44 DUP3 ADD MSTORE PUSH1 0x64 ADD PUSH1 0x40 MLOAD DUP1 SWAP2 SUB SWAP1 REVERT JUMPDEST PUSH1 0x0 PUSH2 0x1BC PUSH1 0x8 PUSH1 0xA PUSH2 0x3DB JUMP JUMPDEST SWAP1 POP DUP2 PUSH2 0x1D1 DUP3 PUSH8 0xDE0B6B3A7640000 PUSH2 0x3EA JUMP JUMPDEST PUSH2 0x1DB SWAP2 SWAP1 PUSH2 0x417 JUMP JUMPDEST SWAP3 POP POP POP SWAP1 JUMP JUMPDEST PUSH1 0x0 DUP1 DUP1 DUP1 DUP1 DUP1 PUSH2 0x1FD PUSH10 0xFFFFFFFFFFFFFFFFFFFF NUMBER PUSH2 0x42B JUMP JUMPDEST PUSH1 0x0 SLOAD SWAP1 SWAP9 SWAP1 SWAP8 POP TIMESTAMP SWAP7 POP DUP7 SWAP6 POP DUP9 SWAP5 POP SWAP3 POP POP POP JUMP JUMPDEST PUSH1 0x0 DUP1 DUP1 DUP1 DUP1 DUP1 PUSH2 0x22F PUSH10 0xFFFFFFFFFFFFFFFFFFFF NUMBER PUSH2 0x42B JUMP JUMPDEST PUSH1 0x0 SLOAD SWAP1 SWAP8 SWAP1 SWAP7 POP TIMESTAMP SWAP6 POP DUP6 SWAP5 POP DUP8 SWAP4 POP SWAP2 POP POP JUMP JUMPDEST PUSH1 0x0 PUSH1 0x20 DUP1 DUP4 MSTORE DUP4 MLOAD DUP1 DUP3 DUP6 ADD MSTORE PUSH1 0x0 JUMPDEST DUP2 DUP2 LT ISZERO PUSH2 0x272 JUMPI DUP6 DUP2 ADD DUP4 ADD MLOAD DUP6 DUP3 ADD PUSH1 0x40 ADD MSTORE DUP3 ADD PUSH2 0x256 JUMP JUMPDEST POP PUSH1 0x0 PUSH1 0x40 DUP3 DUP7 ADD ADD MSTORE PUSH1 0x40 PUSH1 0x1F NOT PUSH1 0x1F DUP4 ADD AND DUP6 ADD ADD SWAP3 POP POP POP SWAP3 SWAP2 POP POP JUMP JUMPDEST PUSH1 0x0 PUSH1 0x20 DUP3 DUP5 SUB SLT ISZERO PUSH2 0x2A5 JUMPI PUSH1 0x0 DUP1 REVERT JUMPDEST DUP2 CALLDATALOAD PUSH10 0xFFFFFFFFFFFFFFFFFFFF DUP2 AND DUP2 EQ PUSH2 0x2BF JUMPI PUSH1 0x0 DUP1 REVERT JUMPDEST SWAP4 SWAP3 POP POP POP JUMP JUMPDEST PUSH1 0x0 PUSH1 0x20 DUP3 DUP5 SUB SLT ISZERO PUSH2 0x2D8 JUMPI PUSH1 0x0 DUP1 REVERT JUMPDEST POP CALLDATALOAD SWAP2 SWAP1 POP JUMP JUMPDEST PUSH4 0x4E487B71 PUSH1 0xE0 SHL PUSH1 0x0 MSTORE PUSH1 0x11 PUSH1 0x4 MSTORE PUSH1 0x24 PUSH1 0x0 REVERT JUMPDEST PUSH1 0x1 DUP2 DUP2 JUMPDEST DUP1 DUP6 GT ISZERO PUSH2 0x330 JUMPI DUP2 PUSH1 0x0 NOT DIV DUP3 GT ISZERO PUSH2 0x316 JUMPI PUSH2 0x316 PUSH2 0x2DF JUMP JUMPDEST DUP1 DUP6 AND ISZERO PUSH2 0x323 JUMPI SWAP2 DUP2 MUL SWAP2 JUMPDEST SWAP4 DUP5 SHR SWAP4 SWAP1 DUP1 MUL SWAP1 PUSH2 0x2FA JUMP JUMPDEST POP SWAP3 POP SWAP3 SWAP1 POP JUMP JUMPDEST PUSH1 0x0 DUP3 PUSH2 0x347 JUMPI POP PUSH1 0x1 PUSH2 0x3D5 JUMP JUMPDEST DUP2 PUSH2 0x354 JUMPI POP PUSH1 0x0 PUSH2 0x3D5 JUMP JUMPDEST DUP2 PUSH1 0x1 DUP2 EQ PUSH2 0x36A JUMPI PUSH1 0x2 DUP2 EQ PUSH2 0x374 JUMPI PUSH2 0x390 JUMP JUMPDEST PUSH1 0x1 SWAP2 POP POP PUSH2 0x3D5 JUMP JUMPDEST PUSH1 0xFF DUP5 GT ISZERO PUSH2 0x385 JUMPI PUSH2 0x385 PUSH2 0x2DF JUMP JUMPDEST POP POP PUSH1 0x1 DUP3 SHL PUSH2 0x3D5 JUMP JUMPDEST POP PUSH1 0x20 DUP4 LT PUSH2 0x133 DUP4 LT AND PUSH1 0x4E DUP5 LT PUSH1 0xB DUP5 LT AND OR ISZERO PUSH2 0x3B3 JUMPI POP DUP2 DUP2 EXP PUSH2 0x3D5 JUMP JUMPDEST PUSH2 0x3BD DUP4 DUP4 PUSH2 0x2F5 JUMP JUMPDEST DUP1 PUSH1 0x0 NOT DIV DUP3 GT ISZERO PUSH2 0x3D1 JUMPI PUSH2 0x3D1 PUSH2 0x2DF JUMP JUMPDEST MUL SWAP1 POP JUMPDEST SWAP3 SWAP2 POP POP JUMP JUMPDEST PUSH1 0x0 PUSH2 0x2BF PUSH1 0xFF DUP5 AND DUP4 PUSH2 0x338 JUMP JUMPDEST DUP1 DUP3 MUL DUP2 ISZERO DUP3 DUP3 DIV DUP5 EQ OR PUSH2 0x3D5 JUMPI PUSH2 0x3D5 PUSH2 0x2DF JUMP JUMPDEST PUSH4 0x4E487B71 PUSH1 0xE0 SHL PUSH1 0x0 MSTORE PUSH1 0x12 PUSH1 0x4 MSTORE PUSH1 0x24 PUSH1 0x0 REVERT JUMPDEST PUSH1 0x0 DUP3 PUSH2 0x426 JUMPI PUSH2 0x426 PUSH2 0x401 JUMP JUMPDEST POP DIV SWAP1 JUMP JUMPDEST PUSH1 0x0 DUP3 PUSH2 0x43A JUMPI PUSH2 0x43A PUSH2 0x401 JUMP JUMPDEST POP MOD SWAP1 JUMP INVALID LOG2 PUSH5 0x6970667358 0x22 SLT KECCAK256 PC CALLDATALOAD DUP5 PUSH15 0x161391BEF7879889BEA861EB1D9620 0x23 0x5C 0x2B 0xD2 CREATE 0xD2 0x4A SLT SIGNEXTEND PUSH18 0x77D5DD64736F6C6343000813003300000000 "},"methodIdentifiers":{"decimals()":"313ce567","description()":"7284e416","dollarToWei()":"8234e68c","getRoundData(uint80)":"9a6fc8f5","latestRoundData()":"feaf968c","setPrice(int256)":"f7a30806","version()":"54fd4d50"}}}}}