{"src/contracts/mocks/MockEAS.sol":{"MockEAS":{"abi":[{"inputs":[],"stateMutability":"nonpayable","type":"constructor"},{"anonymous":false,"inputs":[{"indexed":true,"internalType":"address","name":"recipient","type":"address"}],"name":"Attested","type":"event"},{"inputs":[{"components":[{"internalType":"bytes32","name":"schema","type":"bytes32"},{"components":[{"internalType":"address","name":"recipient","type":"address"},{"internalType":"uint64","name":"expirationTime","type":"uint64"},{"internalType":"bool","name":"revocable","type":"bool"},{"internalType":"bytes32","name":"refUID","type":"bytes32"},{"internalType":"bytes","name":"data","type":"bytes"},{"internalType":"uint256","name":"value","type":"uint256"}],"internalType":"struct MockEAS.AttestationRequestData","name":"data","type":"tuple"}],"internalType":"struct MockEAS.AttestationRequest","name":"request","type":"tuple"}],"name":"attest","outputs":[{"internalType":"bytes32","name":"","type":"bytes32"}],"stateMutability":"payable","type":"function"}],"evm":{"bytecode":{"linkReferences":{},"object":"608060405234801561001057600080fd5b5060ec8061001f6000396000f3fe608060405260043610601c5760003560e01c8063f17325e7146021575b600080fd5b6030602c3660046077565b6042565b60405190815260200160405180910390f35b60405160009033907f43348b2f0af7f1468816ae2fc5472643114556a82bacea2d2da660069ea117b3908390a2506000919050565b600060208284031215608857600080fd5b813567ffffffffffffffff811115609e57600080fd5b82016040818503121560af57600080fd5b939250505056fea2646970667358221220327125620fb4fe909309a10dd23b90d0e37fc70e4b0f1127e44c8a0d2339edd864736f6c63430008130033","opcodes":"PUSH1 0x80 PUSH1 0x40 MSTORE CALLVALUE DUP1 ISZERO PUSH2 0x10 JUMPI PUSH1 0x0 DUP1 REVERT JUMPDEST POP PUSH1 0xEC DUP1 PUSH2 0x1F PUSH1 0x0 CODECOPY PUSH1 0x0 RETURN INVALID PUSH1 0x80 PUSH1 0x40 MSTORE PUSH1 0x4 CALLDATASIZE LT PUSH1 0x1C JUMPI PUSH1 0x0 CALLDATALOAD PUSH1 0xE0 SHR DUP1 PUSH4 0xF17325E7 EQ PUSH1 0x21 JUMPI JUMPDEST PUSH1 0x0 DUP1 REVERT JUMPDEST PUSH1 0x30 PUSH1 0x2C CALLDATASIZE PUSH1 0x4 PUSH1 0x77 JUMP JUMPDEST PUSH1 0x42 JUMP JUMPDEST PUSH1 0x40 MLOAD SWAP1 DUP2 MSTORE PUSH1 0x20 ADD PUSH1 0x40 MLOAD DUP1 SWAP2 SUB SWAP1 RETURN JUMPDEST PUSH1 0x40 MLOAD PUSH1 0x0 SWAP1 CALLER SWAP1 PUSH32 0x43348B2F0AF7F1468816AE2FC5472643114556A82BACEA2D2DA660069EA117B3 SWAP1 DUP4 SWAP1 LOG2 POP PUSH1 0x0 SWAP2 SWAP1 POP JUMP JUMPDEST PUSH1 0x0 PUSH1 0x20 DUP3 DUP5 SUB SLT ISZERO PUSH1 0x88 JUMPI PUSH1 0x0 DUP1 REVERT JUMPDEST DUP2 CALLDATALOAD PUSH8 0xFFFFFFFFFFFFFFFF DUP2 GT ISZERO PUSH1 0x9E JUMPI PUSH1 0x0 DUP1 REVERT JUMPDEST DUP3 ADD PUSH1 0x40 DUP2 DUP6 SUB SLT ISZERO PUSH1 0xAF JUMPI PUSH1 0x0 DUP1 REVERT JUMPDEST SWAP4 SWAP3 POP POP POP JUMP INVALID LOG2 PUSH5 0x6970667358 0x22 SLT KECCAK256 ORIGIN PUSH18 0x25620FB4FE909309A10DD23B90D0E37FC70E 0x4B 0xF GT 0x27 0xE4 0x4C DUP11 0xD 0x23 CODECOPY 0xED 0xD8 PUSH5 0x736F6C6343 STOP ADDMOD SGT STOP CALLER "},"methodIdentifiers":{"attest((bytes32,(address,uint64,bool,bytes32,bytes,uint256)))":"f17325e7"}}}}}