{"src/contracts/Tipping.sol":{"Tipping":{"abi":[{"inputs":[{"internalType":"bool","name":"_supportsChainlink","type":"bool"},{"internalType":"bool","name":"_supportsEAS","type":"bool"},{"internalType":"address","name":"_nativeUsdAggregator","type":"address"},{"internalType":"address","name":"_sequencerAddress","type":"address"},{"internalType":"uint256","name":"_stalenessThreshold","type":"uint256"},{"internalType":"int256","name":"_fallbackPrice","type":"int256"},{"internalType":"uint256","name":"_fallbackDecimals","type":"uint256"},{"internalType":"address","name":"_eas","type":"address"},{"internalType":"bytes32","name":"_easSchema","type":"bytes32"}],"stateMutability":"nonpayable","type":"constructor"},{"inputs":[],"name":"AddressIsNull","type":"error"},{"inputs":[],"name":"CoinSendFailed","type":"error"},{"inputs":[],"name":"DenominatorTooSmall","type":"error"},{"inputs":[],"name":"FeeHigherThanProvidedNativeCurrency","type":"error"},{"inputs":[],"name":"InvalidEAS","type":"error"},{"inputs":[],"name":"MinimalFeePercentageTooBig","type":"error"},{"inputs":[],"name":"MinimalFeeTooBig","type":"error"},{"inputs":[],"name":"OnlyAdminCanWithdraw","type":"error"},{"inputs":[],"name":"PayingWithNative","type":"error"},{"inputs":[],"name":"PaymentFeeTooSmall","type":"error"},{"inputs":[],"name":"PercentageFeeTooSmall","type":"error"},{"inputs":[],"name":"RenounceOwnershipNotAllowed","type":"error"},{"inputs":[],"name":"UnsupportedAssetType","type":"error"},{"inputs":[],"name":"UnsupportedAssetType","type":"error"},{"inputs":[],"name":"ValueSentTooSmall","type":"error"},{"inputs":[],"name":"WithdrawFailed","type":"error"},{"anonymous":false,"inputs":[{"indexed":false,"internalType":"string","name":"reason","type":"string"}],"name":"OracleFailed","type":"event"},{"anonymous":false,"inputs":[{"indexed":true,"internalType":"address","name":"previousOwner","type":"address"},{"indexed":true,"internalType":"address","name":"newOwner","type":"address"}],"name":"OwnershipTransferred","type":"event"},{"anonymous":false,"inputs":[{"indexed":true,"internalType":"address","name":"recipientAddress","type":"address"},{"indexed":false,"internalType":"string","name":"message","type":"string"},{"indexed":true,"internalType":"address","name":"sender","type":"address"},{"indexed":false,"internalType":"enum AssetType","name":"assetType","type":"uint8"},{"indexed":true,"internalType":"address","name":"tokenAddress","type":"address"},{"indexed":false,"internalType":"uint256","name":"tokenId","type":"uint256"},{"indexed":false,"internalType":"uint256","name":"amount","type":"uint256"},{"indexed":false,"internalType":"uint256","name":"fee","type":"uint256"}],"name":"TipMessage","type":"event"},{"inputs":[],"name":"EAS_SCHEMA","outputs":[{"internalType":"bytes32","name":"","type":"bytes32"}],"stateMutability":"view","type":"function"},{"inputs":[],"name":"FALLBACK_DECIMALS","outputs":[{"internalType":"uint256","name":"","type":"uint256"}],"stateMutability":"view","type":"function"},{"inputs":[],"name":"FALLBACK_PRICE","outputs":[{"internalType":"int256","name":"","type":"int256"}],"stateMutability":"view","type":"function"},{"inputs":[{"internalType":"enum AssetType","name":"","type":"uint8"}],"name":"FEE_TYPE_MAPPING","outputs":[{"internalType":"enum FeeType","name":"","type":"uint8"}],"stateMutability":"view","type":"function"},{"inputs":[],"name":"MINIMAL_PAYMENT_FEE","outputs":[{"internalType":"uint256","name":"","type":"uint256"}],"stateMutability":"view","type":"function"},{"inputs":[],"name":"MINIMAL_PAYMENT_FEE_DENOMINATOR","outputs":[{"internalType":"uint256","name":"","type":"uint256"}],"stateMutability":"view","type":"function"},{"inputs":[],"name":"NATIVE_USD_STALE_THRESHOLD","outputs":[{"internalType":"uint256","name":"","type":"uint256"}],"stateMutability":"view","type":"function"},{"inputs":[],"name":"NATIVE_WEI_MULTIPLIER","outputs":[{"internalType":"uint256","name":"","type":"uint256"}],"stateMutability":"view","type":"function"},{"inputs":[],"name":"PAYMENT_FEE_PERCENTAGE","outputs":[{"internalType":"uint256","name":"","type":"uint256"}],"stateMutability":"view","type":"function"},{"inputs":[],"name":"PAYMENT_FEE_PERCENTAGE_DENOMINATOR","outputs":[{"internalType":"uint256","name":"","type":"uint256"}],"stateMutability":"view","type":"function"},{"inputs":[],"name":"PAYMENT_FEE_SLIPPAGE_PERCENT","outputs":[{"internalType":"uint256","name":"","type":"uint256"}],"stateMutability":"view","type":"function"},{"inputs":[{"internalType":"address","name":"_adminAddress","type":"address"}],"name":"addAdmin","outputs":[],"stateMutability":"nonpayable","type":"function"},{"inputs":[{"internalType":"address","name":"publicGoodAddress","type":"address"}],"name":"addPublicGood","outputs":[],"stateMutability":"nonpayable","type":"function"},{"inputs":[{"internalType":"address","name":"erc20Address","type":"address"}],"name":"addSupportedERC20","outputs":[],"stateMutability":"nonpayable","type":"function"},{"inputs":[{"internalType":"address","name":"","type":"address"}],"name":"admins","outputs":[{"internalType":"bool","name":"","type":"bool"}],"stateMutability":"view","type":"function"},{"inputs":[{"components":[{"internalType":"enum AssetType","name":"assetType","type":"uint8"},{"internalType":"address","name":"recipient","type":"address"},{"internalType":"uint256","name":"amount","type":"uint256"},{"internalType":"uint256","name":"tokenId","type":"uint256"},{"internalType":"address","name":"tokenAddress","type":"address"},{"internalType":"string","name":"message","type":"string"}],"internalType":"struct BatchCall[]","name":"calls","type":"tuple[]"}],"name":"batchSendTo","outputs":[],"stateMutability":"payable","type":"function"},{"inputs":[{"components":[{"internalType":"enum AssetType","name":"assetType","type":"uint8"},{"internalType":"address","name":"recipient","type":"address"},{"internalType":"uint256","name":"amount","type":"uint256"},{"internalType":"uint256","name":"tokenId","type":"uint256"},{"internalType":"address","name":"tokenAddress","type":"address"},{"internalType":"string","name":"message","type":"string"}],"internalType":"struct BatchCall[]","name":"calls","type":"tuple[]"}],"name":"calculateBatchFee","outputs":[{"components":[{"internalType":"enum AssetType","name":"assetType","type":"uint8"},{"internalType":"address","name":"recipient","type":"address"},{"internalType":"uint256","name":"amount","type":"uint256"},{"internalType":"uint256","name":"tokenId","type":"uint256"},{"internalType":"address","name":"tokenAddress","type":"address"},{"internalType":"string","name":"message","type":"string"},{"internalType":"uint256","name":"nativeAmount","type":"uint256"}],"internalType":"struct AdjustedBatchCall[]","name":"resultCalls","type":"tuple[]"}],"stateMutability":"view","type":"function"},{"inputs":[{"internalType":"uint256","name":"_minimalPaymentFee","type":"uint256"},{"internalType":"uint256","name":"_paymentFeeDenominator","type":"uint256"}],"name":"changeMinimalPaymentFee","outputs":[],"stateMutability":"nonpayable","type":"function"},{"inputs":[{"internalType":"uint256","name":"_paymentFeePercentage","type":"uint256"},{"internalType":"uint256","name":"_paymentFeeDenominator","type":"uint256"}],"name":"changePaymentFeePercentage","outputs":[],"stateMutability":"nonpayable","type":"function"},{"inputs":[],"name":"checkSequencer","outputs":[{"internalType":"bool","name":"","type":"bool"}],"stateMutability":"view","type":"function"},{"inputs":[{"internalType":"address","name":"_adminAddress","type":"address"}],"name":"deleteAdmin","outputs":[],"stateMutability":"nonpayable","type":"function"},{"inputs":[{"internalType":"address","name":"publicGoodAddress","type":"address"}],"name":"deletePublicGood","outputs":[],"stateMutability":"nonpayable","type":"function"},{"inputs":[{"internalType":"address","name":"erc20Address","type":"address"}],"name":"deleteSupportedERC20","outputs":[],"stateMutability":"nonpayable","type":"function"},{"inputs":[{"internalType":"uint256","name":"_value","type":"uint256"},{"internalType":"enum AssetType","name":"_assetType","type":"uint8"},{"internalType":"address","name":"_recipient","type":"address"}],"name":"getPaymentFee","outputs":[{"internalType":"uint256","name":"","type":"uint256"}],"stateMutability":"view","type":"function"},{"inputs":[{"internalType":"uint256","name":"_value","type":"uint256"},{"internalType":"enum AssetType","name":"_assetType","type":"uint8"},{"internalType":"address","name":"_recipient","type":"address"}],"name":"getPaymentFeePost","outputs":[{"internalType":"uint256","name":"","type":"uint256"}],"stateMutability":"view","type":"function"},{"inputs":[],"name":"owner","outputs":[{"internalType":"address","name":"","type":"address"}],"stateMutability":"view","type":"function"},{"inputs":[{"internalType":"address","name":"","type":"address"}],"name":"publicGoods","outputs":[{"internalType":"bool","name":"","type":"bool"}],"stateMutability":"view","type":"function"},{"inputs":[],"name":"renounceOwnership","outputs":[],"stateMutability":"view","type":"function"},{"inputs":[{"internalType":"address","name":"_recipient","type":"address"},{"internalType":"uint256","name":"_tokenId","type":"uint256"},{"internalType":"uint256","name":"_amount","type":"uint256"},{"internalType":"address","name":"_assetContractAddress","type":"address"},{"internalType":"string","name":"_message","type":"string"}],"name":"sendERC1155To","outputs":[],"stateMutability":"payable","type":"function"},{"inputs":[{"internalType":"address","name":"_recipient","type":"address"},{"internalType":"uint256","name":"_amount","type":"uint256"},{"internalType":"address","name":"_tokenContractAddr","type":"address"},{"internalType":"string","name":"_message","type":"string"}],"name":"sendERC20To","outputs":[],"stateMutability":"payable","type":"function"},{"inputs":[{"internalType":"address","name":"_recipient","type":"address"},{"internalType":"uint256","name":"_tokenId","type":"uint256"},{"internalType":"address","name":"_nftContractAddress","type":"address"},{"internalType":"string","name":"_message","type":"string"}],"name":"sendERC721To","outputs":[],"stateMutability":"payable","type":"function"},{"inputs":[{"internalType":"address","name":"_recipient","type":"address"},{"internalType":"string","name":"_message","type":"string"}],"name":"sendNativeTo","outputs":[],"stateMutability":"payable","type":"function"},{"inputs":[{"internalType":"address","name":"","type":"address"}],"name":"supportedERC20","outputs":[{"internalType":"bool","name":"","type":"bool"}],"stateMutability":"view","type":"function"},{"inputs":[{"internalType":"address","name":"newOwner","type":"address"}],"name":"transferOwnership","outputs":[],"stateMutability":"nonpayable","type":"function"},{"inputs":[],"name":"withdraw","outputs":[],"stateMutability":"nonpayable","type":"function"},{"inputs":[{"internalType":"address","name":"_tokenContract","type":"address"}],"name":"withdrawToken","outputs":[],"stateMutability":"nonpayable","type":"function"}],"evm":{"bytecode":{"linkReferences":{},"object":"610140604052670de0b6b3a7640000600255600a6003556103e8600455600160055560016006553480156200003357600080fd5b506040516200375838038062003758833981016040819052620000569162000284565b86868686868686620000683362000206565b600180556001600160a01b03821662000094576040516341bc07ff60e11b815260040160405180910390fd5b6001600160a01b0391821660805260a0528516620000c55760405163fb7566d760e01b815260040160405180910390fd5b6001600160a01b0394851660c0529290931660e0819052600d805491151560ff19928316179055600a91909155600b92909255600c55336000908152600e602090815260408220805484166001179055600790527f6d5257204ebe7d88fd91ae87941cb2dd9d8062b64ae5a2bd2d28ec40b9fbf6df8054831690557fb39221ace053465ec3453ce2b36430bd138b997ecea25c1043da0c366812b8288054831660029081179091557fb7c774451310d1be4108bc180d1b52823cb0ee0274a6c0081bcaf94f115fb96d80548416821790557f3be6fd20d5acfde5b873b48692cd31f4d3c7e8ee8a813af4696af8859e5ca6c6805484169091179055600490527fb805995a7ec585a251200611a61d179cfd7fb105e1ab17dc415a7336783786f78054909116905550505050931515610100525050151561012052506200031b565b600080546001600160a01b038381166001600160a01b0319831681178455604051919092169283917f8be0079c531659141344cd1fd0a4f28419497f9722a3daafe3b4186f6b6457e09190a35050565b805180151581146200026757600080fd5b919050565b80516001600160a01b03811681146200026757600080fd5b60008060008060008060008060006101208a8c031215620002a457600080fd5b620002af8a62000256565b9850620002bf60208b0162000256565b9750620002cf60408b016200026c565b9650620002df60608b016200026c565b955060808a0151945060a08a0151935060c08a015192506200030460e08b016200026c565b91506101008a015190509295985092959850929598565b60805160a05160c05160e05161010051610120516133d8620003806000396000611f7d01526000611fe50152600061273e015260008181612689015281816127e3015261288201526000818161029a0152612311015260006122d701526133d86000f3fe60806040526004361061020f5760003560e01c8063715018a6116101185780639332c37b116100a0578063dc8daf931161006f578063dc8daf93146105fb578063e3ed780914610615578063e4bbdc731461062b578063f2339fe814610641578063f2fde38b1461065757600080fd5b80639332c37b1461054e578063b20d0bff1461057e578063c550403f1461059e578063d73acee5146105db57600080fd5b8063834907b2116100e7578063834907b2146104be57806383a4c7e1146104de57806389476069146104f35780638d157db8146105135780638da5cb5b1461052657600080fd5b8063715018a61461043957806380fa375f1461044e578063819672671461046e578063823130321461048e57600080fd5b8063429b62e51161019b5780635c73f1631161016a5780635c73f163146103ba5780635cfdb086146103d05780636ebe413e146103f057806370480275146104065780637129607a1461042657600080fd5b8063429b62e51461032757806344a8b1c614610367578063464108cd1461037a5780635a7754d3146103a757600080fd5b806325705f8b116101e257806325705f8b1461028857806327cb0ba1146102bc57806327e1f7df146102d257806339c1c403146102f25780633ccfd60b1461031257600080fd5b806303f613dc146102145780630728c7d21461023d5780630f7f630a1461025f57806315c6d01e14610275575b600080fd5b34801561022057600080fd5b5061022a60045481565b6040519081526020015b60405180910390f35b34801561024957600080fd5b5061025d610258366004612aae565b610677565b005b34801561026b57600080fd5b5061022a60055481565b61025d610283366004612b8f565b61072c565b34801561029457600080fd5b5061022a7f000000000000000000000000000000000000000000000000000000000000000081565b3480156102c857600080fd5b5061022a60065481565b3480156102de57600080fd5b5061025d6102ed366004612bf7565b610852565b3480156102fe57600080fd5b5061022a61030d366004612c21565b6108ca565b34801561031e57600080fd5b5061025d6109b1565b34801561033357600080fd5b50610357610342366004612bf7565b600e6020526000908152604090205460ff1681565b6040519015158152602001610234565b61025d610375366004612c5d565b610a7d565b34801561038657600080fd5b5061039a610395366004612c5d565b611233565b6040516102349190612d4c565b61025d6103b5366004612e0d565b61175d565b3480156103c657600080fd5b5061022a60035481565b3480156103dc57600080fd5b5061025d6103eb366004612bf7565b6117f9565b3480156103fc57600080fd5b5061022a600b5481565b34801561041257600080fd5b5061025d610421366004612bf7565b611873565b61025d610434366004612e5b565b6118ed565b34801561044557600080fd5b5061025d61198c565b34801561045a57600080fd5b5061025d610469366004612aae565b6119cf565b34801561047a57600080fd5b5061025d610489366004612bf7565b611a7e565b34801561049a57600080fd5b506103576104a9366004612bf7565b60096020526000908152604090205460ff1681565b3480156104ca57600080fd5b5061022a6104d9366004612c21565b611af6565b3480156104ea57600080fd5b5061022a600581565b3480156104ff57600080fd5b5061025d61050e366004612bf7565b611b36565b61025d610521366004612b8f565b611c1b565b34801561053257600080fd5b506000546040516001600160a01b039091168152602001610234565b34801561055a57600080fd5b50610357610569366004612bf7565b60086020526000908152604090205460ff1681565b34801561058a57600080fd5b5061025d610599366004612bf7565b611cbc565b3480156105aa57600080fd5b506105ce6105b9366004612ecd565b60076020526000908152604090205460ff1681565b6040516102349190612ee8565b3480156105e757600080fd5b5061025d6105f6366004612bf7565b611d34565b34801561060757600080fd5b50600d546103579060ff1681565b34801561062157600080fd5b5061022a600c5481565b34801561063757600080fd5b5061022a600a5481565b34801561064d57600080fd5b5061022a60025481565b34801561066357600080fd5b5061025d610672366004612bf7565b611dae565b6000546001600160a01b031633146106aa5760405162461bcd60e51b81526004016106a190612f02565b60405180910390fd5b600082116106cb57604051631ebf5cd960e21b815260040160405180910390fd5b600081116106ec57604051634b0be53160e11b815260040160405180910390fd5b6005816106fa846064612f4d565b6107049190612f64565b1061072157604051623ff07b60e31b815260040160405180910390fd5b600391909155600455565b60026001540361074e5760405162461bcd60e51b81526004016106a190612f86565b600260015560008061076285333087611e49565b6001600160a01b038516600090815260086020526040902054909150349060019060ff16156107b05750819050600434156107b057604051633aae617160e21b815260040160405180910390fd5b6000806107c1838b8660008c611f58565b909250905060048360048111156107da576107da612cd2565b036107e7578095506107eb565b8495505b6107f6868b8a611fc6565b876001600160a01b0316336001600160a01b03168b6001600160a01b03166000805160206133838339815191528a8760008c8960405161083a959493929190612fbd565b60405180910390a45050600180555050505050505050565b6000546001600160a01b0316331461087c5760405162461bcd60e51b81526004016106a190612f02565b60026001540361089e5760405162461bcd60e51b81526004016106a190612f86565b600260019081556001600160a01b039091166000908152600e60205260409020805460ff191690558055565b6001600160a01b03811660009081526009602052604081205460ff16156108f3575060006109aa565b60006108fd611fe1565b9050600061090a8661201d565b905060006007600087600481111561092457610924612cd2565b600481111561093557610935612cd2565b815260208101919091526040016000205460ff169050600281600281111561095f5761095f612cd2565b0361096f578293505050506109aa565b600081600281111561098357610983612cd2565b03610992575091506109aa9050565b828211156109a4575091506109aa9050565b50909150505b9392505050565b336000908152600e602052604090205460ff1615156001146109e657604051633d78cd9b60e11b815260040160405180910390fd5b600260015403610a085760405162461bcd60e51b81526004016106a190612f86565b6002600155604051600090339047908381818185875af1925050503d8060008114610a4f576040519150601f19603f3d011682016040523d82523d6000602084013e610a54565b606091505b5050905080610a7657604051631d42c86760e21b815260040160405180910390fd5b5060018055565b600260015403610a9f5760405162461bcd60e51b81526004016106a190612f86565b60026001556000808080805b858110156111fc576000878783818110610ac757610ac7612ffb565b9050602002810190610ad99190613011565b610ae7906020810190612ecd565b905060086000898985818110610aff57610aff612ffb565b9050602002810190610b119190613011565b610b229060a0810190608001612bf7565b6001600160a01b0316815260208101919091526040016000205460ff1615610b48575060045b6000816004811115610b5c57610b5c612cd2565b03610c2957610bca81898985818110610b7757610b77612ffb565b9050602002810190610b899190613011565b610b9a906040810190602001612bf7565b8a8a86818110610bac57610bac612ffb565b9050602002810190610bbe9190613011565b60400135600080611f58565b96509450610c0c888884818110610be357610be3612ffb565b9050602002810190610bf59190613011565b610c06906040810190602001612bf7565b87612040565b610c168685613031565b9350610c228584613031565b92506110b5565b6001816004811115610c3d57610c3d612cd2565b1480610c5a57506004816004811115610c5857610c58612cd2565b145b15610e3b576000610cc8898985818110610c7657610c76612ffb565b9050602002810190610c889190613011565b6040013533308c8c88818110610ca057610ca0612ffb565b9050602002810190610cb29190613011565b610cc39060a0810190608001612bf7565b611e49565b90506001826004811115610cde57610cde612cd2565b03610d7057610d59828a8a86818110610cf957610cf9612ffb565b9050602002810190610d0b9190613011565b610d1c906040810190602001612bf7565b3460008d8d89818110610d3157610d31612ffb565b9050602002810190610d439190613011565b610d549060a0810190608001612bf7565b611f58565b509550610d668685613031565b9350809650610dc2565b610dbe828a8a86818110610d8657610d86612ffb565b9050602002810190610d989190613011565b610da9906040810190602001612bf7565b8360008d8d89818110610d3157610d31612ffb565b9750505b610e35878a8a86818110610dd857610dd8612ffb565b9050602002810190610dea9190613011565b610dfb906040810190602001612bf7565b8b8b87818110610e0d57610e0d612ffb565b9050602002810190610e1f9190613011565b610e309060a0810190608001612bf7565b611fc6565b506110b5565b6002816004811115610e4f57610e4f612cd2565b1480610e6c57506003816004811115610e6a57610e6a612cd2565b145b1561109c57610ee581898985818110610e8757610e87612ffb565b9050602002810190610e999190613011565b610eaa906040810190602001612bf7565b348b8b87818110610ebd57610ebd612ffb565b9050602002810190610ecf9190613011565b606001358c8c88818110610d3157610d31612ffb565b5094506002816004811115610efc57610efc612cd2565b03610fa55760019550610fa0888884818110610f1a57610f1a612ffb565b9050602002810190610f2c9190613011565b60600135338a8a86818110610f4357610f43612ffb565b9050602002810190610f559190613011565b610f66906040810190602001612bf7565b8b8b87818110610f7857610f78612ffb565b9050602002810190610f8a9190613011565b610f9b9060a0810190608001612bf7565b6120b9565b611092565b878783818110610fb757610fb7612ffb565b9050602002810190610fc99190613011565b604001359550611092888884818110610fe457610fe4612ffb565b9050602002810190610ff69190613011565b6060013589898581811061100c5761100c612ffb565b905060200281019061101e9190613011565b60400135338b8b8781811061103557611035612ffb565b90506020028101906110479190613011565b611058906040810190602001612bf7565b8c8c8881811061106a5761106a612ffb565b905060200281019061107c9190613011565b61108d9060a0810190608001612bf7565b61212d565b610c228584613031565b6040516328c354e560e01b815260040160405180910390fd5b8787838181106110c7576110c7612ffb565b90506020028101906110d99190613011565b6110ea9060a0810190608001612bf7565b6001600160a01b03163389898581811061110657611106612ffb565b90506020028101906111189190613011565b611129906040810190602001612bf7565b6001600160a01b03166000805160206133838339815191528b8b8781811061115357611153612ffb565b90506020028101906111659190613011565b6111739060a0810190613044565b8d8d8981811061118557611185612ffb565b90506020028101906111979190613011565b6111a5906020810190612ecd565b8e8e8a8181106111b7576111b7612ffb565b90506020028101906111c99190613011565b606001358d8d6040516111e196959493929190613092565b60405180910390a450806111f4816130e7565b915050610aab565b50346112088284613031565b10156112275760405163779aff7b60e01b815260040160405180910390fd5b50506001805550505050565b60608167ffffffffffffffff81111561124e5761124e612aec565b6040519080825280602002602001820160405280156112b457816020015b6040805160e0810182526000808252602080830182905292820181905260608083018290526080830182905260a083015260c0820152825260001990920191018161126c5790505b50905060005b828110156117565760008484838181106112d6576112d6612ffb565b90506020028101906112e89190613011565b6112f6906020810190612ecd565b90506008600086868581811061130e5761130e612ffb565b90506020028101906113209190613011565b6113319060a0810190608001612bf7565b6001600160a01b0316815260208101919091526040016000205460ff1615611357575060045b8083838151811061136a5761136a612ffb565b602002602001015160000190600481111561138757611387612cd2565b9081600481111561139a5761139a612cd2565b9052508484838181106113af576113af612ffb565b90506020028101906113c19190613011565b6113d2906040810190602001612bf7565b8383815181106113e4576113e4612ffb565b6020908102919091018101516001600160a01b0390921691015284848381811061141057611410612ffb565b90506020028101906114229190613011565b6040013583838151811061143857611438612ffb565b6020026020010151604001818152505084848381811061145a5761145a612ffb565b905060200281019061146c9190613011565b6060013583838151811061148257611482612ffb565b602002602001015160600181815250508484838181106114a4576114a4612ffb565b90506020028101906114b69190613011565b6114c79060a0810190608001612bf7565b8383815181106114d9576114d9612ffb565b6020026020010151608001906001600160a01b031690816001600160a01b03168152505084848381811061150f5761150f612ffb565b90506020028101906115219190613011565b61152f9060a0810190613044565b8080601f016020809104026020016040519081016040528093929190818152602001838380828437600092019190915250508551869250859150811061157757611577612ffb565b602002602001015160a0018190525060006115e986868581811061159d5761159d612ffb565b90506020028101906115af9190613011565b60400135838888878181106115c6576115c6612ffb565b90506020028101906115d89190613011565b61030d906040810190602001612bf7565b905060008260048111156115ff576115ff612cd2565b0361169f578084848151811061161757611617612ffb565b60200260200101516040015161162d9190613031565b84848151811061163f5761163f612ffb565b602002602001015160c00181815250508084848151811061166257611662612ffb565b6020026020010151604001516116789190613031565b84848151811061168a5761168a612ffb565b60200260200101516040018181525050611741565b60048260048111156116b3576116b3612cd2565b036116cb578084848151811061166257611662612ffb565b60018260048111156116df576116df612cd2565b14806116fc575060028260048111156116fa576116fa612cd2565b145b806117185750600382600481111561171657611716612cd2565b145b1561109c578084848151811061173057611730612ffb565b602002602001015160c00181815250505b5050808061174e906130e7565b9150506112ba565b5092915050565b60026001540361177f5760405162461bcd60e51b81526004016106a190612f86565b60026001556000806117948185348280611f58565b915091506117a28482612040565b60006001600160a01b0316336001600160a01b0316856001600160a01b03166000805160206133838339815191528660008087896040516117e7959493929190612fbd565b60405180910390a45050600180555050565b6000546001600160a01b031633146118235760405162461bcd60e51b81526004016106a190612f02565b6002600154036118455760405162461bcd60e51b81526004016106a190612f86565b600260019081556001600160a01b039091166000908152600960205260409020805460ff1916821790558055565b6000546001600160a01b0316331461189d5760405162461bcd60e51b81526004016106a190612f02565b6002600154036118bf5760405162461bcd60e51b81526004016106a190612f86565b600260019081556001600160a01b039091166000908152600e60205260409020805460ff1916821790558055565b60026001540361190f5760405162461bcd60e51b81526004016106a190612f86565b60026001556000611924600387348887611f58565b509050611934858533898761212d565b826001600160a01b0316336001600160a01b0316876001600160a01b03166000805160206133838339815191528560038a8a88604051611978959493929190612fbd565b60405180910390a450506001805550505050565b6000546001600160a01b031633146119b65760405162461bcd60e51b81526004016106a190612f02565b6040516396c553eb60e01b815260040160405180910390fd5b6000546001600160a01b031633146119f95760405162461bcd60e51b81526004016106a190612f02565b60008211611a1a57604051637b4631c560e11b815260040160405180910390fd5b60008111611a3b57604051634b0be53160e11b815260040160405180910390fd5b6005611a478284612f64565b101580611a55575060058210155b15611a73576040516361b23ca760e11b815260040160405180910390fd5b600591909155600655565b6000546001600160a01b03163314611aa85760405162461bcd60e51b81526004016106a190612f02565b600260015403611aca5760405162461bcd60e51b81526004016106a190612f86565b600260019081556001600160a01b039091166000908152600860205260409020805460ff191690558055565b6001600160a01b03811660009081526009602052604081205460ff1615611b1f575060006109aa565b6000611b29611fe1565b9050600061090a866121b7565b336000908152600e602052604090205460ff161515600114611b6b57604051633d78cd9b60e11b815260040160405180910390fd5b600260015403611b8d5760405162461bcd60e51b81526004016106a190612f86565b60026001556040516370a0823160e01b81523060048201528190611c139033906001600160a01b038416906370a0823190602401602060405180830381865afa158015611bde573d6000803e3d6000fd5b505050506040513d601f19601f82011682018060405250810190611c029190613100565b6001600160a01b03841691906121ea565b505060018055565b600260015403611c3d5760405162461bcd60e51b81526004016106a190612f86565b60026001819055506000611c55600286348787611f58565b509050611c64843387866120b9565b826001600160a01b0316336001600160a01b0316866001600160a01b031660008051602061338383398151915285600289600188604051611ca9959493929190612fbd565b60405180910390a4505060018055505050565b6000546001600160a01b03163314611ce65760405162461bcd60e51b81526004016106a190612f02565b600260015403611d085760405162461bcd60e51b81526004016106a190612f86565b600260019081556001600160a01b039091166000908152600960205260409020805460ff191690558055565b6000546001600160a01b03163314611d5e5760405162461bcd60e51b81526004016106a190612f02565b600260015403611d805760405162461bcd60e51b81526004016106a190612f86565b600260019081556001600160a01b039091166000908152600860205260409020805460ff1916821790558055565b6000546001600160a01b03163314611dd85760405162461bcd60e51b81526004016106a190612f02565b6001600160a01b038116611e3d5760405162461bcd60e51b815260206004820152602660248201527f4f776e61626c653a206e6577206f776e657220697320746865207a65726f206160448201526564647265737360d01b60648201526084016106a1565b611e468161224d565b50565b6040516370a0823160e01b81526001600160a01b03838116600483015260009183918391908316906370a0823190602401602060405180830381865afa158015611e97573d6000803e3d6000fd5b505050506040513d601f19601f82011682018060405250810190611ebb9190613100565b9050611ed26001600160a01b03831687878a61229d565b6040516370a0823160e01b81526001600160a01b038681166004830152600091908416906370a0823190602401602060405180830381865afa158015611f1c573d6000803e3d6000fd5b505050506040513d601f19601f82011682018060405250810190611f409190613100565b9050611f4c8282613119565b98975050505050505050565b6001600160a01b038416600090815260096020526040812054819060ff1615611fad577f000000000000000000000000000000000000000000000000000000000000000015611fad57611fad868487876122d5565b611fb885888861242f565b909890975095505050505050565b80611fdb6001600160a01b03821684866121ea565b50505050565b60007f00000000000000000000000000000000000000000000000000000000000000001561201657612011612578565b905090565b5060055490565b6000600454600354836120309190612f4d565b61203a9190612f64565b92915050565b6000826001600160a01b03168260405160006040518083038185875af1925050503d806000811461208d576040519150601f19603f3d011682016040523d82523d6000602084013e612092565b606091505b50509050806120b457604051633e1ee4eb60e11b815260040160405180910390fd5b505050565b6040516323b872dd60e01b81526001600160a01b0384811660048301528381166024830152604482018690528291908216906323b872dd90606401600060405180830381600087803b15801561210e57600080fd5b505af1158015612122573d6000803e3d6000fd5b505050505050505050565b604051637921219560e11b81526001600160a01b0384811660048301528381166024830152604482018790526064820186905260a06084830152600060a483015282919082169063f242432a9060c401600060405180830381600087803b15801561219757600080fd5b505af11580156121ab573d6000803e3d6000fd5b50505050505050505050565b60006003546004546121c99190613031565b6004546121d69084612f4d565b6121e09190612f64565b61203a9083613119565b6040516001600160a01b0383166024820152604481018290526120b490849063a9059cbb60e01b906064015b60408051601f198184030181529190526020810180516001600160e01b03166001600160e01b03199093169290921790915261259c565b600080546001600160a01b038381166001600160a01b0319831681178455604051919092169283917f8be0079c531659141344cd1fd0a4f28419497f9722a3daafe3b4186f6b6457e09190a35050565b6040516001600160a01b0380851660248301528316604482015260648101829052611fdb9085906323b872dd60e01b90608401612216565b7f00000000000000000000000000000000000000000000000000000000000000006001600160a01b031663f17325e760405180604001604052807f000000000000000000000000000000000000000000000000000000000000000081526020016040518060c00160405280336001600160a01b03168152602001600067ffffffffffffffff1681526020016000151581526020016000801b8152602001898989896040516020016123ad94939291906001600160a01b0394851681529290931660208301526040820152606081019190915260800190565b604051602081830303815290604052815260200160008152508152506040518263ffffffff1660e01b81526004016123e5919061312c565b6020604051808303816000875af1158015612404573d6000803e3d6000fd5b505050506040513d601f19601f820116820180604052508101906124289190613100565b5050505050565b600080600061243c611fe1565b9050600061244b878787611af6565b905060006007600088600481111561246557612465612cd2565b600481111561247657612476612cd2565b815260208101919091526040016000205460ff16600281111561249b5761249b612cd2565b141580156124c9575060646124b1600582613119565b6124bb9084612f4d565b6124c59190612f64565b8710155b80156124d55750818711155b156124e2578693506124e6565b8093505b838710156125065760405162b9d9cb60e11b815260040160405180910390fd5b60006007600088600481111561251e5761251e612cd2565b600481111561252f5761252f612cd2565b815260208101919091526040016000205460ff16600281111561255457612554612cd2565b0361256a576125638488613119565b925061256e565b8692505b5050935093915050565b600060065460055461258861266e565b6125929190612f4d565b6120119190612f64565b60006125f1826040518060400160405280602081526020017f5361666545524332303a206c6f772d6c6576656c2063616c6c206661696c6564815250856001600160a01b03166129369092919063ffffffff16565b8051909150156120b4578080602001905181019061260f91906131af565b6120b45760405162461bcd60e51b815260206004820152602a60248201527f5361666545524332303a204552433230206f7065726174696f6e20646964206e6044820152691bdd081cdd58d8d9595960b21b60648201526084016106a1565b600b54600c5460009190829061268590600a6132b5565b90507f00000000000000000000000000000000000000000000000000000000000000006001600160a01b031663feaf968c6040518163ffffffff1660e01b815260040160a060405180830381865afa925050508015612701575060408051601f3d908101601f191682019092526126fe918101906132db565b60015b156129165760008413801561271557508115155b801561272c5750600a546127298342613119565b11155b1561291057600d5460ff161561287d577f00000000000000000000000000000000000000000000000000000000000000006001600160a01b031663feaf968c6040518163ffffffff1660e01b815260040160a060405180830381865afa9250505080156127b6575060408051601f3d908101601f191682019092526127b3918101906132db565b60015b1561291057831560006127c98542613119565b90508180156127d95750600a5481115b15612871578a9d507f00000000000000000000000000000000000000000000000000000000000000006001600160a01b031663313ce5676040518163ffffffff1660e01b8152600401602060405180830381865afa15801561283f573d6000803e3d6000fd5b505050506040513d601f19601f82011682018060405250810190612863919061332b565b61286e90600a61334e565b9c505b50505050505050612910565b8396507f00000000000000000000000000000000000000000000000000000000000000006001600160a01b031663313ce5676040518163ffffffff1660e01b8152600401602060405180830381865afa1580156128de573d6000803e3d6000fd5b505050506040513d601f19601f82011682018060405250810190612902919061332b565b61290d90600a61334e565b95505b50505050505b81816002546129259190612f4d565b61292f9190612f64565b9250505090565b6060612945848460008561294d565b949350505050565b6060824710156129ae5760405162461bcd60e51b815260206004820152602660248201527f416464726573733a20696e73756666696369656e742062616c616e636520666f6044820152651c8818d85b1b60d21b60648201526084016106a1565b843b6129fc5760405162461bcd60e51b815260206004820152601d60248201527f416464726573733a2063616c6c20746f206e6f6e2d636f6e747261637400000060448201526064016106a1565b600080866001600160a01b03168587604051612a18919061335d565b60006040518083038185875af1925050503d8060008114612a55576040519150601f19603f3d011682016040523d82523d6000602084013e612a5a565b606091505b5091509150612a6a828286612a75565b979650505050505050565b60608315612a845750816109aa565b825115612a945782518084602001fd5b8160405162461bcd60e51b81526004016106a1919061336f565b60008060408385031215612ac157600080fd5b50508035926020909101359150565b80356001600160a01b0381168114612ae757600080fd5b919050565b634e487b7160e01b600052604160045260246000fd5b600082601f830112612b1357600080fd5b813567ffffffffffffffff80821115612b2e57612b2e612aec565b604051601f8301601f19908116603f01168101908282118183101715612b5657612b56612aec565b81604052838152866020858801011115612b6f57600080fd5b836020870160208301376000602085830101528094505050505092915050565b60008060008060808587031215612ba557600080fd5b612bae85612ad0565b935060208501359250612bc360408601612ad0565b9150606085013567ffffffffffffffff811115612bdf57600080fd5b612beb87828801612b02565b91505092959194509250565b600060208284031215612c0957600080fd5b6109aa82612ad0565b803560058110612ae757600080fd5b600080600060608486031215612c3657600080fd5b83359250612c4660208501612c12565b9150612c5460408501612ad0565b90509250925092565b60008060208385031215612c7057600080fd5b823567ffffffffffffffff80821115612c8857600080fd5b818501915085601f830112612c9c57600080fd5b813581811115612cab57600080fd5b8660208260051b8501011115612cc057600080fd5b60209290920196919550909350505050565b634e487b7160e01b600052602160045260246000fd5b60058110612cf857612cf8612cd2565b9052565b60005b83811015612d17578181015183820152602001612cff565b50506000910152565b60008151808452612d38816020860160208601612cfc565b601f01601f19169290920160200192915050565b60006020808301818452808551808352604092508286019150828160051b87010184880160005b83811015612dff57603f19898403018552815160e0612d93858351612ce8565b818901516001600160a01b03908116868b01528883015189870152606080840151908701526080808401519091169086015260a080830151868201839052612ddd83880182612d20565b60c0948501519790940196909652505094870194925090860190600101612d73565b509098975050505050505050565b60008060408385031215612e2057600080fd5b612e2983612ad0565b9150602083013567ffffffffffffffff811115612e4557600080fd5b612e5185828601612b02565b9150509250929050565b600080600080600060a08688031215612e7357600080fd5b612e7c86612ad0565b94506020860135935060408601359250612e9860608701612ad0565b9150608086013567ffffffffffffffff811115612eb457600080fd5b612ec088828901612b02565b9150509295509295909350565b600060208284031215612edf57600080fd5b6109aa82612c12565b6020810160038310612efc57612efc612cd2565b91905290565b6020808252818101527f4f776e61626c653a2063616c6c6572206973206e6f7420746865206f776e6572604082015260600190565b634e487b7160e01b600052601160045260246000fd5b808202811582820484141761203a5761203a612f37565b600082612f8157634e487b7160e01b600052601260045260246000fd5b500490565b6020808252601f908201527f5265656e7472616e637947756172643a207265656e7472616e742063616c6c00604082015260600190565b60a081526000612fd060a0830188612d20565b9050612fdf6020830187612ce8565b8460408301528360608301528260808301529695505050505050565b634e487b7160e01b600052603260045260246000fd5b6000823560be1983360301811261302757600080fd5b9190910192915050565b8082018082111561203a5761203a612f37565b6000808335601e1984360301811261305b57600080fd5b83018035915067ffffffffffffffff82111561307657600080fd5b60200191503681900382131561308b57600080fd5b9250929050565b60a081528560a0820152858760c0830137600060c08783010152600060c0601f19601f89011683010190506130ca6020830187612ce8565b846040830152836060830152826080830152979650505050505050565b6000600182016130f9576130f9612f37565b5060010190565b60006020828403121561311257600080fd5b5051919050565b8181038181111561203a5761203a612f37565b60208152815160208201526000602083015160408084015260018060a01b03815116606084015267ffffffffffffffff60208201511660808401526040810151151560a0840152606081015160c0840152608081015160c060e0850152613197610120850182612d20565b905060a0820151610100850152809250505092915050565b6000602082840312156131c157600080fd5b815180151581146109aa57600080fd5b600181815b8085111561320c5781600019048211156131f2576131f2612f37565b808516156131ff57918102915b93841c93908002906131d6565b509250929050565b6000826132235750600161203a565b816132305750600061203a565b816001811461324657600281146132505761326c565b600191505061203a565b60ff84111561326157613261612f37565b50506001821b61203a565b5060208310610133831016604e8410600b841016171561328f575081810a61203a565b61329983836131d1565b80600019048211156132ad576132ad612f37565b029392505050565b60006109aa8383613214565b805169ffffffffffffffffffff81168114612ae757600080fd5b600080600080600060a086880312156132f357600080fd5b6132fc866132c1565b945060208601519350604086015192506060860151915061331f608087016132c1565b90509295509295909350565b60006020828403121561333d57600080fd5b815160ff811681146109aa57600080fd5b60006109aa60ff841683613214565b60008251613027818460208701612cfc565b6020815260006109aa6020830184612d2056feccdbce48c0b5e947c2b42fbdf40cfe40fb9d6b6c9bb1879d7c032d9b9c9e5e30a2646970667358221220b80d788c19f6ca1d1e9772abb29ad2d3f6fd00dfab785a492f081b0d0aa4a52564736f6c63430008130033","opcodes":"PUSH2 0x140 PUSH1 0x40 MSTORE PUSH8 0xDE0B6B3A7640000 PUSH1 0x2 SSTORE PUSH1 0xA PUSH1 0x3 SSTORE PUSH2 0x3E8 PUSH1 0x4 SSTORE PUSH1 0x1 PUSH1 0x5 SSTORE PUSH1 0x1 PUSH1 0x6 SSTORE CALLVALUE DUP1 ISZERO PUSH3 0x33 JUMPI PUSH1 0x0 DUP1 REVERT JUMPDEST POP PUSH1 0x40 MLOAD PUSH3 0x3758 CODESIZE SUB DUP1 PUSH3 0x3758 DUP4 CODECOPY DUP2 ADD PUSH1 0x40 DUP2 SWAP1 MSTORE PUSH3 0x56 SWAP2 PUSH3 0x284 JUMP JUMPDEST DUP7 DUP7 DUP7 DUP7 DUP7 DUP7 DUP7 PUSH3 0x68 CALLER PUSH3 0x206 JUMP JUMPDEST PUSH1 0x1 DUP1 SSTORE PUSH1 0x1 PUSH1 0x1 PUSH1 0xA0 SHL SUB DUP3 AND PUSH3 0x94 JUMPI PUSH1 0x40 MLOAD PUSH4 0x41BC07FF PUSH1 0xE1 SHL DUP2 MSTORE PUSH1 0x4 ADD PUSH1 0x40 MLOAD DUP1 SWAP2 SUB SWAP1 REVERT JUMPDEST PUSH1 0x1 PUSH1 0x1 PUSH1 0xA0 SHL SUB SWAP2 DUP3 AND PUSH1 0x80 MSTORE PUSH1 0xA0 MSTORE DUP6 AND PUSH3 0xC5 JUMPI PUSH1 0x40 MLOAD PUSH4 0xFB7566D7 PUSH1 0xE0 SHL DUP2 MSTORE PUSH1 0x4 ADD PUSH1 0x40 MLOAD DUP1 SWAP2 SUB SWAP1 REVERT JUMPDEST PUSH1 0x1 PUSH1 0x1 PUSH1 0xA0 SHL SUB SWAP5 DUP6 AND PUSH1 0xC0 MSTORE SWAP3 SWAP1 SWAP4 AND PUSH1 0xE0 DUP2 SWAP1 MSTORE PUSH1 0xD DUP1 SLOAD SWAP2 ISZERO ISZERO PUSH1 0xFF NOT SWAP3 DUP4 AND OR SWAP1 SSTORE PUSH1 0xA SWAP2 SWAP1 SWAP2 SSTORE PUSH1 0xB SWAP3 SWAP1 SWAP3 SSTORE PUSH1 0xC SSTORE CALLER PUSH1 0x0 SWAP1 DUP2 MSTORE PUSH1 0xE PUSH1 0x20 SWAP1 DUP2 MSTORE PUSH1 0x40 DUP3 KECCAK256 DUP1 SLOAD DUP5 AND PUSH1 0x1 OR SWAP1 SSTORE PUSH1 0x7 SWAP1 MSTORE PUSH32 0x6D5257204EBE7D88FD91AE87941CB2DD9D8062B64AE5A2BD2D28EC40B9FBF6DF DUP1 SLOAD DUP4 AND SWAP1 SSTORE PUSH32 0xB39221ACE053465EC3453CE2B36430BD138B997ECEA25C1043DA0C366812B828 DUP1 SLOAD DUP4 AND PUSH1 0x2 SWAP1 DUP2 OR SWAP1 SWAP2 SSTORE PUSH32 0xB7C774451310D1BE4108BC180D1B52823CB0EE0274A6C0081BCAF94F115FB96D DUP1 SLOAD DUP5 AND DUP3 OR SWAP1 SSTORE PUSH32 0x3BE6FD20D5ACFDE5B873B48692CD31F4D3C7E8EE8A813AF4696AF8859E5CA6C6 DUP1 SLOAD DUP5 AND SWAP1 SWAP2 OR SWAP1 SSTORE PUSH1 0x4 SWAP1 MSTORE PUSH32 0xB805995A7EC585A251200611A61D179CFD7FB105E1AB17DC415A7336783786F7 DUP1 SLOAD SWAP1 SWAP2 AND SWAP1 SSTORE POP POP POP POP SWAP4 ISZERO ISZERO PUSH2 0x100 MSTORE POP POP ISZERO ISZERO PUSH2 0x120 MSTORE POP PUSH3 0x31B JUMP JUMPDEST PUSH1 0x0 DUP1 SLOAD PUSH1 0x1 PUSH1 0x1 PUSH1 0xA0 SHL SUB DUP4 DUP2 AND PUSH1 0x1 PUSH1 0x1 PUSH1 0xA0 SHL SUB NOT DUP4 AND DUP2 OR DUP5 SSTORE PUSH1 0x40 MLOAD SWAP2 SWAP1 SWAP3 AND SWAP3 DUP4 SWAP2 PUSH32 0x8BE0079C531659141344CD1FD0A4F28419497F9722A3DAAFE3B4186F6B6457E0 SWAP2 SWAP1 LOG3 POP POP JUMP JUMPDEST DUP1 MLOAD DUP1 ISZERO ISZERO DUP2 EQ PUSH3 0x267 JUMPI PUSH1 0x0 DUP1 REVERT JUMPDEST SWAP2 SWAP1 POP JUMP JUMPDEST DUP1 MLOAD PUSH1 0x1 PUSH1 0x1 PUSH1 0xA0 SHL SUB DUP2 AND DUP2 EQ PUSH3 0x267 JUMPI PUSH1 0x0 DUP1 REVERT JUMPDEST PUSH1 0x0 DUP1 PUSH1 0x0 DUP1 PUSH1 0x0 DUP1 PUSH1 0x0 DUP1 PUSH1 0x0 PUSH2 0x120 DUP11 DUP13 SUB SLT ISZERO PUSH3 0x2A4 JUMPI PUSH1 0x0 DUP1 REVERT JUMPDEST PUSH3 0x2AF DUP11 PUSH3 0x256 JUMP JUMPDEST SWAP9 POP PUSH3 0x2BF PUSH1 0x20 DUP12 ADD PUSH3 0x256 JUMP JUMPDEST SWAP8 POP PUSH3 0x2CF PUSH1 0x40 DUP12 ADD PUSH3 0x26C JUMP JUMPDEST SWAP7 POP PUSH3 0x2DF PUSH1 0x60 DUP12 ADD PUSH3 0x26C JUMP JUMPDEST SWAP6 POP PUSH1 0x80 DUP11 ADD MLOAD SWAP5 POP PUSH1 0xA0 DUP11 ADD MLOAD SWAP4 POP PUSH1 0xC0 DUP11 ADD MLOAD SWAP3 POP PUSH3 0x304 PUSH1 0xE0 DUP12 ADD PUSH3 0x26C JUMP JUMPDEST SWAP2 POP PUSH2 0x100 DUP11 ADD MLOAD SWAP1 POP SWAP3 SWAP6 SWAP9 POP SWAP3 SWAP6 SWAP9 POP SWAP3 SWAP6 SWAP9 JUMP JUMPDEST PUSH1 0x80 MLOAD PUSH1 0xA0 MLOAD PUSH1 0xC0 MLOAD PUSH1 0xE0 MLOAD PUSH2 0x100 MLOAD PUSH2 0x120 MLOAD PUSH2 0x33D8 PUSH3 0x380 PUSH1 0x0 CODECOPY PUSH1 0x0 PUSH2 0x1F7D ADD MSTORE PUSH1 0x0 PUSH2 0x1FE5 ADD MSTORE PUSH1 0x0 PUSH2 0x273E ADD MSTORE PUSH1 0x0 DUP2 DUP2 PUSH2 0x2689 ADD MSTORE DUP2 DUP2 PUSH2 0x27E3 ADD MSTORE PUSH2 0x2882 ADD MSTORE PUSH1 0x0 DUP2 DUP2 PUSH2 0x29A ADD MSTORE PUSH2 0x2311 ADD MSTORE PUSH1 0x0 PUSH2 0x22D7 ADD MSTORE PUSH2 0x33D8 PUSH1 0x0 RETURN INVALID PUSH1 0x80 PUSH1 0x40 MSTORE PUSH1 0x4 CALLDATASIZE LT PUSH2 0x20F JUMPI PUSH1 0x0 CALLDATALOAD PUSH1 0xE0 SHR DUP1 PUSH4 0x715018A6 GT PUSH2 0x118 JUMPI DUP1 PUSH4 0x9332C37B GT PUSH2 0xA0 JUMPI DUP1 PUSH4 0xDC8DAF93 GT PUSH2 0x6F JUMPI DUP1 PUSH4 0xDC8DAF93 EQ PUSH2 0x5FB JUMPI DUP1 PUSH4 0xE3ED7809 EQ PUSH2 0x615 JUMPI DUP1 PUSH4 0xE4BBDC73 EQ PUSH2 0x62B JUMPI DUP1 PUSH4 0xF2339FE8 EQ PUSH2 0x641 JUMPI DUP1 PUSH4 0xF2FDE38B EQ PUSH2 0x657 JUMPI PUSH1 0x0 DUP1 REVERT JUMPDEST DUP1 PUSH4 0x9332C37B EQ PUSH2 0x54E JUMPI DUP1 PUSH4 0xB20D0BFF EQ PUSH2 0x57E JUMPI DUP1 PUSH4 0xC550403F EQ PUSH2 0x59E JUMPI DUP1 PUSH4 0xD73ACEE5 EQ PUSH2 0x5DB JUMPI PUSH1 0x0 DUP1 REVERT JUMPDEST DUP1 PUSH4 0x834907B2 GT PUSH2 0xE7 JUMPI DUP1 PUSH4 0x834907B2 EQ PUSH2 0x4BE JUMPI DUP1 PUSH4 0x83A4C7E1 EQ PUSH2 0x4DE JUMPI DUP1 PUSH4 0x89476069 EQ PUSH2 0x4F3 JUMPI DUP1 PUSH4 0x8D157DB8 EQ PUSH2 0x513 JUMPI DUP1 PUSH4 0x8DA5CB5B EQ PUSH2 0x526 JUMPI PUSH1 0x0 DUP1 REVERT JUMPDEST DUP1 PUSH4 0x715018A6 EQ PUSH2 0x439 JUMPI DUP1 PUSH4 0x80FA375F EQ PUSH2 0x44E JUMPI DUP1 PUSH4 0x81967267 EQ PUSH2 0x46E JUMPI DUP1 PUSH4 0x82313032 EQ PUSH2 0x48E JUMPI PUSH1 0x0 DUP1 REVERT JUMPDEST DUP1 PUSH4 0x429B62E5 GT PUSH2 0x19B JUMPI DUP1 PUSH4 0x5C73F163 GT PUSH2 0x16A JUMPI DUP1 PUSH4 0x5C73F163 EQ PUSH2 0x3BA JUMPI DUP1 PUSH4 0x5CFDB086 EQ PUSH2 0x3D0 JUMPI DUP1 PUSH4 0x6EBE413E EQ PUSH2 0x3F0 JUMPI DUP1 PUSH4 0x70480275 EQ PUSH2 0x406 JUMPI DUP1 PUSH4 0x7129607A EQ PUSH2 0x426 JUMPI PUSH1 0x0 DUP1 REVERT JUMPDEST DUP1 PUSH4 0x429B62E5 EQ PUSH2 0x327 JUMPI DUP1 PUSH4 0x44A8B1C6 EQ PUSH2 0x367 JUMPI DUP1 PUSH4 0x464108CD EQ PUSH2 0x37A JUMPI DUP1 PUSH4 0x5A7754D3 EQ PUSH2 0x3A7 JUMPI PUSH1 0x0 DUP1 REVERT JUMPDEST DUP1 PUSH4 0x25705F8B GT PUSH2 0x1E2 JUMPI DUP1 PUSH4 0x25705F8B EQ PUSH2 0x288 JUMPI DUP1 PUSH4 0x27CB0BA1 EQ PUSH2 0x2BC JUMPI DUP1 PUSH4 0x27E1F7DF EQ PUSH2 0x2D2 JUMPI DUP1 PUSH4 0x39C1C403 EQ PUSH2 0x2F2 JUMPI DUP1 PUSH4 0x3CCFD60B EQ PUSH2 0x312 JUMPI PUSH1 0x0 DUP1 REVERT JUMPDEST DUP1 PUSH4 0x3F613DC EQ PUSH2 0x214 JUMPI DUP1 PUSH4 0x728C7D2 EQ PUSH2 0x23D JUMPI DUP1 PUSH4 0xF7F630A EQ PUSH2 0x25F JUMPI DUP1 PUSH4 0x15C6D01E EQ PUSH2 0x275 JUMPI JUMPDEST PUSH1 0x0 DUP1 REVERT JUMPDEST CALLVALUE DUP1 ISZERO PUSH2 0x220 JUMPI PUSH1 0x0 DUP1 REVERT JUMPDEST POP PUSH2 0x22A PUSH1 0x4 SLOAD DUP2 JUMP JUMPDEST PUSH1 0x40 MLOAD SWAP1 DUP2 MSTORE PUSH1 0x20 ADD JUMPDEST PUSH1 0x40 MLOAD DUP1 SWAP2 SUB SWAP1 RETURN JUMPDEST CALLVALUE DUP1 ISZERO PUSH2 0x249 JUMPI PUSH1 0x0 DUP1 REVERT JUMPDEST POP PUSH2 0x25D PUSH2 0x258 CALLDATASIZE PUSH1 0x4 PUSH2 0x2AAE JUMP JUMPDEST PUSH2 0x677 JUMP JUMPDEST STOP JUMPDEST CALLVALUE DUP1 ISZERO PUSH2 0x26B JUMPI PUSH1 0x0 DUP1 REVERT JUMPDEST POP PUSH2 0x22A PUSH1 0x5 SLOAD DUP2 JUMP JUMPDEST PUSH2 0x25D PUSH2 0x283 CALLDATASIZE PUSH1 0x4 PUSH2 0x2B8F JUMP JUMPDEST PUSH2 0x72C JUMP JUMPDEST CALLVALUE DUP1 ISZERO PUSH2 0x294 JUMPI PUSH1 0x0 DUP1 REVERT JUMPDEST POP PUSH2 0x22A PUSH32 0x0 DUP2 JUMP JUMPDEST CALLVALUE DUP1 ISZERO PUSH2 0x2C8 JUMPI PUSH1 0x0 DUP1 REVERT JUMPDEST POP PUSH2 0x22A PUSH1 0x6 SLOAD DUP2 JUMP JUMPDEST CALLVALUE DUP1 ISZERO PUSH2 0x2DE JUMPI PUSH1 0x0 DUP1 REVERT JUMPDEST POP PUSH2 0x25D PUSH2 0x2ED CALLDATASIZE PUSH1 0x4 PUSH2 0x2BF7 JUMP JUMPDEST PUSH2 0x852 JUMP JUMPDEST CALLVALUE DUP1 ISZERO PUSH2 0x2FE JUMPI PUSH1 0x0 DUP1 REVERT JUMPDEST POP PUSH2 0x22A PUSH2 0x30D CALLDATASIZE PUSH1 0x4 PUSH2 0x2C21 JUMP JUMPDEST PUSH2 0x8CA JUMP JUMPDEST CALLVALUE DUP1 ISZERO PUSH2 0x31E JUMPI PUSH1 0x0 DUP1 REVERT JUMPDEST POP PUSH2 0x25D PUSH2 0x9B1 JUMP JUMPDEST CALLVALUE DUP1 ISZERO PUSH2 0x333 JUMPI PUSH1 0x0 DUP1 REVERT JUMPDEST POP PUSH2 0x357 PUSH2 0x342 CALLDATASIZE PUSH1 0x4 PUSH2 0x2BF7 JUMP JUMPDEST PUSH1 0xE PUSH1 0x20 MSTORE PUSH1 0x0 SWAP1 DUP2 MSTORE PUSH1 0x40 SWAP1 KECCAK256 SLOAD PUSH1 0xFF AND DUP2 JUMP JUMPDEST PUSH1 0x40 MLOAD SWAP1 ISZERO ISZERO DUP2 MSTORE PUSH1 0x20 ADD PUSH2 0x234 JUMP JUMPDEST PUSH2 0x25D PUSH2 0x375 CALLDATASIZE PUSH1 0x4 PUSH2 0x2C5D JUMP JUMPDEST PUSH2 0xA7D JUMP JUMPDEST CALLVALUE DUP1 ISZERO PUSH2 0x386 JUMPI PUSH1 0x0 DUP1 REVERT JUMPDEST POP PUSH2 0x39A PUSH2 0x395 CALLDATASIZE PUSH1 0x4 PUSH2 0x2C5D JUMP JUMPDEST PUSH2 0x1233 JUMP JUMPDEST PUSH1 0x40 MLOAD PUSH2 0x234 SWAP2 SWAP1 PUSH2 0x2D4C JUMP JUMPDEST PUSH2 0x25D PUSH2 0x3B5 CALLDATASIZE PUSH1 0x4 PUSH2 0x2E0D JUMP JUMPDEST PUSH2 0x175D JUMP JUMPDEST CALLVALUE DUP1 ISZERO PUSH2 0x3C6 JUMPI PUSH1 0x0 DUP1 REVERT JUMPDEST POP PUSH2 0x22A PUSH1 0x3 SLOAD DUP2 JUMP JUMPDEST CALLVALUE DUP1 ISZERO PUSH2 0x3DC JUMPI PUSH1 0x0 DUP1 REVERT JUMPDEST POP PUSH2 0x25D PUSH2 0x3EB CALLDATASIZE PUSH1 0x4 PUSH2 0x2BF7 JUMP JUMPDEST PUSH2 0x17F9 JUMP JUMPDEST CALLVALUE DUP1 ISZERO PUSH2 0x3FC JUMPI PUSH1 0x0 DUP1 REVERT JUMPDEST POP PUSH2 0x22A PUSH1 0xB SLOAD DUP2 JUMP JUMPDEST CALLVALUE DUP1 ISZERO PUSH2 0x412 JUMPI PUSH1 0x0 DUP1 REVERT JUMPDEST POP PUSH2 0x25D PUSH2 0x421 CALLDATASIZE PUSH1 0x4 PUSH2 0x2BF7 JUMP JUMPDEST PUSH2 0x1873 JUMP JUMPDEST PUSH2 0x25D PUSH2 0x434 CALLDATASIZE PUSH1 0x4 PUSH2 0x2E5B JUMP JUMPDEST PUSH2 0x18ED JUMP JUMPDEST CALLVALUE DUP1 ISZERO PUSH2 0x445 JUMPI PUSH1 0x0 DUP1 REVERT JUMPDEST POP PUSH2 0x25D PUSH2 0x198C JUMP JUMPDEST CALLVALUE DUP1 ISZERO PUSH2 0x45A JUMPI PUSH1 0x0 DUP1 REVERT JUMPDEST POP PUSH2 0x25D PUSH2 0x469 CALLDATASIZE PUSH1 0x4 PUSH2 0x2AAE JUMP JUMPDEST PUSH2 0x19CF JUMP JUMPDEST CALLVALUE DUP1 ISZERO PUSH2 0x47A JUMPI PUSH1 0x0 DUP1 REVERT JUMPDEST POP PUSH2 0x25D PUSH2 0x489 CALLDATASIZE PUSH1 0x4 PUSH2 0x2BF7 JUMP JUMPDEST PUSH2 0x1A7E JUMP JUMPDEST CALLVALUE DUP1 ISZERO PUSH2 0x49A JUMPI PUSH1 0x0 DUP1 REVERT JUMPDEST POP PUSH2 0x357 PUSH2 0x4A9 CALLDATASIZE PUSH1 0x4 PUSH2 0x2BF7 JUMP JUMPDEST PUSH1 0x9 PUSH1 0x20 MSTORE PUSH1 0x0 SWAP1 DUP2 MSTORE PUSH1 0x40 SWAP1 KECCAK256 SLOAD PUSH1 0xFF AND DUP2 JUMP JUMPDEST CALLVALUE DUP1 ISZERO PUSH2 0x4CA JUMPI PUSH1 0x0 DUP1 REVERT JUMPDEST POP PUSH2 0x22A PUSH2 0x4D9 CALLDATASIZE PUSH1 0x4 PUSH2 0x2C21 JUMP JUMPDEST PUSH2 0x1AF6 JUMP JUMPDEST CALLVALUE DUP1 ISZERO PUSH2 0x4EA JUMPI PUSH1 0x0 DUP1 REVERT JUMPDEST POP PUSH2 0x22A PUSH1 0x5 DUP2 JUMP JUMPDEST CALLVALUE DUP1 ISZERO PUSH2 0x4FF JUMPI PUSH1 0x0 DUP1 REVERT JUMPDEST POP PUSH2 0x25D PUSH2 0x50E CALLDATASIZE PUSH1 0x4 PUSH2 0x2BF7 JUMP JUMPDEST PUSH2 0x1B36 JUMP JUMPDEST PUSH2 0x25D PUSH2 0x521 CALLDATASIZE PUSH1 0x4 PUSH2 0x2B8F JUMP JUMPDEST PUSH2 0x1C1B JUMP JUMPDEST CALLVALUE DUP1 ISZERO PUSH2 0x532 JUMPI PUSH1 0x0 DUP1 REVERT JUMPDEST POP PUSH1 0x0 SLOAD PUSH1 0x40 MLOAD PUSH1 0x1 PUSH1 0x1 PUSH1 0xA0 SHL SUB SWAP1 SWAP2 AND DUP2 MSTORE PUSH1 0x20 ADD PUSH2 0x234 JUMP JUMPDEST CALLVALUE DUP1 ISZERO PUSH2 0x55A JUMPI PUSH1 0x0 DUP1 REVERT JUMPDEST POP PUSH2 0x357 PUSH2 0x569 CALLDATASIZE PUSH1 0x4 PUSH2 0x2BF7 JUMP JUMPDEST PUSH1 0x8 PUSH1 0x20 MSTORE PUSH1 0x0 SWAP1 DUP2 MSTORE PUSH1 0x40 SWAP1 KECCAK256 SLOAD PUSH1 0xFF AND DUP2 JUMP JUMPDEST CALLVALUE DUP1 ISZERO PUSH2 0x58A JUMPI PUSH1 0x0 DUP1 REVERT JUMPDEST POP PUSH2 0x25D PUSH2 0x599 CALLDATASIZE PUSH1 0x4 PUSH2 0x2BF7 JUMP JUMPDEST PUSH2 0x1CBC JUMP JUMPDEST CALLVALUE DUP1 ISZERO PUSH2 0x5AA JUMPI PUSH1 0x0 DUP1 REVERT JUMPDEST POP PUSH2 0x5CE PUSH2 0x5B9 CALLDATASIZE PUSH1 0x4 PUSH2 0x2ECD JUMP JUMPDEST PUSH1 0x7 PUSH1 0x20 MSTORE PUSH1 0x0 SWAP1 DUP2 MSTORE PUSH1 0x40 SWAP1 KECCAK256 SLOAD PUSH1 0xFF AND DUP2 JUMP JUMPDEST PUSH1 0x40 MLOAD PUSH2 0x234 SWAP2 SWAP1 PUSH2 0x2EE8 JUMP JUMPDEST CALLVALUE DUP1 ISZERO PUSH2 0x5E7 JUMPI PUSH1 0x0 DUP1 REVERT JUMPDEST POP PUSH2 0x25D PUSH2 0x5F6 CALLDATASIZE PUSH1 0x4 PUSH2 0x2BF7 JUMP JUMPDEST PUSH2 0x1D34 JUMP JUMPDEST CALLVALUE DUP1 ISZERO PUSH2 0x607 JUMPI PUSH1 0x0 DUP1 REVERT JUMPDEST POP PUSH1 0xD SLOAD PUSH2 0x357 SWAP1 PUSH1 0xFF AND DUP2 JUMP JUMPDEST CALLVALUE DUP1 ISZERO PUSH2 0x621 JUMPI PUSH1 0x0 DUP1 REVERT JUMPDEST POP PUSH2 0x22A PUSH1 0xC SLOAD DUP2 JUMP JUMPDEST CALLVALUE DUP1 ISZERO PUSH2 0x637 JUMPI PUSH1 0x0 DUP1 REVERT JUMPDEST POP PUSH2 0x22A PUSH1 0xA SLOAD DUP2 JUMP JUMPDEST CALLVALUE DUP1 ISZERO PUSH2 0x64D JUMPI PUSH1 0x0 DUP1 REVERT JUMPDEST POP PUSH2 0x22A PUSH1 0x2 SLOAD DUP2 JUMP JUMPDEST CALLVALUE DUP1 ISZERO PUSH2 0x663 JUMPI PUSH1 0x0 DUP1 REVERT JUMPDEST POP PUSH2 0x25D PUSH2 0x672 CALLDATASIZE PUSH1 0x4 PUSH2 0x2BF7 JUMP JUMPDEST PUSH2 0x1DAE JUMP JUMPDEST PUSH1 0x0 SLOAD PUSH1 0x1 PUSH1 0x1 PUSH1 0xA0 SHL SUB AND CALLER EQ PUSH2 0x6AA JUMPI PUSH1 0x40 MLOAD PUSH3 0x461BCD PUSH1 0xE5 SHL DUP2 MSTORE PUSH1 0x4 ADD PUSH2 0x6A1 SWAP1 PUSH2 0x2F02 JUMP JUMPDEST PUSH1 0x40 MLOAD DUP1 SWAP2 SUB SWAP1 REVERT JUMPDEST PUSH1 0x0 DUP3 GT PUSH2 0x6CB JUMPI PUSH1 0x40 MLOAD PUSH4 0x1EBF5CD9 PUSH1 0xE2 SHL DUP2 MSTORE PUSH1 0x4 ADD PUSH1 0x40 MLOAD DUP1 SWAP2 SUB SWAP1 REVERT JUMPDEST PUSH1 0x0 DUP2 GT PUSH2 0x6EC JUMPI PUSH1 0x40 MLOAD PUSH4 0x4B0BE531 PUSH1 0xE1 SHL DUP2 MSTORE PUSH1 0x4 ADD PUSH1 0x40 MLOAD DUP1 SWAP2 SUB SWAP1 REVERT JUMPDEST PUSH1 0x5 DUP2 PUSH2 0x6FA DUP5 PUSH1 0x64 PUSH2 0x2F4D JUMP JUMPDEST PUSH2 0x704 SWAP2 SWAP1 PUSH2 0x2F64 JUMP JUMPDEST LT PUSH2 0x721 JUMPI PUSH1 0x40 MLOAD PUSH3 0x3FF07B PUSH1 0xE3 SHL DUP2 MSTORE PUSH1 0x4 ADD PUSH1 0x40 MLOAD DUP1 SWAP2 SUB SWAP1 REVERT JUMPDEST PUSH1 0x3 SWAP2 SWAP1 SWAP2 SSTORE PUSH1 0x4 SSTORE JUMP JUMPDEST PUSH1 0x2 PUSH1 0x1 SLOAD SUB PUSH2 0x74E JUMPI PUSH1 0x40 MLOAD PUSH3 0x461BCD PUSH1 0xE5 SHL DUP2 MSTORE PUSH1 0x4 ADD PUSH2 0x6A1 SWAP1 PUSH2 0x2F86 JUMP JUMPDEST PUSH1 0x2 PUSH1 0x1 SSTORE PUSH1 0x0 DUP1 PUSH2 0x762 DUP6 CALLER ADDRESS DUP8 PUSH2 0x1E49 JUMP JUMPDEST PUSH1 0x1 PUSH1 0x1 PUSH1 0xA0 SHL SUB DUP6 AND PUSH1 0x0 SWAP1 DUP2 MSTORE PUSH1 0x8 PUSH1 0x20 MSTORE PUSH1 0x40 SWAP1 KECCAK256 SLOAD SWAP1 SWAP2 POP CALLVALUE SWAP1 PUSH1 0x1 SWAP1 PUSH1 0xFF AND ISZERO PUSH2 0x7B0 JUMPI POP DUP2 SWAP1 POP PUSH1 0x4 CALLVALUE ISZERO PUSH2 0x7B0 JUMPI PUSH1 0x40 MLOAD PUSH4 0x3AAE6171 PUSH1 0xE2 SHL DUP2 MSTORE PUSH1 0x4 ADD PUSH1 0x40 MLOAD DUP1 SWAP2 SUB SWAP1 REVERT JUMPDEST PUSH1 0x0 DUP1 PUSH2 0x7C1 DUP4 DUP12 DUP7 PUSH1 0x0 DUP13 PUSH2 0x1F58 JUMP JUMPDEST SWAP1 SWAP3 POP SWAP1 POP PUSH1 0x4 DUP4 PUSH1 0x4 DUP2 GT ISZERO PUSH2 0x7DA JUMPI PUSH2 0x7DA PUSH2 0x2CD2 JUMP JUMPDEST SUB PUSH2 0x7E7 JUMPI DUP1 SWAP6 POP PUSH2 0x7EB JUMP JUMPDEST DUP5 SWAP6 POP JUMPDEST PUSH2 0x7F6 DUP7 DUP12 DUP11 PUSH2 0x1FC6 JUMP JUMPDEST DUP8 PUSH1 0x1 PUSH1 0x1 PUSH1 0xA0 SHL SUB AND CALLER PUSH1 0x1 PUSH1 0x1 PUSH1 0xA0 SHL SUB AND DUP12 PUSH1 0x1 PUSH1 0x1 PUSH1 0xA0 SHL SUB AND PUSH1 0x0 DUP1 MLOAD PUSH1 0x20 PUSH2 0x3383 DUP4 CODECOPY DUP2 MLOAD SWAP2 MSTORE DUP11 DUP8 PUSH1 0x0 DUP13 DUP10 PUSH1 0x40 MLOAD PUSH2 0x83A SWAP6 SWAP5 SWAP4 SWAP3 SWAP2 SWAP1 PUSH2 0x2FBD JUMP JUMPDEST PUSH1 0x40 MLOAD DUP1 SWAP2 SUB SWAP1 LOG4 POP POP PUSH1 0x1 DUP1 SSTORE POP POP POP POP POP POP POP POP JUMP JUMPDEST PUSH1 0x0 SLOAD PUSH1 0x1 PUSH1 0x1 PUSH1 0xA0 SHL SUB AND CALLER EQ PUSH2 0x87C JUMPI PUSH1 0x40 MLOAD PUSH3 0x461BCD PUSH1 0xE5 SHL DUP2 MSTORE PUSH1 0x4 ADD PUSH2 0x6A1 SWAP1 PUSH2 0x2F02 JUMP JUMPDEST PUSH1 0x2 PUSH1 0x1 SLOAD SUB PUSH2 0x89E JUMPI PUSH1 0x40 MLOAD PUSH3 0x461BCD PUSH1 0xE5 SHL DUP2 MSTORE PUSH1 0x4 ADD PUSH2 0x6A1 SWAP1 PUSH2 0x2F86 JUMP JUMPDEST PUSH1 0x2 PUSH1 0x1 SWAP1 DUP2 SSTORE PUSH1 0x1 PUSH1 0x1 PUSH1 0xA0 SHL SUB SWAP1 SWAP2 AND PUSH1 0x0 SWAP1 DUP2 MSTORE PUSH1 0xE PUSH1 0x20 MSTORE PUSH1 0x40 SWAP1 KECCAK256 DUP1 SLOAD PUSH1 0xFF NOT AND SWAP1 SSTORE DUP1 SSTORE JUMP JUMPDEST PUSH1 0x1 PUSH1 0x1 PUSH1 0xA0 SHL SUB DUP2 AND PUSH1 0x0 SWAP1 DUP2 MSTORE PUSH1 0x9 PUSH1 0x20 MSTORE PUSH1 0x40 DUP2 KECCAK256 SLOAD PUSH1 0xFF AND ISZERO PUSH2 0x8F3 JUMPI POP PUSH1 0x0 PUSH2 0x9AA JUMP JUMPDEST PUSH1 0x0 PUSH2 0x8FD PUSH2 0x1FE1 JUMP JUMPDEST SWAP1 POP PUSH1 0x0 PUSH2 0x90A DUP7 PUSH2 0x201D JUMP JUMPDEST SWAP1 POP PUSH1 0x0 PUSH1 0x7 PUSH1 0x0 DUP8 PUSH1 0x4 DUP2 GT ISZERO PUSH2 0x924 JUMPI PUSH2 0x924 PUSH2 0x2CD2 JUMP JUMPDEST PUSH1 0x4 DUP2 GT ISZERO PUSH2 0x935 JUMPI PUSH2 0x935 PUSH2 0x2CD2 JUMP JUMPDEST DUP2 MSTORE PUSH1 0x20 DUP2 ADD SWAP2 SWAP1 SWAP2 MSTORE PUSH1 0x40 ADD PUSH1 0x0 KECCAK256 SLOAD PUSH1 0xFF AND SWAP1 POP PUSH1 0x2 DUP2 PUSH1 0x2 DUP2 GT ISZERO PUSH2 0x95F JUMPI PUSH2 0x95F PUSH2 0x2CD2 JUMP JUMPDEST SUB PUSH2 0x96F JUMPI DUP3 SWAP4 POP POP POP POP PUSH2 0x9AA JUMP JUMPDEST PUSH1 0x0 DUP2 PUSH1 0x2 DUP2 GT ISZERO PUSH2 0x983 JUMPI PUSH2 0x983 PUSH2 0x2CD2 JUMP JUMPDEST SUB PUSH2 0x992 JUMPI POP SWAP2 POP PUSH2 0x9AA SWAP1 POP JUMP JUMPDEST DUP3 DUP3 GT ISZERO PUSH2 0x9A4 JUMPI POP SWAP2 POP PUSH2 0x9AA SWAP1 POP JUMP JUMPDEST POP SWAP1 SWAP2 POP POP JUMPDEST SWAP4 SWAP3 POP POP POP JUMP JUMPDEST CALLER PUSH1 0x0 SWAP1 DUP2 MSTORE PUSH1 0xE PUSH1 0x20 MSTORE PUSH1 0x40 SWAP1 KECCAK256 SLOAD PUSH1 0xFF AND ISZERO ISZERO PUSH1 0x1 EQ PUSH2 0x9E6 JUMPI PUSH1 0x40 MLOAD PUSH4 0x3D78CD9B PUSH1 0xE1 SHL DUP2 MSTORE PUSH1 0x4 ADD PUSH1 0x40 MLOAD DUP1 SWAP2 SUB SWAP1 REVERT JUMPDEST PUSH1 0x2 PUSH1 0x1 SLOAD SUB PUSH2 0xA08 JUMPI PUSH1 0x40 MLOAD PUSH3 0x461BCD PUSH1 0xE5 SHL DUP2 MSTORE PUSH1 0x4 ADD PUSH2 0x6A1 SWAP1 PUSH2 0x2F86 JUMP JUMPDEST PUSH1 0x2 PUSH1 0x1 SSTORE PUSH1 0x40 MLOAD PUSH1 0x0 SWAP1 CALLER SWAP1 SELFBALANCE SWAP1 DUP4 DUP2 DUP2 DUP2 DUP6 DUP8 GAS CALL SWAP3 POP POP POP RETURNDATASIZE DUP1 PUSH1 0x0 DUP2 EQ PUSH2 0xA4F JUMPI PUSH1 0x40 MLOAD SWAP2 POP PUSH1 0x1F NOT PUSH1 0x3F RETURNDATASIZE ADD AND DUP3 ADD PUSH1 0x40 MSTORE RETURNDATASIZE DUP3 MSTORE RETURNDATASIZE PUSH1 0x0 PUSH1 0x20 DUP5 ADD RETURNDATACOPY PUSH2 0xA54 JUMP JUMPDEST PUSH1 0x60 SWAP2 POP JUMPDEST POP POP SWAP1 POP DUP1 PUSH2 0xA76 JUMPI PUSH1 0x40 MLOAD PUSH4 0x1D42C867 PUSH1 0xE2 SHL DUP2 MSTORE PUSH1 0x4 ADD PUSH1 0x40 MLOAD DUP1 SWAP2 SUB SWAP1 REVERT JUMPDEST POP PUSH1 0x1 DUP1 SSTORE JUMP JUMPDEST PUSH1 0x2 PUSH1 0x1 SLOAD SUB PUSH2 0xA9F JUMPI PUSH1 0x40 MLOAD PUSH3 0x461BCD PUSH1 0xE5 SHL DUP2 MSTORE PUSH1 0x4 ADD PUSH2 0x6A1 SWAP1 PUSH2 0x2F86 JUMP JUMPDEST PUSH1 0x2 PUSH1 0x1 SSTORE PUSH1 0x0 DUP1 DUP1 DUP1 DUP1 JUMPDEST DUP6 DUP2 LT ISZERO PUSH2 0x11FC JUMPI PUSH1 0x0 DUP8 DUP8 DUP4 DUP2 DUP2 LT PUSH2 0xAC7 JUMPI PUSH2 0xAC7 PUSH2 0x2FFB JUMP JUMPDEST SWAP1 POP PUSH1 0x20 MUL DUP2 ADD SWAP1 PUSH2 0xAD9 SWAP2 SWAP1 PUSH2 0x3011 JUMP JUMPDEST PUSH2 0xAE7 SWAP1 PUSH1 0x20 DUP2 ADD SWAP1 PUSH2 0x2ECD JUMP JUMPDEST SWAP1 POP PUSH1 0x8 PUSH1 0x0 DUP10 DUP10 DUP6 DUP2 DUP2 LT PUSH2 0xAFF JUMPI PUSH2 0xAFF PUSH2 0x2FFB JUMP JUMPDEST SWAP1 POP PUSH1 0x20 MUL DUP2 ADD SWAP1 PUSH2 0xB11 SWAP2 SWAP1 PUSH2 0x3011 JUMP JUMPDEST PUSH2 0xB22 SWAP1 PUSH1 0xA0 DUP2 ADD SWAP1 PUSH1 0x80 ADD PUSH2 0x2BF7 JUMP JUMPDEST PUSH1 0x1 PUSH1 0x1 PUSH1 0xA0 SHL SUB AND DUP2 MSTORE PUSH1 0x20 DUP2 ADD SWAP2 SWAP1 SWAP2 MSTORE PUSH1 0x40 ADD PUSH1 0x0 KECCAK256 SLOAD PUSH1 0xFF AND ISZERO PUSH2 0xB48 JUMPI POP PUSH1 0x4 JUMPDEST PUSH1 0x0 DUP2 PUSH1 0x4 DUP2 GT ISZERO PUSH2 0xB5C JUMPI PUSH2 0xB5C PUSH2 0x2CD2 JUMP JUMPDEST SUB PUSH2 0xC29 JUMPI PUSH2 0xBCA DUP2 DUP10 DUP10 DUP6 DUP2 DUP2 LT PUSH2 0xB77 JUMPI PUSH2 0xB77 PUSH2 0x2FFB JUMP JUMPDEST SWAP1 POP PUSH1 0x20 MUL DUP2 ADD SWAP1 PUSH2 0xB89 SWAP2 SWAP1 PUSH2 0x3011 JUMP JUMPDEST PUSH2 0xB9A SWAP1 PUSH1 0x40 DUP2 ADD SWAP1 PUSH1 0x20 ADD PUSH2 0x2BF7 JUMP JUMPDEST DUP11 DUP11 DUP7 DUP2 DUP2 LT PUSH2 0xBAC JUMPI PUSH2 0xBAC PUSH2 0x2FFB JUMP JUMPDEST SWAP1 POP PUSH1 0x20 MUL DUP2 ADD SWAP1 PUSH2 0xBBE SWAP2 SWAP1 PUSH2 0x3011 JUMP JUMPDEST PUSH1 0x40 ADD CALLDATALOAD PUSH1 0x0 DUP1 PUSH2 0x1F58 JUMP JUMPDEST SWAP7 POP SWAP5 POP PUSH2 0xC0C DUP9 DUP9 DUP5 DUP2 DUP2 LT PUSH2 0xBE3 JUMPI PUSH2 0xBE3 PUSH2 0x2FFB JUMP JUMPDEST SWAP1 POP PUSH1 0x20 MUL DUP2 ADD SWAP1 PUSH2 0xBF5 SWAP2 SWAP1 PUSH2 0x3011 JUMP JUMPDEST PUSH2 0xC06 SWAP1 PUSH1 0x40 DUP2 ADD SWAP1 PUSH1 0x20 ADD PUSH2 0x2BF7 JUMP JUMPDEST DUP8 PUSH2 0x2040 JUMP JUMPDEST PUSH2 0xC16 DUP7 DUP6 PUSH2 0x3031 JUMP JUMPDEST SWAP4 POP PUSH2 0xC22 DUP6 DUP5 PUSH2 0x3031 JUMP JUMPDEST SWAP3 POP PUSH2 0x10B5 JUMP JUMPDEST PUSH1 0x1 DUP2 PUSH1 0x4 DUP2 GT ISZERO PUSH2 0xC3D JUMPI PUSH2 0xC3D PUSH2 0x2CD2 JUMP JUMPDEST EQ DUP1 PUSH2 0xC5A JUMPI POP PUSH1 0x4 DUP2 PUSH1 0x4 DUP2 GT ISZERO PUSH2 0xC58 JUMPI PUSH2 0xC58 PUSH2 0x2CD2 JUMP JUMPDEST EQ JUMPDEST ISZERO PUSH2 0xE3B JUMPI PUSH1 0x0 PUSH2 0xCC8 DUP10 DUP10 DUP6 DUP2 DUP2 LT PUSH2 0xC76 JUMPI PUSH2 0xC76 PUSH2 0x2FFB JUMP JUMPDEST SWAP1 POP PUSH1 0x20 MUL DUP2 ADD SWAP1 PUSH2 0xC88 SWAP2 SWAP1 PUSH2 0x3011 JUMP JUMPDEST PUSH1 0x40 ADD CALLDATALOAD CALLER ADDRESS DUP13 DUP13 DUP9 DUP2 DUP2 LT PUSH2 0xCA0 JUMPI PUSH2 0xCA0 PUSH2 0x2FFB JUMP JUMPDEST SWAP1 POP PUSH1 0x20 MUL DUP2 ADD SWAP1 PUSH2 0xCB2 SWAP2 SWAP1 PUSH2 0x3011 JUMP JUMPDEST PUSH2 0xCC3 SWAP1 PUSH1 0xA0 DUP2 ADD SWAP1 PUSH1 0x80 ADD PUSH2 0x2BF7 JUMP JUMPDEST PUSH2 0x1E49 JUMP JUMPDEST SWAP1 POP PUSH1 0x1 DUP3 PUSH1 0x4 DUP2 GT ISZERO PUSH2 0xCDE JUMPI PUSH2 0xCDE PUSH2 0x2CD2 JUMP JUMPDEST SUB PUSH2 0xD70 JUMPI PUSH2 0xD59 DUP3 DUP11 DUP11 DUP7 DUP2 DUP2 LT PUSH2 0xCF9 JUMPI PUSH2 0xCF9 PUSH2 0x2FFB JUMP JUMPDEST SWAP1 POP PUSH1 0x20 MUL DUP2 ADD SWAP1 PUSH2 0xD0B SWAP2 SWAP1 PUSH2 0x3011 JUMP JUMPDEST PUSH2 0xD1C SWAP1 PUSH1 0x40 DUP2 ADD SWAP1 PUSH1 0x20 ADD PUSH2 0x2BF7 JUMP JUMPDEST CALLVALUE PUSH1 0x0 DUP14 DUP14 DUP10 DUP2 DUP2 LT PUSH2 0xD31 JUMPI PUSH2 0xD31 PUSH2 0x2FFB JUMP JUMPDEST SWAP1 POP PUSH1 0x20 MUL DUP2 ADD SWAP1 PUSH2 0xD43 SWAP2 SWAP1 PUSH2 0x3011 JUMP JUMPDEST PUSH2 0xD54 SWAP1 PUSH1 0xA0 DUP2 ADD SWAP1 PUSH1 0x80 ADD PUSH2 0x2BF7 JUMP JUMPDEST PUSH2 0x1F58 JUMP JUMPDEST POP SWAP6 POP PUSH2 0xD66 DUP7 DUP6 PUSH2 0x3031 JUMP JUMPDEST SWAP4 POP DUP1 SWAP7 POP PUSH2 0xDC2 JUMP JUMPDEST PUSH2 0xDBE DUP3 DUP11 DUP11 DUP7 DUP2 DUP2 LT PUSH2 0xD86 JUMPI PUSH2 0xD86 PUSH2 0x2FFB JUMP JUMPDEST SWAP1 POP PUSH1 0x20 MUL DUP2 ADD SWAP1 PUSH2 0xD98 SWAP2 SWAP1 PUSH2 0x3011 JUMP JUMPDEST PUSH2 0xDA9 SWAP1 PUSH1 0x40 DUP2 ADD SWAP1 PUSH1 0x20 ADD PUSH2 0x2BF7 JUMP JUMPDEST DUP4 PUSH1 0x0 DUP14 DUP14 DUP10 DUP2 DUP2 LT PUSH2 0xD31 JUMPI PUSH2 0xD31 PUSH2 0x2FFB JUMP JUMPDEST SWAP8 POP POP JUMPDEST PUSH2 0xE35 DUP8 DUP11 DUP11 DUP7 DUP2 DUP2 LT PUSH2 0xDD8 JUMPI PUSH2 0xDD8 PUSH2 0x2FFB JUMP JUMPDEST SWAP1 POP PUSH1 0x20 MUL DUP2 ADD SWAP1 PUSH2 0xDEA SWAP2 SWAP1 PUSH2 0x3011 JUMP JUMPDEST PUSH2 0xDFB SWAP1 PUSH1 0x40 DUP2 ADD SWAP1 PUSH1 0x20 ADD PUSH2 0x2BF7 JUMP JUMPDEST DUP12 DUP12 DUP8 DUP2 DUP2 LT PUSH2 0xE0D JUMPI PUSH2 0xE0D PUSH2 0x2FFB JUMP JUMPDEST SWAP1 POP PUSH1 0x20 MUL DUP2 ADD SWAP1 PUSH2 0xE1F SWAP2 SWAP1 PUSH2 0x3011 JUMP JUMPDEST PUSH2 0xE30 SWAP1 PUSH1 0xA0 DUP2 ADD SWAP1 PUSH1 0x80 ADD PUSH2 0x2BF7 JUMP JUMPDEST PUSH2 0x1FC6 JUMP JUMPDEST POP PUSH2 0x10B5 JUMP JUMPDEST PUSH1 0x2 DUP2 PUSH1 0x4 DUP2 GT ISZERO PUSH2 0xE4F JUMPI PUSH2 0xE4F PUSH2 0x2CD2 JUMP JUMPDEST EQ DUP1 PUSH2 0xE6C JUMPI POP PUSH1 0x3 DUP2 PUSH1 0x4 DUP2 GT ISZERO PUSH2 0xE6A JUMPI PUSH2 0xE6A PUSH2 0x2CD2 JUMP JUMPDEST EQ JUMPDEST ISZERO PUSH2 0x109C JUMPI PUSH2 0xEE5 DUP2 DUP10 DUP10 DUP6 DUP2 DUP2 LT PUSH2 0xE87 JUMPI PUSH2 0xE87 PUSH2 0x2FFB JUMP JUMPDEST SWAP1 POP PUSH1 0x20 MUL DUP2 ADD SWAP1 PUSH2 0xE99 SWAP2 SWAP1 PUSH2 0x3011 JUMP JUMPDEST PUSH2 0xEAA SWAP1 PUSH1 0x40 DUP2 ADD SWAP1 PUSH1 0x20 ADD PUSH2 0x2BF7 JUMP JUMPDEST CALLVALUE DUP12 DUP12 DUP8 DUP2 DUP2 LT PUSH2 0xEBD JUMPI PUSH2 0xEBD PUSH2 0x2FFB JUMP JUMPDEST SWAP1 POP PUSH1 0x20 MUL DUP2 ADD SWAP1 PUSH2 0xECF SWAP2 SWAP1 PUSH2 0x3011 JUMP JUMPDEST PUSH1 0x60 ADD CALLDATALOAD DUP13 DUP13 DUP9 DUP2 DUP2 LT PUSH2 0xD31 JUMPI PUSH2 0xD31 PUSH2 0x2FFB JUMP JUMPDEST POP SWAP5 POP PUSH1 0x2 DUP2 PUSH1 0x4 DUP2 GT ISZERO PUSH2 0xEFC JUMPI PUSH2 0xEFC PUSH2 0x2CD2 JUMP JUMPDEST SUB PUSH2 0xFA5 JUMPI PUSH1 0x1 SWAP6 POP PUSH2 0xFA0 DUP9 DUP9 DUP5 DUP2 DUP2 LT PUSH2 0xF1A JUMPI PUSH2 0xF1A PUSH2 0x2FFB JUMP JUMPDEST SWAP1 POP PUSH1 0x20 MUL DUP2 ADD SWAP1 PUSH2 0xF2C SWAP2 SWAP1 PUSH2 0x3011 JUMP JUMPDEST PUSH1 0x60 ADD CALLDATALOAD CALLER DUP11 DUP11 DUP7 DUP2 DUP2 LT PUSH2 0xF43 JUMPI PUSH2 0xF43 PUSH2 0x2FFB JUMP JUMPDEST SWAP1 POP PUSH1 0x20 MUL DUP2 ADD SWAP1 PUSH2 0xF55 SWAP2 SWAP1 PUSH2 0x3011 JUMP JUMPDEST PUSH2 0xF66 SWAP1 PUSH1 0x40 DUP2 ADD SWAP1 PUSH1 0x20 ADD PUSH2 0x2BF7 JUMP JUMPDEST DUP12 DUP12 DUP8 DUP2 DUP2 LT PUSH2 0xF78 JUMPI PUSH2 0xF78 PUSH2 0x2FFB JUMP JUMPDEST SWAP1 POP PUSH1 0x20 MUL DUP2 ADD SWAP1 PUSH2 0xF8A SWAP2 SWAP1 PUSH2 0x3011 JUMP JUMPDEST PUSH2 0xF9B SWAP1 PUSH1 0xA0 DUP2 ADD SWAP1 PUSH1 0x80 ADD PUSH2 0x2BF7 JUMP JUMPDEST PUSH2 0x20B9 JUMP JUMPDEST PUSH2 0x1092 JUMP JUMPDEST DUP8 DUP8 DUP4 DUP2 DUP2 LT PUSH2 0xFB7 JUMPI PUSH2 0xFB7 PUSH2 0x2FFB JUMP JUMPDEST SWAP1 POP PUSH1 0x20 MUL DUP2 ADD SWAP1 PUSH2 0xFC9 SWAP2 SWAP1 PUSH2 0x3011 JUMP JUMPDEST PUSH1 0x40 ADD CALLDATALOAD SWAP6 POP PUSH2 0x1092 DUP9 DUP9 DUP5 DUP2 DUP2 LT PUSH2 0xFE4 JUMPI PUSH2 0xFE4 PUSH2 0x2FFB JUMP JUMPDEST SWAP1 POP PUSH1 0x20 MUL DUP2 ADD SWAP1 PUSH2 0xFF6 SWAP2 SWAP1 PUSH2 0x3011 JUMP JUMPDEST PUSH1 0x60 ADD CALLDATALOAD DUP10 DUP10 DUP6 DUP2 DUP2 LT PUSH2 0x100C JUMPI PUSH2 0x100C PUSH2 0x2FFB JUMP JUMPDEST SWAP1 POP PUSH1 0x20 MUL DUP2 ADD SWAP1 PUSH2 0x101E SWAP2 SWAP1 PUSH2 0x3011 JUMP JUMPDEST PUSH1 0x40 ADD CALLDATALOAD CALLER DUP12 DUP12 DUP8 DUP2 DUP2 LT PUSH2 0x1035 JUMPI PUSH2 0x1035 PUSH2 0x2FFB JUMP JUMPDEST SWAP1 POP PUSH1 0x20 MUL DUP2 ADD SWAP1 PUSH2 0x1047 SWAP2 SWAP1 PUSH2 0x3011 JUMP JUMPDEST PUSH2 0x1058 SWAP1 PUSH1 0x40 DUP2 ADD SWAP1 PUSH1 0x20 ADD PUSH2 0x2BF7 JUMP JUMPDEST DUP13 DUP13 DUP9 DUP2 DUP2 LT PUSH2 0x106A JUMPI PUSH2 0x106A PUSH2 0x2FFB JUMP JUMPDEST SWAP1 POP PUSH1 0x20 MUL DUP2 ADD SWAP1 PUSH2 0x107C SWAP2 SWAP1 PUSH2 0x3011 JUMP JUMPDEST PUSH2 0x108D SWAP1 PUSH1 0xA0 DUP2 ADD SWAP1 PUSH1 0x80 ADD PUSH2 0x2BF7 JUMP JUMPDEST PUSH2 0x212D JUMP JUMPDEST PUSH2 0xC22 DUP6 DUP5 PUSH2 0x3031 JUMP JUMPDEST PUSH1 0x40 MLOAD PUSH4 0x28C354E5 PUSH1 0xE0 SHL DUP2 MSTORE PUSH1 0x4 ADD PUSH1 0x40 MLOAD DUP1 SWAP2 SUB SWAP1 REVERT JUMPDEST DUP8 DUP8 DUP4 DUP2 DUP2 LT PUSH2 0x10C7 JUMPI PUSH2 0x10C7 PUSH2 0x2FFB JUMP JUMPDEST SWAP1 POP PUSH1 0x20 MUL DUP2 ADD SWAP1 PUSH2 0x10D9 SWAP2 SWAP1 PUSH2 0x3011 JUMP JUMPDEST PUSH2 0x10EA SWAP1 PUSH1 0xA0 DUP2 ADD SWAP1 PUSH1 0x80 ADD PUSH2 0x2BF7 JUMP JUMPDEST PUSH1 0x1 PUSH1 0x1 PUSH1 0xA0 SHL SUB AND CALLER DUP10 DUP10 DUP6 DUP2 DUP2 LT PUSH2 0x1106 JUMPI PUSH2 0x1106 PUSH2 0x2FFB JUMP JUMPDEST SWAP1 POP PUSH1 0x20 MUL DUP2 ADD SWAP1 PUSH2 0x1118 SWAP2 SWAP1 PUSH2 0x3011 JUMP JUMPDEST PUSH2 0x1129 SWAP1 PUSH1 0x40 DUP2 ADD SWAP1 PUSH1 0x20 ADD PUSH2 0x2BF7 JUMP JUMPDEST PUSH1 0x1 PUSH1 0x1 PUSH1 0xA0 SHL SUB AND PUSH1 0x0 DUP1 MLOAD PUSH1 0x20 PUSH2 0x3383 DUP4 CODECOPY DUP2 MLOAD SWAP2 MSTORE DUP12 DUP12 DUP8 DUP2 DUP2 LT PUSH2 0x1153 JUMPI PUSH2 0x1153 PUSH2 0x2FFB JUMP JUMPDEST SWAP1 POP PUSH1 0x20 MUL DUP2 ADD SWAP1 PUSH2 0x1165 SWAP2 SWAP1 PUSH2 0x3011 JUMP JUMPDEST PUSH2 0x1173 SWAP1 PUSH1 0xA0 DUP2 ADD SWAP1 PUSH2 0x3044 JUMP JUMPDEST DUP14 DUP14 DUP10 DUP2 DUP2 LT PUSH2 0x1185 JUMPI PUSH2 0x1185 PUSH2 0x2FFB JUMP JUMPDEST SWAP1 POP PUSH1 0x20 MUL DUP2 ADD SWAP1 PUSH2 0x1197 SWAP2 SWAP1 PUSH2 0x3011 JUMP JUMPDEST PUSH2 0x11A5 SWAP1 PUSH1 0x20 DUP2 ADD SWAP1 PUSH2 0x2ECD JUMP JUMPDEST DUP15 DUP15 DUP11 DUP2 DUP2 LT PUSH2 0x11B7 JUMPI PUSH2 0x11B7 PUSH2 0x2FFB JUMP JUMPDEST SWAP1 POP PUSH1 0x20 MUL DUP2 ADD SWAP1 PUSH2 0x11C9 SWAP2 SWAP1 PUSH2 0x3011 JUMP JUMPDEST PUSH1 0x60 ADD CALLDATALOAD DUP14 DUP14 PUSH1 0x40 MLOAD PUSH2 0x11E1 SWAP7 SWAP6 SWAP5 SWAP4 SWAP3 SWAP2 SWAP1 PUSH2 0x3092 JUMP JUMPDEST PUSH1 0x40 MLOAD DUP1 SWAP2 SUB SWAP1 LOG4 POP DUP1 PUSH2 0x11F4 DUP2 PUSH2 0x30E7 JUMP JUMPDEST SWAP2 POP POP PUSH2 0xAAB JUMP JUMPDEST POP CALLVALUE PUSH2 0x1208 DUP3 DUP5 PUSH2 0x3031 JUMP JUMPDEST LT ISZERO PUSH2 0x1227 JUMPI PUSH1 0x40 MLOAD PUSH4 0x779AFF7B PUSH1 0xE0 SHL DUP2 MSTORE PUSH1 0x4 ADD PUSH1 0x40 MLOAD DUP1 SWAP2 SUB SWAP1 REVERT JUMPDEST POP POP PUSH1 0x1 DUP1 SSTORE POP POP POP POP JUMP JUMPDEST PUSH1 0x60 DUP2 PUSH8 0xFFFFFFFFFFFFFFFF DUP2 GT ISZERO PUSH2 0x124E JUMPI PUSH2 0x124E PUSH2 0x2AEC JUMP JUMPDEST PUSH1 0x40 MLOAD SWAP1 DUP1 DUP3 MSTORE DUP1 PUSH1 0x20 MUL PUSH1 0x20 ADD DUP3 ADD PUSH1 0x40 MSTORE DUP1 ISZERO PUSH2 0x12B4 JUMPI DUP2 PUSH1 0x20 ADD JUMPDEST PUSH1 0x40 DUP1 MLOAD PUSH1 0xE0 DUP2 ADD DUP3 MSTORE PUSH1 0x0 DUP1 DUP3 MSTORE PUSH1 0x20 DUP1 DUP4 ADD DUP3 SWAP1 MSTORE SWAP3 DUP3 ADD DUP2 SWAP1 MSTORE PUSH1 0x60 DUP1 DUP4 ADD DUP3 SWAP1 MSTORE PUSH1 0x80 DUP4 ADD DUP3 SWAP1 MSTORE PUSH1 0xA0 DUP4 ADD MSTORE PUSH1 0xC0 DUP3 ADD MSTORE DUP3 MSTORE PUSH1 0x0 NOT SWAP1 SWAP3 ADD SWAP2 ADD DUP2 PUSH2 0x126C JUMPI SWAP1 POP JUMPDEST POP SWAP1 POP PUSH1 0x0 JUMPDEST DUP3 DUP2 LT ISZERO PUSH2 0x1756 JUMPI PUSH1 0x0 DUP5 DUP5 DUP4 DUP2 DUP2 LT PUSH2 0x12D6 JUMPI PUSH2 0x12D6 PUSH2 0x2FFB JUMP JUMPDEST SWAP1 POP PUSH1 0x20 MUL DUP2 ADD SWAP1 PUSH2 0x12E8 SWAP2 SWAP1 PUSH2 0x3011 JUMP JUMPDEST PUSH2 0x12F6 SWAP1 PUSH1 0x20 DUP2 ADD SWAP1 PUSH2 0x2ECD JUMP JUMPDEST SWAP1 POP PUSH1 0x8 PUSH1 0x0 DUP7 DUP7 DUP6 DUP2 DUP2 LT PUSH2 0x130E JUMPI PUSH2 0x130E PUSH2 0x2FFB JUMP JUMPDEST SWAP1 POP PUSH1 0x20 MUL DUP2 ADD SWAP1 PUSH2 0x1320 SWAP2 SWAP1 PUSH2 0x3011 JUMP JUMPDEST PUSH2 0x1331 SWAP1 PUSH1 0xA0 DUP2 ADD SWAP1 PUSH1 0x80 ADD PUSH2 0x2BF7 JUMP JUMPDEST PUSH1 0x1 PUSH1 0x1 PUSH1 0xA0 SHL SUB AND DUP2 MSTORE PUSH1 0x20 DUP2 ADD SWAP2 SWAP1 SWAP2 MSTORE PUSH1 0x40 ADD PUSH1 0x0 KECCAK256 SLOAD PUSH1 0xFF AND ISZERO PUSH2 0x1357 JUMPI POP PUSH1 0x4 JUMPDEST DUP1 DUP4 DUP4 DUP2 MLOAD DUP2 LT PUSH2 0x136A JUMPI PUSH2 0x136A PUSH2 0x2FFB JUMP JUMPDEST PUSH1 0x20 MUL PUSH1 0x20 ADD ADD MLOAD PUSH1 0x0 ADD SWAP1 PUSH1 0x4 DUP2 GT ISZERO PUSH2 0x1387 JUMPI PUSH2 0x1387 PUSH2 0x2CD2 JUMP JUMPDEST SWAP1 DUP2 PUSH1 0x4 DUP2 GT ISZERO PUSH2 0x139A JUMPI PUSH2 0x139A PUSH2 0x2CD2 JUMP JUMPDEST SWAP1 MSTORE POP DUP5 DUP5 DUP4 DUP2 DUP2 LT PUSH2 0x13AF JUMPI PUSH2 0x13AF PUSH2 0x2FFB JUMP JUMPDEST SWAP1 POP PUSH1 0x20 MUL DUP2 ADD SWAP1 PUSH2 0x13C1 SWAP2 SWAP1 PUSH2 0x3011 JUMP JUMPDEST PUSH2 0x13D2 SWAP1 PUSH1 0x40 DUP2 ADD SWAP1 PUSH1 0x20 ADD PUSH2 0x2BF7 JUMP JUMPDEST DUP4 DUP4 DUP2 MLOAD DUP2 LT PUSH2 0x13E4 JUMPI PUSH2 0x13E4 PUSH2 0x2FFB JUMP JUMPDEST PUSH1 0x20 SWAP1 DUP2 MUL SWAP2 SWAP1 SWAP2 ADD DUP2 ADD MLOAD PUSH1 0x1 PUSH1 0x1 PUSH1 0xA0 SHL SUB SWAP1 SWAP3 AND SWAP2 ADD MSTORE DUP5 DUP5 DUP4 DUP2 DUP2 LT PUSH2 0x1410 JUMPI PUSH2 0x1410 PUSH2 0x2FFB JUMP JUMPDEST SWAP1 POP PUSH1 0x20 MUL DUP2 ADD SWAP1 PUSH2 0x1422 SWAP2 SWAP1 PUSH2 0x3011 JUMP JUMPDEST PUSH1 0x40 ADD CALLDATALOAD DUP4 DUP4 DUP2 MLOAD DUP2 LT PUSH2 0x1438 JUMPI PUSH2 0x1438 PUSH2 0x2FFB JUMP JUMPDEST PUSH1 0x20 MUL PUSH1 0x20 ADD ADD MLOAD PUSH1 0x40 ADD DUP2 DUP2 MSTORE POP POP DUP5 DUP5 DUP4 DUP2 DUP2 LT PUSH2 0x145A JUMPI PUSH2 0x145A PUSH2 0x2FFB JUMP JUMPDEST SWAP1 POP PUSH1 0x20 MUL DUP2 ADD SWAP1 PUSH2 0x146C SWAP2 SWAP1 PUSH2 0x3011 JUMP JUMPDEST PUSH1 0x60 ADD CALLDATALOAD DUP4 DUP4 DUP2 MLOAD DUP2 LT PUSH2 0x1482 JUMPI PUSH2 0x1482 PUSH2 0x2FFB JUMP JUMPDEST PUSH1 0x20 MUL PUSH1 0x20 ADD ADD MLOAD PUSH1 0x60 ADD DUP2 DUP2 MSTORE POP POP DUP5 DUP5 DUP4 DUP2 DUP2 LT PUSH2 0x14A4 JUMPI PUSH2 0x14A4 PUSH2 0x2FFB JUMP JUMPDEST SWAP1 POP PUSH1 0x20 MUL DUP2 ADD SWAP1 PUSH2 0x14B6 SWAP2 SWAP1 PUSH2 0x3011 JUMP JUMPDEST PUSH2 0x14C7 SWAP1 PUSH1 0xA0 DUP2 ADD SWAP1 PUSH1 0x80 ADD PUSH2 0x2BF7 JUMP JUMPDEST DUP4 DUP4 DUP2 MLOAD DUP2 LT PUSH2 0x14D9 JUMPI PUSH2 0x14D9 PUSH2 0x2FFB JUMP JUMPDEST PUSH1 0x20 MUL PUSH1 0x20 ADD ADD MLOAD PUSH1 0x80 ADD SWAP1 PUSH1 0x1 PUSH1 0x1 PUSH1 0xA0 SHL SUB AND SWAP1 DUP2 PUSH1 0x1 PUSH1 0x1 PUSH1 0xA0 SHL SUB AND DUP2 MSTORE POP POP DUP5 DUP5 DUP4 DUP2 DUP2 LT PUSH2 0x150F JUMPI PUSH2 0x150F PUSH2 0x2FFB JUMP JUMPDEST SWAP1 POP PUSH1 0x20 MUL DUP2 ADD SWAP1 PUSH2 0x1521 SWAP2 SWAP1 PUSH2 0x3011 JUMP JUMPDEST PUSH2 0x152F SWAP1 PUSH1 0xA0 DUP2 ADD SWAP1 PUSH2 0x3044 JUMP JUMPDEST DUP1 DUP1 PUSH1 0x1F ADD PUSH1 0x20 DUP1 SWAP2 DIV MUL PUSH1 0x20 ADD PUSH1 0x40 MLOAD SWAP1 DUP2 ADD PUSH1 0x40 MSTORE DUP1 SWAP4 SWAP3 SWAP2 SWAP1 DUP2 DUP2 MSTORE PUSH1 0x20 ADD DUP4 DUP4 DUP1 DUP3 DUP5 CALLDATACOPY PUSH1 0x0 SWAP3 ADD SWAP2 SWAP1 SWAP2 MSTORE POP POP DUP6 MLOAD DUP7 SWAP3 POP DUP6 SWAP2 POP DUP2 LT PUSH2 0x1577 JUMPI PUSH2 0x1577 PUSH2 0x2FFB JUMP JUMPDEST PUSH1 0x20 MUL PUSH1 0x20 ADD ADD MLOAD PUSH1 0xA0 ADD DUP2 SWAP1 MSTORE POP PUSH1 0x0 PUSH2 0x15E9 DUP7 DUP7 DUP6 DUP2 DUP2 LT PUSH2 0x159D JUMPI PUSH2 0x159D PUSH2 0x2FFB JUMP JUMPDEST SWAP1 POP PUSH1 0x20 MUL DUP2 ADD SWAP1 PUSH2 0x15AF SWAP2 SWAP1 PUSH2 0x3011 JUMP JUMPDEST PUSH1 0x40 ADD CALLDATALOAD DUP4 DUP9 DUP9 DUP8 DUP2 DUP2 LT PUSH2 0x15C6 JUMPI PUSH2 0x15C6 PUSH2 0x2FFB JUMP JUMPDEST SWAP1 POP PUSH1 0x20 MUL DUP2 ADD SWAP1 PUSH2 0x15D8 SWAP2 SWAP1 PUSH2 0x3011 JUMP JUMPDEST PUSH2 0x30D SWAP1 PUSH1 0x40 DUP2 ADD SWAP1 PUSH1 0x20 ADD PUSH2 0x2BF7 JUMP JUMPDEST SWAP1 POP PUSH1 0x0 DUP3 PUSH1 0x4 DUP2 GT ISZERO PUSH2 0x15FF JUMPI PUSH2 0x15FF PUSH2 0x2CD2 JUMP JUMPDEST SUB PUSH2 0x169F JUMPI DUP1 DUP5 DUP5 DUP2 MLOAD DUP2 LT PUSH2 0x1617 JUMPI PUSH2 0x1617 PUSH2 0x2FFB JUMP JUMPDEST PUSH1 0x20 MUL PUSH1 0x20 ADD ADD MLOAD PUSH1 0x40 ADD MLOAD PUSH2 0x162D SWAP2 SWAP1 PUSH2 0x3031 JUMP JUMPDEST DUP5 DUP5 DUP2 MLOAD DUP2 LT PUSH2 0x163F JUMPI PUSH2 0x163F PUSH2 0x2FFB JUMP JUMPDEST PUSH1 0x20 MUL PUSH1 0x20 ADD ADD MLOAD PUSH1 0xC0 ADD DUP2 DUP2 MSTORE POP POP DUP1 DUP5 DUP5 DUP2 MLOAD DUP2 LT PUSH2 0x1662 JUMPI PUSH2 0x1662 PUSH2 0x2FFB JUMP JUMPDEST PUSH1 0x20 MUL PUSH1 0x20 ADD ADD MLOAD PUSH1 0x40 ADD MLOAD PUSH2 0x1678 SWAP2 SWAP1 PUSH2 0x3031 JUMP JUMPDEST DUP5 DUP5 DUP2 MLOAD DUP2 LT PUSH2 0x168A JUMPI PUSH2 0x168A PUSH2 0x2FFB JUMP JUMPDEST PUSH1 0x20 MUL PUSH1 0x20 ADD ADD MLOAD PUSH1 0x40 ADD DUP2 DUP2 MSTORE POP POP PUSH2 0x1741 JUMP JUMPDEST PUSH1 0x4 DUP3 PUSH1 0x4 DUP2 GT ISZERO PUSH2 0x16B3 JUMPI PUSH2 0x16B3 PUSH2 0x2CD2 JUMP JUMPDEST SUB PUSH2 0x16CB JUMPI DUP1 DUP5 DUP5 DUP2 MLOAD DUP2 LT PUSH2 0x1662 JUMPI PUSH2 0x1662 PUSH2 0x2FFB JUMP JUMPDEST PUSH1 0x1 DUP3 PUSH1 0x4 DUP2 GT ISZERO PUSH2 0x16DF JUMPI PUSH2 0x16DF PUSH2 0x2CD2 JUMP JUMPDEST EQ DUP1 PUSH2 0x16FC JUMPI POP PUSH1 0x2 DUP3 PUSH1 0x4 DUP2 GT ISZERO PUSH2 0x16FA JUMPI PUSH2 0x16FA PUSH2 0x2CD2 JUMP JUMPDEST EQ JUMPDEST DUP1 PUSH2 0x1718 JUMPI POP PUSH1 0x3 DUP3 PUSH1 0x4 DUP2 GT ISZERO PUSH2 0x1716 JUMPI PUSH2 0x1716 PUSH2 0x2CD2 JUMP JUMPDEST EQ JUMPDEST ISZERO PUSH2 0x109C JUMPI DUP1 DUP5 DUP5 DUP2 MLOAD DUP2 LT PUSH2 0x1730 JUMPI PUSH2 0x1730 PUSH2 0x2FFB JUMP JUMPDEST PUSH1 0x20 MUL PUSH1 0x20 ADD ADD MLOAD PUSH1 0xC0 ADD DUP2 DUP2 MSTORE POP POP JUMPDEST POP POP DUP1 DUP1 PUSH2 0x174E SWAP1 PUSH2 0x30E7 JUMP JUMPDEST SWAP2 POP POP PUSH2 0x12BA JUMP JUMPDEST POP SWAP3 SWAP2 POP POP JUMP JUMPDEST PUSH1 0x2 PUSH1 0x1 SLOAD SUB PUSH2 0x177F JUMPI PUSH1 0x40 MLOAD PUSH3 0x461BCD PUSH1 0xE5 SHL DUP2 MSTORE PUSH1 0x4 ADD PUSH2 0x6A1 SWAP1 PUSH2 0x2F86 JUMP JUMPDEST PUSH1 0x2 PUSH1 0x1 SSTORE PUSH1 0x0 DUP1 PUSH2 0x1794 DUP2 DUP6 CALLVALUE DUP3 DUP1 PUSH2 0x1F58 JUMP JUMPDEST SWAP2 POP SWAP2 POP PUSH2 0x17A2 DUP5 DUP3 PUSH2 0x2040 JUMP JUMPDEST PUSH1 0x0 PUSH1 0x1 PUSH1 0x1 PUSH1 0xA0 SHL SUB AND CALLER PUSH1 0x1 PUSH1 0x1 PUSH1 0xA0 SHL SUB AND DUP6 PUSH1 0x1 PUSH1 0x1 PUSH1 0xA0 SHL SUB AND PUSH1 0x0 DUP1 MLOAD PUSH1 0x20 PUSH2 0x3383 DUP4 CODECOPY DUP2 MLOAD SWAP2 MSTORE DUP7 PUSH1 0x0 DUP1 DUP8 DUP10 PUSH1 0x40 MLOAD PUSH2 0x17E7 SWAP6 SWAP5 SWAP4 SWAP3 SWAP2 SWAP1 PUSH2 0x2FBD JUMP JUMPDEST PUSH1 0x40 MLOAD DUP1 SWAP2 SUB SWAP1 LOG4 POP POP PUSH1 0x1 DUP1 SSTORE POP POP JUMP JUMPDEST PUSH1 0x0 SLOAD PUSH1 0x1 PUSH1 0x1 PUSH1 0xA0 SHL SUB AND CALLER EQ PUSH2 0x1823 JUMPI PUSH1 0x40 MLOAD PUSH3 0x461BCD PUSH1 0xE5 SHL DUP2 MSTORE PUSH1 0x4 ADD PUSH2 0x6A1 SWAP1 PUSH2 0x2F02 JUMP JUMPDEST PUSH1 0x2 PUSH1 0x1 SLOAD SUB PUSH2 0x1845 JUMPI PUSH1 0x40 MLOAD PUSH3 0x461BCD PUSH1 0xE5 SHL DUP2 MSTORE PUSH1 0x4 ADD PUSH2 0x6A1 SWAP1 PUSH2 0x2F86 JUMP JUMPDEST PUSH1 0x2 PUSH1 0x1 SWAP1 DUP2 SSTORE PUSH1 0x1 PUSH1 0x1 PUSH1 0xA0 SHL SUB SWAP1 SWAP2 AND PUSH1 0x0 SWAP1 DUP2 MSTORE PUSH1 0x9 PUSH1 0x20 MSTORE PUSH1 0x40 SWAP1 KECCAK256 DUP1 SLOAD PUSH1 0xFF NOT AND DUP3 OR SWAP1 SSTORE DUP1 SSTORE JUMP JUMPDEST PUSH1 0x0 SLOAD PUSH1 0x1 PUSH1 0x1 PUSH1 0xA0 SHL SUB AND CALLER EQ PUSH2 0x189D JUMPI PUSH1 0x40 MLOAD PUSH3 0x461BCD PUSH1 0xE5 SHL DUP2 MSTORE PUSH1 0x4 ADD PUSH2 0x6A1 SWAP1 PUSH2 0x2F02 JUMP JUMPDEST PUSH1 0x2 PUSH1 0x1 SLOAD SUB PUSH2 0x18BF JUMPI PUSH1 0x40 MLOAD PUSH3 0x461BCD PUSH1 0xE5 SHL DUP2 MSTORE PUSH1 0x4 ADD PUSH2 0x6A1 SWAP1 PUSH2 0x2F86 JUMP JUMPDEST PUSH1 0x2 PUSH1 0x1 SWAP1 DUP2 SSTORE PUSH1 0x1 PUSH1 0x1 PUSH1 0xA0 SHL SUB SWAP1 SWAP2 AND PUSH1 0x0 SWAP1 DUP2 MSTORE PUSH1 0xE PUSH1 0x20 MSTORE PUSH1 0x40 SWAP1 KECCAK256 DUP1 SLOAD PUSH1 0xFF NOT AND DUP3 OR SWAP1 SSTORE DUP1 SSTORE JUMP JUMPDEST PUSH1 0x2 PUSH1 0x1 SLOAD SUB PUSH2 0x190F JUMPI PUSH1 0x40 MLOAD PUSH3 0x461BCD PUSH1 0xE5 SHL DUP2 MSTORE PUSH1 0x4 ADD PUSH2 0x6A1 SWAP1 PUSH2 0x2F86 JUMP JUMPDEST PUSH1 0x2 PUSH1 0x1 SSTORE PUSH1 0x0 PUSH2 0x1924 PUSH1 0x3 DUP8 CALLVALUE DUP9 DUP8 PUSH2 0x1F58 JUMP JUMPDEST POP SWAP1 POP PUSH2 0x1934 DUP6 DUP6 CALLER DUP10 DUP8 PUSH2 0x212D JUMP JUMPDEST DUP3 PUSH1 0x1 PUSH1 0x1 PUSH1 0xA0 SHL SUB AND CALLER PUSH1 0x1 PUSH1 0x1 PUSH1 0xA0 SHL SUB AND DUP8 PUSH1 0x1 PUSH1 0x1 PUSH1 0xA0 SHL SUB AND PUSH1 0x0 DUP1 MLOAD PUSH1 0x20 PUSH2 0x3383 DUP4 CODECOPY DUP2 MLOAD SWAP2 MSTORE DUP6 PUSH1 0x3 DUP11 DUP11 DUP9 PUSH1 0x40 MLOAD PUSH2 0x1978 SWAP6 SWAP5 SWAP4 SWAP3 SWAP2 SWAP1 PUSH2 0x2FBD JUMP JUMPDEST PUSH1 0x40 MLOAD DUP1 SWAP2 SUB SWAP1 LOG4 POP POP PUSH1 0x1 DUP1 SSTORE POP POP POP POP JUMP JUMPDEST PUSH1 0x0 SLOAD PUSH1 0x1 PUSH1 0x1 PUSH1 0xA0 SHL SUB AND CALLER EQ PUSH2 0x19B6 JUMPI PUSH1 0x40 MLOAD PUSH3 0x461BCD PUSH1 0xE5 SHL DUP2 MSTORE PUSH1 0x4 ADD PUSH2 0x6A1 SWAP1 PUSH2 0x2F02 JUMP JUMPDEST PUSH1 0x40 MLOAD PUSH4 0x96C553EB PUSH1 0xE0 SHL DUP2 MSTORE PUSH1 0x4 ADD PUSH1 0x40 MLOAD DUP1 SWAP2 SUB SWAP1 REVERT JUMPDEST PUSH1 0x0 SLOAD PUSH1 0x1 PUSH1 0x1 PUSH1 0xA0 SHL SUB AND CALLER EQ PUSH2 0x19F9 JUMPI PUSH1 0x40 MLOAD PUSH3 0x461BCD PUSH1 0xE5 SHL DUP2 MSTORE PUSH1 0x4 ADD PUSH2 0x6A1 SWAP1 PUSH2 0x2F02 JUMP JUMPDEST PUSH1 0x0 DUP3 GT PUSH2 0x1A1A JUMPI PUSH1 0x40 MLOAD PUSH4 0x7B4631C5 PUSH1 0xE1 SHL DUP2 MSTORE PUSH1 0x4 ADD PUSH1 0x40 MLOAD DUP1 SWAP2 SUB SWAP1 REVERT JUMPDEST PUSH1 0x0 DUP2 GT PUSH2 0x1A3B JUMPI PUSH1 0x40 MLOAD PUSH4 0x4B0BE531 PUSH1 0xE1 SHL DUP2 MSTORE PUSH1 0x4 ADD PUSH1 0x40 MLOAD DUP1 SWAP2 SUB SWAP1 REVERT JUMPDEST PUSH1 0x5 PUSH2 0x1A47 DUP3 DUP5 PUSH2 0x2F64 JUMP JUMPDEST LT ISZERO DUP1 PUSH2 0x1A55 JUMPI POP PUSH1 0x5 DUP3 LT ISZERO JUMPDEST ISZERO PUSH2 0x1A73 JUMPI PUSH1 0x40 MLOAD PUSH4 0x61B23CA7 PUSH1 0xE1 SHL DUP2 MSTORE PUSH1 0x4 ADD PUSH1 0x40 MLOAD DUP1 SWAP2 SUB SWAP1 REVERT JUMPDEST PUSH1 0x5 SWAP2 SWAP1 SWAP2 SSTORE PUSH1 0x6 SSTORE JUMP JUMPDEST PUSH1 0x0 SLOAD PUSH1 0x1 PUSH1 0x1 PUSH1 0xA0 SHL SUB AND CALLER EQ PUSH2 0x1AA8 JUMPI PUSH1 0x40 MLOAD PUSH3 0x461BCD PUSH1 0xE5 SHL DUP2 MSTORE PUSH1 0x4 ADD PUSH2 0x6A1 SWAP1 PUSH2 0x2F02 JUMP JUMPDEST PUSH1 0x2 PUSH1 0x1 SLOAD SUB PUSH2 0x1ACA JUMPI PUSH1 0x40 MLOAD PUSH3 0x461BCD PUSH1 0xE5 SHL DUP2 MSTORE PUSH1 0x4 ADD PUSH2 0x6A1 SWAP1 PUSH2 0x2F86 JUMP JUMPDEST PUSH1 0x2 PUSH1 0x1 SWAP1 DUP2 SSTORE PUSH1 0x1 PUSH1 0x1 PUSH1 0xA0 SHL SUB SWAP1 SWAP2 AND PUSH1 0x0 SWAP1 DUP2 MSTORE PUSH1 0x8 PUSH1 0x20 MSTORE PUSH1 0x40 SWAP1 KECCAK256 DUP1 SLOAD PUSH1 0xFF NOT AND SWAP1 SSTORE DUP1 SSTORE JUMP JUMPDEST PUSH1 0x1 PUSH1 0x1 PUSH1 0xA0 SHL SUB DUP2 AND PUSH1 0x0 SWAP1 DUP2 MSTORE PUSH1 0x9 PUSH1 0x20 MSTORE PUSH1 0x40 DUP2 KECCAK256 SLOAD PUSH1 0xFF AND ISZERO PUSH2 0x1B1F JUMPI POP PUSH1 0x0 PUSH2 0x9AA JUMP JUMPDEST PUSH1 0x0 PUSH2 0x1B29 PUSH2 0x1FE1 JUMP JUMPDEST SWAP1 POP PUSH1 0x0 PUSH2 0x90A DUP7 PUSH2 0x21B7 JUMP JUMPDEST CALLER PUSH1 0x0 SWAP1 DUP2 MSTORE PUSH1 0xE PUSH1 0x20 MSTORE PUSH1 0x40 SWAP1 KECCAK256 SLOAD PUSH1 0xFF AND ISZERO ISZERO PUSH1 0x1 EQ PUSH2 0x1B6B JUMPI PUSH1 0x40 MLOAD PUSH4 0x3D78CD9B PUSH1 0xE1 SHL DUP2 MSTORE PUSH1 0x4 ADD PUSH1 0x40 MLOAD DUP1 SWAP2 SUB SWAP1 REVERT JUMPDEST PUSH1 0x2 PUSH1 0x1 SLOAD SUB PUSH2 0x1B8D JUMPI PUSH1 0x40 MLOAD PUSH3 0x461BCD PUSH1 0xE5 SHL DUP2 MSTORE PUSH1 0x4 ADD PUSH2 0x6A1 SWAP1 PUSH2 0x2F86 JUMP JUMPDEST PUSH1 0x2 PUSH1 0x1 SSTORE PUSH1 0x40 MLOAD PUSH4 0x70A08231 PUSH1 0xE0 SHL DUP2 MSTORE ADDRESS PUSH1 0x4 DUP3 ADD MSTORE DUP2 SWAP1 PUSH2 0x1C13 SWAP1 CALLER SWAP1 PUSH1 0x1 PUSH1 0x1 PUSH1 0xA0 SHL SUB DUP5 AND SWAP1 PUSH4 0x70A08231 SWAP1 PUSH1 0x24 ADD PUSH1 0x20 PUSH1 0x40 MLOAD DUP1 DUP4 SUB DUP2 DUP7 GAS STATICCALL ISZERO DUP1 ISZERO PUSH2 0x1BDE JUMPI RETURNDATASIZE PUSH1 0x0 DUP1 RETURNDATACOPY RETURNDATASIZE PUSH1 0x0 REVERT JUMPDEST POP POP POP POP PUSH1 0x40 MLOAD RETURNDATASIZE PUSH1 0x1F NOT PUSH1 0x1F DUP3 ADD AND DUP3 ADD DUP1 PUSH1 0x40 MSTORE POP DUP2 ADD SWAP1 PUSH2 0x1C02 SWAP2 SWAP1 PUSH2 0x3100 JUMP JUMPDEST PUSH1 0x1 PUSH1 0x1 PUSH1 0xA0 SHL SUB DUP5 AND SWAP2 SWAP1 PUSH2 0x21EA JUMP JUMPDEST POP POP PUSH1 0x1 DUP1 SSTORE JUMP JUMPDEST PUSH1 0x2 PUSH1 0x1 SLOAD SUB PUSH2 0x1C3D JUMPI PUSH1 0x40 MLOAD PUSH3 0x461BCD PUSH1 0xE5 SHL DUP2 MSTORE PUSH1 0x4 ADD PUSH2 0x6A1 SWAP1 PUSH2 0x2F86 JUMP JUMPDEST PUSH1 0x2 PUSH1 0x1 DUP2 SWAP1 SSTORE POP PUSH1 0x0 PUSH2 0x1C55 PUSH1 0x2 DUP7 CALLVALUE DUP8 DUP8 PUSH2 0x1F58 JUMP JUMPDEST POP SWAP1 POP PUSH2 0x1C64 DUP5 CALLER DUP8 DUP7 PUSH2 0x20B9 JUMP JUMPDEST DUP3 PUSH1 0x1 PUSH1 0x1 PUSH1 0xA0 SHL SUB AND CALLER PUSH1 0x1 PUSH1 0x1 PUSH1 0xA0 SHL SUB AND DUP7 PUSH1 0x1 PUSH1 0x1 PUSH1 0xA0 SHL SUB AND PUSH1 0x0 DUP1 MLOAD PUSH1 0x20 PUSH2 0x3383 DUP4 CODECOPY DUP2 MLOAD SWAP2 MSTORE DUP6 PUSH1 0x2 DUP10 PUSH1 0x1 DUP9 PUSH1 0x40 MLOAD PUSH2 0x1CA9 SWAP6 SWAP5 SWAP4 SWAP3 SWAP2 SWAP1 PUSH2 0x2FBD JUMP JUMPDEST PUSH1 0x40 MLOAD DUP1 SWAP2 SUB SWAP1 LOG4 POP POP PUSH1 0x1 DUP1 SSTORE POP POP POP JUMP JUMPDEST PUSH1 0x0 SLOAD PUSH1 0x1 PUSH1 0x1 PUSH1 0xA0 SHL SUB AND CALLER EQ PUSH2 0x1CE6 JUMPI PUSH1 0x40 MLOAD PUSH3 0x461BCD PUSH1 0xE5 SHL DUP2 MSTORE PUSH1 0x4 ADD PUSH2 0x6A1 SWAP1 PUSH2 0x2F02 JUMP JUMPDEST PUSH1 0x2 PUSH1 0x1 SLOAD SUB PUSH2 0x1D08 JUMPI PUSH1 0x40 MLOAD PUSH3 0x461BCD PUSH1 0xE5 SHL DUP2 MSTORE PUSH1 0x4 ADD PUSH2 0x6A1 SWAP1 PUSH2 0x2F86 JUMP JUMPDEST PUSH1 0x2 PUSH1 0x1 SWAP1 DUP2 SSTORE PUSH1 0x1 PUSH1 0x1 PUSH1 0xA0 SHL SUB SWAP1 SWAP2 AND PUSH1 0x0 SWAP1 DUP2 MSTORE PUSH1 0x9 PUSH1 0x20 MSTORE PUSH1 0x40 SWAP1 KECCAK256 DUP1 SLOAD PUSH1 0xFF NOT AND SWAP1 SSTORE DUP1 SSTORE JUMP JUMPDEST PUSH1 0x0 SLOAD PUSH1 0x1 PUSH1 0x1 PUSH1 0xA0 SHL SUB AND CALLER EQ PUSH2 0x1D5E JUMPI PUSH1 0x40 MLOAD PUSH3 0x461BCD PUSH1 0xE5 SHL DUP2 MSTORE PUSH1 0x4 ADD PUSH2 0x6A1 SWAP1 PUSH2 0x2F02 JUMP JUMPDEST PUSH1 0x2 PUSH1 0x1 SLOAD SUB PUSH2 0x1D80 JUMPI PUSH1 0x40 MLOAD PUSH3 0x461BCD PUSH1 0xE5 SHL DUP2 MSTORE PUSH1 0x4 ADD PUSH2 0x6A1 SWAP1 PUSH2 0x2F86 JUMP JUMPDEST PUSH1 0x2 PUSH1 0x1 SWAP1 DUP2 SSTORE PUSH1 0x1 PUSH1 0x1 PUSH1 0xA0 SHL SUB SWAP1 SWAP2 AND PUSH1 0x0 SWAP1 DUP2 MSTORE PUSH1 0x8 PUSH1 0x20 MSTORE PUSH1 0x40 SWAP1 KECCAK256 DUP1 SLOAD PUSH1 0xFF NOT AND DUP3 OR SWAP1 SSTORE DUP1 SSTORE JUMP JUMPDEST PUSH1 0x0 SLOAD PUSH1 0x1 PUSH1 0x1 PUSH1 0xA0 SHL SUB AND CALLER EQ PUSH2 0x1DD8 JUMPI PUSH1 0x40 MLOAD PUSH3 0x461BCD PUSH1 0xE5 SHL DUP2 MSTORE PUSH1 0x4 ADD PUSH2 0x6A1 SWAP1 PUSH2 0x2F02 JUMP JUMPDEST PUSH1 0x1 PUSH1 0x1 PUSH1 0xA0 SHL SUB DUP2 AND PUSH2 0x1E3D JUMPI PUSH1 0x40 MLOAD PUSH3 0x461BCD PUSH1 0xE5 SHL DUP2 MSTORE PUSH1 0x20 PUSH1 0x4 DUP3 ADD MSTORE PUSH1 0x26 PUSH1 0x24 DUP3 ADD MSTORE PUSH32 0x4F776E61626C653A206E6577206F776E657220697320746865207A65726F2061 PUSH1 0x44 DUP3 ADD MSTORE PUSH6 0x646472657373 PUSH1 0xD0 SHL PUSH1 0x64 DUP3 ADD MSTORE PUSH1 0x84 ADD PUSH2 0x6A1 JUMP JUMPDEST PUSH2 0x1E46 DUP2 PUSH2 0x224D JUMP JUMPDEST POP JUMP JUMPDEST PUSH1 0x40 MLOAD PUSH4 0x70A08231 PUSH1 0xE0 SHL DUP2 MSTORE PUSH1 0x1 PUSH1 0x1 PUSH1 0xA0 SHL SUB DUP4 DUP2 AND PUSH1 0x4 DUP4 ADD MSTORE PUSH1 0x0 SWAP2 DUP4 SWAP2 DUP4 SWAP2 SWAP1 DUP4 AND SWAP1 PUSH4 0x70A08231 SWAP1 PUSH1 0x24 ADD PUSH1 0x20 PUSH1 0x40 MLOAD DUP1 DUP4 SUB DUP2 DUP7 GAS STATICCALL ISZERO DUP1 ISZERO PUSH2 0x1E97 JUMPI RETURNDATASIZE PUSH1 0x0 DUP1 RETURNDATACOPY RETURNDATASIZE PUSH1 0x0 REVERT JUMPDEST POP POP POP POP PUSH1 0x40 MLOAD RETURNDATASIZE PUSH1 0x1F NOT PUSH1 0x1F DUP3 ADD AND DUP3 ADD DUP1 PUSH1 0x40 MSTORE POP DUP2 ADD SWAP1 PUSH2 0x1EBB SWAP2 SWAP1 PUSH2 0x3100 JUMP JUMPDEST SWAP1 POP PUSH2 0x1ED2 PUSH1 0x1 PUSH1 0x1 PUSH1 0xA0 SHL SUB DUP4 AND DUP8 DUP8 DUP11 PUSH2 0x229D JUMP JUMPDEST PUSH1 0x40 MLOAD PUSH4 0x70A08231 PUSH1 0xE0 SHL DUP2 MSTORE PUSH1 0x1 PUSH1 0x1 PUSH1 0xA0 SHL SUB DUP7 DUP2 AND PUSH1 0x4 DUP4 ADD MSTORE PUSH1 0x0 SWAP2 SWAP1 DUP5 AND SWAP1 PUSH4 0x70A08231 SWAP1 PUSH1 0x24 ADD PUSH1 0x20 PUSH1 0x40 MLOAD DUP1 DUP4 SUB DUP2 DUP7 GAS STATICCALL ISZERO DUP1 ISZERO PUSH2 0x1F1C JUMPI RETURNDATASIZE PUSH1 0x0 DUP1 RETURNDATACOPY RETURNDATASIZE PUSH1 0x0 REVERT JUMPDEST POP POP POP POP PUSH1 0x40 MLOAD RETURNDATASIZE PUSH1 0x1F NOT PUSH1 0x1F DUP3 ADD AND DUP3 ADD DUP1 PUSH1 0x40 MSTORE POP DUP2 ADD SWAP1 PUSH2 0x1F40 SWAP2 SWAP1 PUSH2 0x3100 JUMP JUMPDEST SWAP1 POP PUSH2 0x1F4C DUP3 DUP3 PUSH2 0x3119 JUMP JUMPDEST SWAP9 SWAP8 POP POP POP POP POP POP POP POP JUMP JUMPDEST PUSH1 0x1 PUSH1 0x1 PUSH1 0xA0 SHL SUB DUP5 AND PUSH1 0x0 SWAP1 DUP2 MSTORE PUSH1 0x9 PUSH1 0x20 MSTORE PUSH1 0x40 DUP2 KECCAK256 SLOAD DUP2 SWAP1 PUSH1 0xFF AND ISZERO PUSH2 0x1FAD JUMPI PUSH32 0x0 ISZERO PUSH2 0x1FAD JUMPI PUSH2 0x1FAD DUP7 DUP5 DUP8 DUP8 PUSH2 0x22D5 JUMP JUMPDEST PUSH2 0x1FB8 DUP6 DUP9 DUP9 PUSH2 0x242F JUMP JUMPDEST SWAP1 SWAP9 SWAP1 SWAP8 POP SWAP6 POP POP POP POP POP POP JUMP JUMPDEST DUP1 PUSH2 0x1FDB PUSH1 0x1 PUSH1 0x1 PUSH1 0xA0 SHL SUB DUP3 AND DUP5 DUP7 PUSH2 0x21EA JUMP JUMPDEST POP POP POP POP JUMP JUMPDEST PUSH1 0x0 PUSH32 0x0 ISZERO PUSH2 0x2016 JUMPI PUSH2 0x2011 PUSH2 0x2578 JUMP JUMPDEST SWAP1 POP SWAP1 JUMP JUMPDEST POP PUSH1 0x5 SLOAD SWAP1 JUMP JUMPDEST PUSH1 0x0 PUSH1 0x4 SLOAD PUSH1 0x3 SLOAD DUP4 PUSH2 0x2030 SWAP2 SWAP1 PUSH2 0x2F4D JUMP JUMPDEST PUSH2 0x203A SWAP2 SWAP1 PUSH2 0x2F64 JUMP JUMPDEST SWAP3 SWAP2 POP POP JUMP JUMPDEST PUSH1 0x0 DUP3 PUSH1 0x1 PUSH1 0x1 PUSH1 0xA0 SHL SUB AND DUP3 PUSH1 0x40 MLOAD PUSH1 0x0 PUSH1 0x40 MLOAD DUP1 DUP4 SUB DUP2 DUP6 DUP8 GAS CALL SWAP3 POP POP POP RETURNDATASIZE DUP1 PUSH1 0x0 DUP2 EQ PUSH2 0x208D JUMPI PUSH1 0x40 MLOAD SWAP2 POP PUSH1 0x1F NOT PUSH1 0x3F RETURNDATASIZE ADD AND DUP3 ADD PUSH1 0x40 MSTORE RETURNDATASIZE DUP3 MSTORE RETURNDATASIZE PUSH1 0x0 PUSH1 0x20 DUP5 ADD RETURNDATACOPY PUSH2 0x2092 JUMP JUMPDEST PUSH1 0x60 SWAP2 POP JUMPDEST POP POP SWAP1 POP DUP1 PUSH2 0x20B4 JUMPI PUSH1 0x40 MLOAD PUSH4 0x3E1EE4EB PUSH1 0xE1 SHL DUP2 MSTORE PUSH1 0x4 ADD PUSH1 0x40 MLOAD DUP1 SWAP2 SUB SWAP1 REVERT JUMPDEST POP POP POP JUMP JUMPDEST PUSH1 0x40 MLOAD PUSH4 0x23B872DD PUSH1 0xE0 SHL DUP2 MSTORE PUSH1 0x1 PUSH1 0x1 PUSH1 0xA0 SHL SUB DUP5 DUP2 AND PUSH1 0x4 DUP4 ADD MSTORE DUP4 DUP2 AND PUSH1 0x24 DUP4 ADD MSTORE PUSH1 0x44 DUP3 ADD DUP7 SWAP1 MSTORE DUP3 SWAP2 SWAP1 DUP3 AND SWAP1 PUSH4 0x23B872DD SWAP1 PUSH1 0x64 ADD PUSH1 0x0 PUSH1 0x40 MLOAD DUP1 DUP4 SUB DUP2 PUSH1 0x0 DUP8 DUP1 EXTCODESIZE ISZERO DUP1 ISZERO PUSH2 0x210E JUMPI PUSH1 0x0 DUP1 REVERT JUMPDEST POP GAS CALL ISZERO DUP1 ISZERO PUSH2 0x2122 JUMPI RETURNDATASIZE PUSH1 0x0 DUP1 RETURNDATACOPY RETURNDATASIZE PUSH1 0x0 REVERT JUMPDEST POP POP POP POP POP POP POP POP POP JUMP JUMPDEST PUSH1 0x40 MLOAD PUSH4 0x79212195 PUSH1 0xE1 SHL DUP2 MSTORE PUSH1 0x1 PUSH1 0x1 PUSH1 0xA0 SHL SUB DUP5 DUP2 AND PUSH1 0x4 DUP4 ADD MSTORE DUP4 DUP2 AND PUSH1 0x24 DUP4 ADD MSTORE PUSH1 0x44 DUP3 ADD DUP8 SWAP1 MSTORE PUSH1 0x64 DUP3 ADD DUP7 SWAP1 MSTORE PUSH1 0xA0 PUSH1 0x84 DUP4 ADD MSTORE PUSH1 0x0 PUSH1 0xA4 DUP4 ADD MSTORE DUP3 SWAP2 SWAP1 DUP3 AND SWAP1 PUSH4 0xF242432A SWAP1 PUSH1 0xC4 ADD PUSH1 0x0 PUSH1 0x40 MLOAD DUP1 DUP4 SUB DUP2 PUSH1 0x0 DUP8 DUP1 EXTCODESIZE ISZERO DUP1 ISZERO PUSH2 0x2197 JUMPI PUSH1 0x0 DUP1 REVERT JUMPDEST POP GAS CALL ISZERO DUP1 ISZERO PUSH2 0x21AB JUMPI RETURNDATASIZE PUSH1 0x0 DUP1 RETURNDATACOPY RETURNDATASIZE PUSH1 0x0 REVERT JUMPDEST POP POP POP POP POP POP POP POP POP POP JUMP JUMPDEST PUSH1 0x0 PUSH1 0x3 SLOAD PUSH1 0x4 SLOAD PUSH2 0x21C9 SWAP2 SWAP1 PUSH2 0x3031 JUMP JUMPDEST PUSH1 0x4 SLOAD PUSH2 0x21D6 SWAP1 DUP5 PUSH2 0x2F4D JUMP JUMPDEST PUSH2 0x21E0 SWAP2 SWAP1 PUSH2 0x2F64 JUMP JUMPDEST PUSH2 0x203A SWAP1 DUP4 PUSH2 0x3119 JUMP JUMPDEST PUSH1 0x40 MLOAD PUSH1 0x1 PUSH1 0x1 PUSH1 0xA0 SHL SUB DUP4 AND PUSH1 0x24 DUP3 ADD MSTORE PUSH1 0x44 DUP2 ADD DUP3 SWAP1 MSTORE PUSH2 0x20B4 SWAP1 DUP5 SWAP1 PUSH4 0xA9059CBB PUSH1 0xE0 SHL SWAP1 PUSH1 0x64 ADD JUMPDEST PUSH1 0x40 DUP1 MLOAD PUSH1 0x1F NOT DUP2 DUP5 SUB ADD DUP2 MSTORE SWAP2 SWAP1 MSTORE PUSH1 0x20 DUP2 ADD DUP1 MLOAD PUSH1 0x1 PUSH1 0x1 PUSH1 0xE0 SHL SUB AND PUSH1 0x1 PUSH1 0x1 PUSH1 0xE0 SHL SUB NOT SWAP1 SWAP4 AND SWAP3 SWAP1 SWAP3 OR SWAP1 SWAP2 MSTORE PUSH2 0x259C JUMP JUMPDEST PUSH1 0x0 DUP1 SLOAD PUSH1 0x1 PUSH1 0x1 PUSH1 0xA0 SHL SUB DUP4 DUP2 AND PUSH1 0x1 PUSH1 0x1 PUSH1 0xA0 SHL SUB NOT DUP4 AND DUP2 OR DUP5 SSTORE PUSH1 0x40 MLOAD SWAP2 SWAP1 SWAP3 AND SWAP3 DUP4 SWAP2 PUSH32 0x8BE0079C531659141344CD1FD0A4F28419497F9722A3DAAFE3B4186F6B6457E0 SWAP2 SWAP1 LOG3 POP POP JUMP JUMPDEST PUSH1 0x40 MLOAD PUSH1 0x1 PUSH1 0x1 PUSH1 0xA0 SHL SUB DUP1 DUP6 AND PUSH1 0x24 DUP4 ADD MSTORE DUP4 AND PUSH1 0x44 DUP3 ADD MSTORE PUSH1 0x64 DUP2 ADD DUP3 SWAP1 MSTORE PUSH2 0x1FDB SWAP1 DUP6 SWAP1 PUSH4 0x23B872DD PUSH1 0xE0 SHL SWAP1 PUSH1 0x84 ADD PUSH2 0x2216 JUMP JUMPDEST PUSH32 0x0 PUSH1 0x1 PUSH1 0x1 PUSH1 0xA0 SHL SUB AND PUSH4 0xF17325E7 PUSH1 0x40 MLOAD DUP1 PUSH1 0x40 ADD PUSH1 0x40 MSTORE DUP1 PUSH32 0x0 DUP2 MSTORE PUSH1 0x20 ADD PUSH1 0x40 MLOAD DUP1 PUSH1 0xC0 ADD PUSH1 0x40 MSTORE DUP1 CALLER PUSH1 0x1 PUSH1 0x1 PUSH1 0xA0 SHL SUB AND DUP2 MSTORE PUSH1 0x20 ADD PUSH1 0x0 PUSH8 0xFFFFFFFFFFFFFFFF AND DUP2 MSTORE PUSH1 0x20 ADD PUSH1 0x0 ISZERO ISZERO DUP2 MSTORE PUSH1 0x20 ADD PUSH1 0x0 DUP1 SHL DUP2 MSTORE PUSH1 0x20 ADD DUP10 DUP10 DUP10 DUP10 PUSH1 0x40 MLOAD PUSH1 0x20 ADD PUSH2 0x23AD SWAP5 SWAP4 SWAP3 SWAP2 SWAP1 PUSH1 0x1 PUSH1 0x1 PUSH1 0xA0 SHL SUB SWAP5 DUP6 AND DUP2 MSTORE SWAP3 SWAP1 SWAP4 AND PUSH1 0x20 DUP4 ADD MSTORE PUSH1 0x40 DUP3 ADD MSTORE PUSH1 0x60 DUP2 ADD SWAP2 SWAP1 SWAP2 MSTORE PUSH1 0x80 ADD SWAP1 JUMP JUMPDEST PUSH1 0x40 MLOAD PUSH1 0x20 DUP2 DUP4 SUB SUB DUP2 MSTORE SWAP1 PUSH1 0x40 MSTORE DUP2 MSTORE PUSH1 0x20 ADD PUSH1 0x0 DUP2 MSTORE POP DUP2 MSTORE POP PUSH1 0x40 MLOAD DUP3 PUSH4 0xFFFFFFFF AND PUSH1 0xE0 SHL DUP2 MSTORE PUSH1 0x4 ADD PUSH2 0x23E5 SWAP2 SWAP1 PUSH2 0x312C JUMP JUMPDEST PUSH1 0x20 PUSH1 0x40 MLOAD DUP1 DUP4 SUB DUP2 PUSH1 0x0 DUP8 GAS CALL ISZERO DUP1 ISZERO PUSH2 0x2404 JUMPI RETURNDATASIZE PUSH1 0x0 DUP1 RETURNDATACOPY RETURNDATASIZE PUSH1 0x0 REVERT JUMPDEST POP POP POP POP PUSH1 0x40 MLOAD RETURNDATASIZE PUSH1 0x1F NOT PUSH1 0x1F DUP3 ADD AND DUP3 ADD DUP1 PUSH1 0x40 MSTORE POP DUP2 ADD SWAP1 PUSH2 0x2428 SWAP2 SWAP1 PUSH2 0x3100 JUMP JUMPDEST POP POP POP POP POP JUMP JUMPDEST PUSH1 0x0 DUP1 PUSH1 0x0 PUSH2 0x243C PUSH2 0x1FE1 JUMP JUMPDEST SWAP1 POP PUSH1 0x0 PUSH2 0x244B DUP8 DUP8 DUP8 PUSH2 0x1AF6 JUMP JUMPDEST SWAP1 POP PUSH1 0x0 PUSH1 0x7 PUSH1 0x0 DUP9 PUSH1 0x4 DUP2 GT ISZERO PUSH2 0x2465 JUMPI PUSH2 0x2465 PUSH2 0x2CD2 JUMP JUMPDEST PUSH1 0x4 DUP2 GT ISZERO PUSH2 0x2476 JUMPI PUSH2 0x2476 PUSH2 0x2CD2 JUMP JUMPDEST DUP2 MSTORE PUSH1 0x20 DUP2 ADD SWAP2 SWAP1 SWAP2 MSTORE PUSH1 0x40 ADD PUSH1 0x0 KECCAK256 SLOAD PUSH1 0xFF AND PUSH1 0x2 DUP2 GT ISZERO PUSH2 0x249B JUMPI PUSH2 0x249B PUSH2 0x2CD2 JUMP JUMPDEST EQ ISZERO DUP1 ISZERO PUSH2 0x24C9 JUMPI POP PUSH1 0x64 PUSH2 0x24B1 PUSH1 0x5 DUP3 PUSH2 0x3119 JUMP JUMPDEST PUSH2 0x24BB SWAP1 DUP5 PUSH2 0x2F4D JUMP JUMPDEST PUSH2 0x24C5 SWAP2 SWAP1 PUSH2 0x2F64 JUMP JUMPDEST DUP8 LT ISZERO JUMPDEST DUP1 ISZERO PUSH2 0x24D5 JUMPI POP DUP2 DUP8 GT ISZERO JUMPDEST ISZERO PUSH2 0x24E2 JUMPI DUP7 SWAP4 POP PUSH2 0x24E6 JUMP JUMPDEST DUP1 SWAP4 POP JUMPDEST DUP4 DUP8 LT ISZERO PUSH2 0x2506 JUMPI PUSH1 0x40 MLOAD PUSH3 0xB9D9CB PUSH1 0xE1 SHL DUP2 MSTORE PUSH1 0x4 ADD PUSH1 0x40 MLOAD DUP1 SWAP2 SUB SWAP1 REVERT JUMPDEST PUSH1 0x0 PUSH1 0x7 PUSH1 0x0 DUP9 PUSH1 0x4 DUP2 GT ISZERO PUSH2 0x251E JUMPI PUSH2 0x251E PUSH2 0x2CD2 JUMP JUMPDEST PUSH1 0x4 DUP2 GT ISZERO PUSH2 0x252F JUMPI PUSH2 0x252F PUSH2 0x2CD2 JUMP JUMPDEST DUP2 MSTORE PUSH1 0x20 DUP2 ADD SWAP2 SWAP1 SWAP2 MSTORE PUSH1 0x40 ADD PUSH1 0x0 KECCAK256 SLOAD PUSH1 0xFF AND PUSH1 0x2 DUP2 GT ISZERO PUSH2 0x2554 JUMPI PUSH2 0x2554 PUSH2 0x2CD2 JUMP JUMPDEST SUB PUSH2 0x256A JUMPI PUSH2 0x2563 DUP5 DUP9 PUSH2 0x3119 JUMP JUMPDEST SWAP3 POP PUSH2 0x256E JUMP JUMPDEST DUP7 SWAP3 POP JUMPDEST POP POP SWAP4 POP SWAP4 SWAP2 POP POP JUMP JUMPDEST PUSH1 0x0 PUSH1 0x6 SLOAD PUSH1 0x5 SLOAD PUSH2 0x2588 PUSH2 0x266E JUMP JUMPDEST PUSH2 0x2592 SWAP2 SWAP1 PUSH2 0x2F4D JUMP JUMPDEST PUSH2 0x2011 SWAP2 SWAP1 PUSH2 0x2F64 JUMP JUMPDEST PUSH1 0x0 PUSH2 0x25F1 DUP3 PUSH1 0x40 MLOAD DUP1 PUSH1 0x40 ADD PUSH1 0x40 MSTORE DUP1 PUSH1 0x20 DUP2 MSTORE PUSH1 0x20 ADD PUSH32 0x5361666545524332303A206C6F772D6C6576656C2063616C6C206661696C6564 DUP2 MSTORE POP DUP6 PUSH1 0x1 PUSH1 0x1 PUSH1 0xA0 SHL SUB AND PUSH2 0x2936 SWAP1 SWAP3 SWAP2 SWAP1 PUSH4 0xFFFFFFFF AND JUMP JUMPDEST DUP1 MLOAD SWAP1 SWAP2 POP ISZERO PUSH2 0x20B4 JUMPI DUP1 DUP1 PUSH1 0x20 ADD SWAP1 MLOAD DUP2 ADD SWAP1 PUSH2 0x260F SWAP2 SWAP1 PUSH2 0x31AF JUMP JUMPDEST PUSH2 0x20B4 JUMPI PUSH1 0x40 MLOAD PUSH3 0x461BCD PUSH1 0xE5 SHL DUP2 MSTORE PUSH1 0x20 PUSH1 0x4 DUP3 ADD MSTORE PUSH1 0x2A PUSH1 0x24 DUP3 ADD MSTORE PUSH32 0x5361666545524332303A204552433230206F7065726174696F6E20646964206E PUSH1 0x44 DUP3 ADD MSTORE PUSH10 0x1BDD081CDD58D8D95959 PUSH1 0xB2 SHL PUSH1 0x64 DUP3 ADD MSTORE PUSH1 0x84 ADD PUSH2 0x6A1 JUMP JUMPDEST PUSH1 0xB SLOAD PUSH1 0xC SLOAD PUSH1 0x0 SWAP2 SWAP1 DUP3 SWAP1 PUSH2 0x2685 SWAP1 PUSH1 0xA PUSH2 0x32B5 JUMP JUMPDEST SWAP1 POP PUSH32 0x0 PUSH1 0x1 PUSH1 0x1 PUSH1 0xA0 SHL SUB AND PUSH4 0xFEAF968C PUSH1 0x40 MLOAD DUP2 PUSH4 0xFFFFFFFF AND PUSH1 0xE0 SHL DUP2 MSTORE PUSH1 0x4 ADD PUSH1 0xA0 PUSH1 0x40 MLOAD DUP1 DUP4 SUB DUP2 DUP7 GAS STATICCALL SWAP3 POP POP POP DUP1 ISZERO PUSH2 0x2701 JUMPI POP PUSH1 0x40 DUP1 MLOAD PUSH1 0x1F RETURNDATASIZE SWAP1 DUP2 ADD PUSH1 0x1F NOT AND DUP3 ADD SWAP1 SWAP3 MSTORE PUSH2 0x26FE SWAP2 DUP2 ADD SWAP1 PUSH2 0x32DB JUMP JUMPDEST PUSH1 0x1 JUMPDEST ISZERO PUSH2 0x2916 JUMPI PUSH1 0x0 DUP5 SGT DUP1 ISZERO PUSH2 0x2715 JUMPI POP DUP2 ISZERO ISZERO JUMPDEST DUP1 ISZERO PUSH2 0x272C JUMPI POP PUSH1 0xA SLOAD PUSH2 0x2729 DUP4 TIMESTAMP PUSH2 0x3119 JUMP JUMPDEST GT ISZERO JUMPDEST ISZERO PUSH2 0x2910 JUMPI PUSH1 0xD SLOAD PUSH1 0xFF AND ISZERO PUSH2 0x287D JUMPI PUSH32 0x0 PUSH1 0x1 PUSH1 0x1 PUSH1 0xA0 SHL SUB AND PUSH4 0xFEAF968C PUSH1 0x40 MLOAD DUP2 PUSH4 0xFFFFFFFF AND PUSH1 0xE0 SHL DUP2 MSTORE PUSH1 0x4 ADD PUSH1 0xA0 PUSH1 0x40 MLOAD DUP1 DUP4 SUB DUP2 DUP7 GAS STATICCALL SWAP3 POP POP POP DUP1 ISZERO PUSH2 0x27B6 JUMPI POP PUSH1 0x40 DUP1 MLOAD PUSH1 0x1F RETURNDATASIZE SWAP1 DUP2 ADD PUSH1 0x1F NOT AND DUP3 ADD SWAP1 SWAP3 MSTORE PUSH2 0x27B3 SWAP2 DUP2 ADD SWAP1 PUSH2 0x32DB JUMP JUMPDEST PUSH1 0x1 JUMPDEST ISZERO PUSH2 0x2910 JUMPI DUP4 ISZERO PUSH1 0x0 PUSH2 0x27C9 DUP6 TIMESTAMP PUSH2 0x3119 JUMP JUMPDEST SWAP1 POP DUP2 DUP1 ISZERO PUSH2 0x27D9 JUMPI POP PUSH1 0xA SLOAD DUP2 GT JUMPDEST ISZERO PUSH2 0x2871 JUMPI DUP11 SWAP14 POP PUSH32 0x0 PUSH1 0x1 PUSH1 0x1 PUSH1 0xA0 SHL SUB AND PUSH4 0x313CE567 PUSH1 0x40 MLOAD DUP2 PUSH4 0xFFFFFFFF AND PUSH1 0xE0 SHL DUP2 MSTORE PUSH1 0x4 ADD PUSH1 0x20 PUSH1 0x40 MLOAD DUP1 DUP4 SUB DUP2 DUP7 GAS STATICCALL ISZERO DUP1 ISZERO PUSH2 0x283F JUMPI RETURNDATASIZE PUSH1 0x0 DUP1 RETURNDATACOPY RETURNDATASIZE PUSH1 0x0 REVERT JUMPDEST POP POP POP POP PUSH1 0x40 MLOAD RETURNDATASIZE PUSH1 0x1F NOT PUSH1 0x1F DUP3 ADD AND DUP3 ADD DUP1 PUSH1 0x40 MSTORE POP DUP2 ADD SWAP1 PUSH2 0x2863 SWAP2 SWAP1 PUSH2 0x332B JUMP JUMPDEST PUSH2 0x286E SWAP1 PUSH1 0xA PUSH2 0x334E JUMP JUMPDEST SWAP13 POP JUMPDEST POP POP POP POP POP POP POP PUSH2 0x2910 JUMP JUMPDEST DUP4 SWAP7 POP PUSH32 0x0 PUSH1 0x1 PUSH1 0x1 PUSH1 0xA0 SHL SUB AND PUSH4 0x313CE567 PUSH1 0x40 MLOAD DUP2 PUSH4 0xFFFFFFFF AND PUSH1 0xE0 SHL DUP2 MSTORE PUSH1 0x4 ADD PUSH1 0x20 PUSH1 0x40 MLOAD DUP1 DUP4 SUB DUP2 DUP7 GAS STATICCALL ISZERO DUP1 ISZERO PUSH2 0x28DE JUMPI RETURNDATASIZE PUSH1 0x0 DUP1 RETURNDATACOPY RETURNDATASIZE PUSH1 0x0 REVERT JUMPDEST POP POP POP POP PUSH1 0x40 MLOAD RETURNDATASIZE PUSH1 0x1F NOT PUSH1 0x1F DUP3 ADD AND DUP3 ADD DUP1 PUSH1 0x40 MSTORE POP DUP2 ADD SWAP1 PUSH2 0x2902 SWAP2 SWAP1 PUSH2 0x332B JUMP JUMPDEST PUSH2 0x290D SWAP1 PUSH1 0xA PUSH2 0x334E JUMP JUMPDEST SWAP6 POP JUMPDEST POP POP POP POP POP JUMPDEST DUP2 DUP2 PUSH1 0x2 SLOAD PUSH2 0x2925 SWAP2 SWAP1 PUSH2 0x2F4D JUMP JUMPDEST PUSH2 0x292F SWAP2 SWAP1 PUSH2 0x2F64 JUMP JUMPDEST SWAP3 POP POP POP SWAP1 JUMP JUMPDEST PUSH1 0x60 PUSH2 0x2945 DUP5 DUP5 PUSH1 0x0 DUP6 PUSH2 0x294D JUMP JUMPDEST SWAP5 SWAP4 POP POP POP POP JUMP JUMPDEST PUSH1 0x60 DUP3 SELFBALANCE LT ISZERO PUSH2 0x29AE JUMPI PUSH1 0x40 MLOAD PUSH3 0x461BCD PUSH1 0xE5 SHL DUP2 MSTORE PUSH1 0x20 PUSH1 0x4 DUP3 ADD MSTORE PUSH1 0x26 PUSH1 0x24 DUP3 ADD MSTORE PUSH32 0x416464726573733A20696E73756666696369656E742062616C616E636520666F PUSH1 0x44 DUP3 ADD MSTORE PUSH6 0x1C8818D85B1B PUSH1 0xD2 SHL PUSH1 0x64 DUP3 ADD MSTORE PUSH1 0x84 ADD PUSH2 0x6A1 JUMP JUMPDEST DUP5 EXTCODESIZE PUSH2 0x29FC JUMPI PUSH1 0x40 MLOAD PUSH3 0x461BCD PUSH1 0xE5 SHL DUP2 MSTORE PUSH1 0x20 PUSH1 0x4 DUP3 ADD MSTORE PUSH1 0x1D PUSH1 0x24 DUP3 ADD MSTORE PUSH32 0x416464726573733A2063616C6C20746F206E6F6E2D636F6E7472616374000000 PUSH1 0x44 DUP3 ADD MSTORE PUSH1 0x64 ADD PUSH2 0x6A1 JUMP JUMPDEST PUSH1 0x0 DUP1 DUP7 PUSH1 0x1 PUSH1 0x1 PUSH1 0xA0 SHL SUB AND DUP6 DUP8 PUSH1 0x40 MLOAD PUSH2 0x2A18 SWAP2 SWAP1 PUSH2 0x335D JUMP JUMPDEST PUSH1 0x0 PUSH1 0x40 MLOAD DUP1 DUP4 SUB DUP2 DUP6 DUP8 GAS CALL SWAP3 POP POP POP RETURNDATASIZE DUP1 PUSH1 0x0 DUP2 EQ PUSH2 0x2A55 JUMPI PUSH1 0x40 MLOAD SWAP2 POP PUSH1 0x1F NOT PUSH1 0x3F RETURNDATASIZE ADD AND DUP3 ADD PUSH1 0x40 MSTORE RETURNDATASIZE DUP3 MSTORE RETURNDATASIZE PUSH1 0x0 PUSH1 0x20 DUP5 ADD RETURNDATACOPY PUSH2 0x2A5A JUMP JUMPDEST PUSH1 0x60 SWAP2 POP JUMPDEST POP SWAP2 POP SWAP2 POP PUSH2 0x2A6A DUP3 DUP3 DUP7 PUSH2 0x2A75 JUMP JUMPDEST SWAP8 SWAP7 POP POP POP POP POP POP POP JUMP JUMPDEST PUSH1 0x60 DUP4 ISZERO PUSH2 0x2A84 JUMPI POP DUP2 PUSH2 0x9AA JUMP JUMPDEST DUP3 MLOAD ISZERO PUSH2 0x2A94 JUMPI DUP3 MLOAD DUP1 DUP5 PUSH1 0x20 ADD REVERT JUMPDEST DUP2 PUSH1 0x40 MLOAD PUSH3 0x461BCD PUSH1 0xE5 SHL DUP2 MSTORE PUSH1 0x4 ADD PUSH2 0x6A1 SWAP2 SWAP1 PUSH2 0x336F JUMP JUMPDEST PUSH1 0x0 DUP1 PUSH1 0x40 DUP4 DUP6 SUB SLT ISZERO PUSH2 0x2AC1 JUMPI PUSH1 0x0 DUP1 REVERT JUMPDEST POP POP DUP1 CALLDATALOAD SWAP3 PUSH1 0x20 SWAP1 SWAP2 ADD CALLDATALOAD SWAP2 POP JUMP JUMPDEST DUP1 CALLDATALOAD PUSH1 0x1 PUSH1 0x1 PUSH1 0xA0 SHL SUB DUP2 AND DUP2 EQ PUSH2 0x2AE7 JUMPI PUSH1 0x0 DUP1 REVERT JUMPDEST SWAP2 SWAP1 POP JUMP JUMPDEST PUSH4 0x4E487B71 PUSH1 0xE0 SHL PUSH1 0x0 MSTORE PUSH1 0x41 PUSH1 0x4 MSTORE PUSH1 0x24 PUSH1 0x0 REVERT JUMPDEST PUSH1 0x0 DUP3 PUSH1 0x1F DUP4 ADD SLT PUSH2 0x2B13 JUMPI PUSH1 0x0 DUP1 REVERT JUMPDEST DUP2 CALLDATALOAD PUSH8 0xFFFFFFFFFFFFFFFF DUP1 DUP3 GT ISZERO PUSH2 0x2B2E JUMPI PUSH2 0x2B2E PUSH2 0x2AEC JUMP JUMPDEST PUSH1 0x40 MLOAD PUSH1 0x1F DUP4 ADD PUSH1 0x1F NOT SWAP1 DUP2 AND PUSH1 0x3F ADD AND DUP2 ADD SWAP1 DUP3 DUP3 GT DUP2 DUP4 LT OR ISZERO PUSH2 0x2B56 JUMPI PUSH2 0x2B56 PUSH2 0x2AEC JUMP JUMPDEST DUP2 PUSH1 0x40 MSTORE DUP4 DUP2 MSTORE DUP7 PUSH1 0x20 DUP6 DUP9 ADD ADD GT ISZERO PUSH2 0x2B6F JUMPI PUSH1 0x0 DUP1 REVERT JUMPDEST DUP4 PUSH1 0x20 DUP8 ADD PUSH1 0x20 DUP4 ADD CALLDATACOPY PUSH1 0x0 PUSH1 0x20 DUP6 DUP4 ADD ADD MSTORE DUP1 SWAP5 POP POP POP POP POP SWAP3 SWAP2 POP POP JUMP JUMPDEST PUSH1 0x0 DUP1 PUSH1 0x0 DUP1 PUSH1 0x80 DUP6 DUP8 SUB SLT ISZERO PUSH2 0x2BA5 JUMPI PUSH1 0x0 DUP1 REVERT JUMPDEST PUSH2 0x2BAE DUP6 PUSH2 0x2AD0 JUMP JUMPDEST SWAP4 POP PUSH1 0x20 DUP6 ADD CALLDATALOAD SWAP3 POP PUSH2 0x2BC3 PUSH1 0x40 DUP7 ADD PUSH2 0x2AD0 JUMP JUMPDEST SWAP2 POP PUSH1 0x60 DUP6 ADD CALLDATALOAD PUSH8 0xFFFFFFFFFFFFFFFF DUP2 GT ISZERO PUSH2 0x2BDF JUMPI PUSH1 0x0 DUP1 REVERT JUMPDEST PUSH2 0x2BEB DUP8 DUP3 DUP9 ADD PUSH2 0x2B02 JUMP JUMPDEST SWAP2 POP POP SWAP3 SWAP6 SWAP2 SWAP5 POP SWAP3 POP JUMP JUMPDEST PUSH1 0x0 PUSH1 0x20 DUP3 DUP5 SUB SLT ISZERO PUSH2 0x2C09 JUMPI PUSH1 0x0 DUP1 REVERT JUMPDEST PUSH2 0x9AA DUP3 PUSH2 0x2AD0 JUMP JUMPDEST DUP1 CALLDATALOAD PUSH1 0x5 DUP2 LT PUSH2 0x2AE7 JUMPI PUSH1 0x0 DUP1 REVERT JUMPDEST PUSH1 0x0 DUP1 PUSH1 0x0 PUSH1 0x60 DUP5 DUP7 SUB SLT ISZERO PUSH2 0x2C36 JUMPI PUSH1 0x0 DUP1 REVERT JUMPDEST DUP4 CALLDATALOAD SWAP3 POP PUSH2 0x2C46 PUSH1 0x20 DUP6 ADD PUSH2 0x2C12 JUMP JUMPDEST SWAP2 POP PUSH2 0x2C54 PUSH1 0x40 DUP6 ADD PUSH2 0x2AD0 JUMP JUMPDEST SWAP1 POP SWAP3 POP SWAP3 POP SWAP3 JUMP JUMPDEST PUSH1 0x0 DUP1 PUSH1 0x20 DUP4 DUP6 SUB SLT ISZERO PUSH2 0x2C70 JUMPI PUSH1 0x0 DUP1 REVERT JUMPDEST DUP3 CALLDATALOAD PUSH8 0xFFFFFFFFFFFFFFFF DUP1 DUP3 GT ISZERO PUSH2 0x2C88 JUMPI PUSH1 0x0 DUP1 REVERT JUMPDEST DUP2 DUP6 ADD SWAP2 POP DUP6 PUSH1 0x1F DUP4 ADD SLT PUSH2 0x2C9C JUMPI PUSH1 0x0 DUP1 REVERT JUMPDEST DUP2 CALLDATALOAD DUP2 DUP2 GT ISZERO PUSH2 0x2CAB JUMPI PUSH1 0x0 DUP1 REVERT JUMPDEST DUP7 PUSH1 0x20 DUP3 PUSH1 0x5 SHL DUP6 ADD ADD GT ISZERO PUSH2 0x2CC0 JUMPI PUSH1 0x0 DUP1 REVERT JUMPDEST PUSH1 0x20 SWAP3 SWAP1 SWAP3 ADD SWAP7 SWAP2 SWAP6 POP SWAP1 SWAP4 POP POP POP POP JUMP JUMPDEST PUSH4 0x4E487B71 PUSH1 0xE0 SHL PUSH1 0x0 MSTORE PUSH1 0x21 PUSH1 0x4 MSTORE PUSH1 0x24 PUSH1 0x0 REVERT JUMPDEST PUSH1 0x5 DUP2 LT PUSH2 0x2CF8 JUMPI PUSH2 0x2CF8 PUSH2 0x2CD2 JUMP JUMPDEST SWAP1 MSTORE JUMP JUMPDEST PUSH1 0x0 JUMPDEST DUP4 DUP2 LT ISZERO PUSH2 0x2D17 JUMPI DUP2 DUP2 ADD MLOAD DUP4 DUP3 ADD MSTORE PUSH1 0x20 ADD PUSH2 0x2CFF JUMP JUMPDEST POP POP PUSH1 0x0 SWAP2 ADD MSTORE JUMP JUMPDEST PUSH1 0x0 DUP2 MLOAD DUP1 DUP5 MSTORE PUSH2 0x2D38 DUP2 PUSH1 0x20 DUP7 ADD PUSH1 0x20 DUP7 ADD PUSH2 0x2CFC JUMP JUMPDEST PUSH1 0x1F ADD PUSH1 0x1F NOT AND SWAP3 SWAP1 SWAP3 ADD PUSH1 0x20 ADD SWAP3 SWAP2 POP POP JUMP JUMPDEST PUSH1 0x0 PUSH1 0x20 DUP1 DUP4 ADD DUP2 DUP5 MSTORE DUP1 DUP6 MLOAD DUP1 DUP4 MSTORE PUSH1 0x40 SWAP3 POP DUP3 DUP7 ADD SWAP2 POP DUP3 DUP2 PUSH1 0x5 SHL DUP8 ADD ADD DUP5 DUP9 ADD PUSH1 0x0 JUMPDEST DUP4 DUP2 LT ISZERO PUSH2 0x2DFF JUMPI PUSH1 0x3F NOT DUP10 DUP5 SUB ADD DUP6 MSTORE DUP2 MLOAD PUSH1 0xE0 PUSH2 0x2D93 DUP6 DUP4 MLOAD PUSH2 0x2CE8 JUMP JUMPDEST DUP2 DUP10 ADD MLOAD PUSH1 0x1 PUSH1 0x1 PUSH1 0xA0 SHL SUB SWAP1 DUP2 AND DUP7 DUP12 ADD MSTORE DUP9 DUP4 ADD MLOAD DUP10 DUP8 ADD MSTORE PUSH1 0x60 DUP1 DUP5 ADD MLOAD SWAP1 DUP8 ADD MSTORE PUSH1 0x80 DUP1 DUP5 ADD MLOAD SWAP1 SWAP2 AND SWAP1 DUP7 ADD MSTORE PUSH1 0xA0 DUP1 DUP4 ADD MLOAD DUP7 DUP3 ADD DUP4 SWAP1 MSTORE PUSH2 0x2DDD DUP4 DUP9 ADD DUP3 PUSH2 0x2D20 JUMP JUMPDEST PUSH1 0xC0 SWAP5 DUP6 ADD MLOAD SWAP8 SWAP1 SWAP5 ADD SWAP7 SWAP1 SWAP7 MSTORE POP POP SWAP5 DUP8 ADD SWAP5 SWAP3 POP SWAP1 DUP7 ADD SWAP1 PUSH1 0x1 ADD PUSH2 0x2D73 JUMP JUMPDEST POP SWAP1 SWAP9 SWAP8 POP POP POP POP POP POP POP POP JUMP JUMPDEST PUSH1 0x0 DUP1 PUSH1 0x40 DUP4 DUP6 SUB SLT ISZERO PUSH2 0x2E20 JUMPI PUSH1 0x0 DUP1 REVERT JUMPDEST PUSH2 0x2E29 DUP4 PUSH2 0x2AD0 JUMP JUMPDEST SWAP2 POP PUSH1 0x20 DUP4 ADD CALLDATALOAD PUSH8 0xFFFFFFFFFFFFFFFF DUP2 GT ISZERO PUSH2 0x2E45 JUMPI PUSH1 0x0 DUP1 REVERT JUMPDEST PUSH2 0x2E51 DUP6 DUP3 DUP7 ADD PUSH2 0x2B02 JUMP JUMPDEST SWAP2 POP POP SWAP3 POP SWAP3 SWAP1 POP JUMP JUMPDEST PUSH1 0x0 DUP1 PUSH1 0x0 DUP1 PUSH1 0x0 PUSH1 0xA0 DUP7 DUP9 SUB SLT ISZERO PUSH2 0x2E73 JUMPI PUSH1 0x0 DUP1 REVERT JUMPDEST PUSH2 0x2E7C DUP7 PUSH2 0x2AD0 JUMP JUMPDEST SWAP5 POP PUSH1 0x20 DUP7 ADD CALLDATALOAD SWAP4 POP PUSH1 0x40 DUP7 ADD CALLDATALOAD SWAP3 POP PUSH2 0x2E98 PUSH1 0x60 DUP8 ADD PUSH2 0x2AD0 JUMP JUMPDEST SWAP2 POP PUSH1 0x80 DUP7 ADD CALLDATALOAD PUSH8 0xFFFFFFFFFFFFFFFF DUP2 GT ISZERO PUSH2 0x2EB4 JUMPI PUSH1 0x0 DUP1 REVERT JUMPDEST PUSH2 0x2EC0 DUP9 DUP3 DUP10 ADD PUSH2 0x2B02 JUMP JUMPDEST SWAP2 POP POP SWAP3 SWAP6 POP SWAP3 SWAP6 SWAP1 SWAP4 POP JUMP JUMPDEST PUSH1 0x0 PUSH1 0x20 DUP3 DUP5 SUB SLT ISZERO PUSH2 0x2EDF JUMPI PUSH1 0x0 DUP1 REVERT JUMPDEST PUSH2 0x9AA DUP3 PUSH2 0x2C12 JUMP JUMPDEST PUSH1 0x20 DUP2 ADD PUSH1 0x3 DUP4 LT PUSH2 0x2EFC JUMPI PUSH2 0x2EFC PUSH2 0x2CD2 JUMP JUMPDEST SWAP2 SWAP1 MSTORE SWAP1 JUMP JUMPDEST PUSH1 0x20 DUP1 DUP3 MSTORE DUP2 DUP2 ADD MSTORE PUSH32 0x4F776E61626C653A2063616C6C6572206973206E6F7420746865206F776E6572 PUSH1 0x40 DUP3 ADD MSTORE PUSH1 0x60 ADD SWAP1 JUMP JUMPDEST PUSH4 0x4E487B71 PUSH1 0xE0 SHL PUSH1 0x0 MSTORE PUSH1 0x11 PUSH1 0x4 MSTORE PUSH1 0x24 PUSH1 0x0 REVERT JUMPDEST DUP1 DUP3 MUL DUP2 ISZERO DUP3 DUP3 DIV DUP5 EQ OR PUSH2 0x203A JUMPI PUSH2 0x203A PUSH2 0x2F37 JUMP JUMPDEST PUSH1 0x0 DUP3 PUSH2 0x2F81 JUMPI PUSH4 0x4E487B71 PUSH1 0xE0 SHL PUSH1 0x0 MSTORE PUSH1 0x12 PUSH1 0x4 MSTORE PUSH1 0x24 PUSH1 0x0 REVERT JUMPDEST POP DIV SWAP1 JUMP JUMPDEST PUSH1 0x20 DUP1 DUP3 MSTORE PUSH1 0x1F SWAP1 DUP3 ADD MSTORE PUSH32 0x5265656E7472616E637947756172643A207265656E7472616E742063616C6C00 PUSH1 0x40 DUP3 ADD MSTORE PUSH1 0x60 ADD SWAP1 JUMP JUMPDEST PUSH1 0xA0 DUP2 MSTORE PUSH1 0x0 PUSH2 0x2FD0 PUSH1 0xA0 DUP4 ADD DUP9 PUSH2 0x2D20 JUMP JUMPDEST SWAP1 POP PUSH2 0x2FDF PUSH1 0x20 DUP4 ADD DUP8 PUSH2 0x2CE8 JUMP JUMPDEST DUP5 PUSH1 0x40 DUP4 ADD MSTORE DUP4 PUSH1 0x60 DUP4 ADD MSTORE DUP3 PUSH1 0x80 DUP4 ADD MSTORE SWAP7 SWAP6 POP POP POP POP POP POP JUMP JUMPDEST PUSH4 0x4E487B71 PUSH1 0xE0 SHL PUSH1 0x0 MSTORE PUSH1 0x32 PUSH1 0x4 MSTORE PUSH1 0x24 PUSH1 0x0 REVERT JUMPDEST PUSH1 0x0 DUP3 CALLDATALOAD PUSH1 0xBE NOT DUP4 CALLDATASIZE SUB ADD DUP2 SLT PUSH2 0x3027 JUMPI PUSH1 0x0 DUP1 REVERT JUMPDEST SWAP2 SWAP1 SWAP2 ADD SWAP3 SWAP2 POP POP JUMP JUMPDEST DUP1 DUP3 ADD DUP1 DUP3 GT ISZERO PUSH2 0x203A JUMPI PUSH2 0x203A PUSH2 0x2F37 JUMP JUMPDEST PUSH1 0x0 DUP1 DUP4 CALLDATALOAD PUSH1 0x1E NOT DUP5 CALLDATASIZE SUB ADD DUP2 SLT PUSH2 0x305B JUMPI PUSH1 0x0 DUP1 REVERT JUMPDEST DUP4 ADD DUP1 CALLDATALOAD SWAP2 POP PUSH8 0xFFFFFFFFFFFFFFFF DUP3 GT ISZERO PUSH2 0x3076 JUMPI PUSH1 0x0 DUP1 REVERT JUMPDEST PUSH1 0x20 ADD SWAP2 POP CALLDATASIZE DUP2 SWAP1 SUB DUP3 SGT ISZERO PUSH2 0x308B JUMPI PUSH1 0x0 DUP1 REVERT JUMPDEST SWAP3 POP SWAP3 SWAP1 POP JUMP JUMPDEST PUSH1 0xA0 DUP2 MSTORE DUP6 PUSH1 0xA0 DUP3 ADD MSTORE DUP6 DUP8 PUSH1 0xC0 DUP4 ADD CALLDATACOPY PUSH1 0x0 PUSH1 0xC0 DUP8 DUP4 ADD ADD MSTORE PUSH1 0x0 PUSH1 0xC0 PUSH1 0x1F NOT PUSH1 0x1F DUP10 ADD AND DUP4 ADD ADD SWAP1 POP PUSH2 0x30CA PUSH1 0x20 DUP4 ADD DUP8 PUSH2 0x2CE8 JUMP JUMPDEST DUP5 PUSH1 0x40 DUP4 ADD MSTORE DUP4 PUSH1 0x60 DUP4 ADD MSTORE DUP3 PUSH1 0x80 DUP4 ADD MSTORE SWAP8 SWAP7 POP POP POP POP POP POP POP JUMP JUMPDEST PUSH1 0x0 PUSH1 0x1 DUP3 ADD PUSH2 0x30F9 JUMPI PUSH2 0x30F9 PUSH2 0x2F37 JUMP JUMPDEST POP PUSH1 0x1 ADD SWAP1 JUMP JUMPDEST PUSH1 0x0 PUSH1 0x20 DUP3 DUP5 SUB SLT ISZERO PUSH2 0x3112 JUMPI PUSH1 0x0 DUP1 REVERT JUMPDEST POP MLOAD SWAP2 SWAP1 POP JUMP JUMPDEST DUP2 DUP2 SUB DUP2 DUP2 GT ISZERO PUSH2 0x203A JUMPI PUSH2 0x203A PUSH2 0x2F37 JUMP JUMPDEST PUSH1 0x20 DUP2 MSTORE DUP2 MLOAD PUSH1 0x20 DUP3 ADD MSTORE PUSH1 0x0 PUSH1 0x20 DUP4 ADD MLOAD PUSH1 0x40 DUP1 DUP5 ADD MSTORE PUSH1 0x1 DUP1 PUSH1 0xA0 SHL SUB DUP2 MLOAD AND PUSH1 0x60 DUP5 ADD MSTORE PUSH8 0xFFFFFFFFFFFFFFFF PUSH1 0x20 DUP3 ADD MLOAD AND PUSH1 0x80 DUP5 ADD MSTORE PUSH1 0x40 DUP2 ADD MLOAD ISZERO ISZERO PUSH1 0xA0 DUP5 ADD MSTORE PUSH1 0x60 DUP2 ADD MLOAD PUSH1 0xC0 DUP5 ADD MSTORE PUSH1 0x80 DUP2 ADD MLOAD PUSH1 0xC0 PUSH1 0xE0 DUP6 ADD MSTORE PUSH2 0x3197 PUSH2 0x120 DUP6 ADD DUP3 PUSH2 0x2D20 JUMP JUMPDEST SWAP1 POP PUSH1 0xA0 DUP3 ADD MLOAD PUSH2 0x100 DUP6 ADD MSTORE DUP1 SWAP3 POP POP POP SWAP3 SWAP2 POP POP JUMP JUMPDEST PUSH1 0x0 PUSH1 0x20 DUP3 DUP5 SUB SLT ISZERO PUSH2 0x31C1 JUMPI PUSH1 0x0 DUP1 REVERT JUMPDEST DUP2 MLOAD DUP1 ISZERO ISZERO DUP2 EQ PUSH2 0x9AA JUMPI PUSH1 0x0 DUP1 REVERT JUMPDEST PUSH1 0x1 DUP2 DUP2 JUMPDEST DUP1 DUP6 GT ISZERO PUSH2 0x320C JUMPI DUP2 PUSH1 0x0 NOT DIV DUP3 GT ISZERO PUSH2 0x31F2 JUMPI PUSH2 0x31F2 PUSH2 0x2F37 JUMP JUMPDEST DUP1 DUP6 AND ISZERO PUSH2 0x31FF JUMPI SWAP2 DUP2 MUL SWAP2 JUMPDEST SWAP4 DUP5 SHR SWAP4 SWAP1 DUP1 MUL SWAP1 PUSH2 0x31D6 JUMP JUMPDEST POP SWAP3 POP SWAP3 SWAP1 POP JUMP JUMPDEST PUSH1 0x0 DUP3 PUSH2 0x3223 JUMPI POP PUSH1 0x1 PUSH2 0x203A JUMP JUMPDEST DUP2 PUSH2 0x3230 JUMPI POP PUSH1 0x0 PUSH2 0x203A JUMP JUMPDEST DUP2 PUSH1 0x1 DUP2 EQ PUSH2 0x3246 JUMPI PUSH1 0x2 DUP2 EQ PUSH2 0x3250 JUMPI PUSH2 0x326C JUMP JUMPDEST PUSH1 0x1 SWAP2 POP POP PUSH2 0x203A JUMP JUMPDEST PUSH1 0xFF DUP5 GT ISZERO PUSH2 0x3261 JUMPI PUSH2 0x3261 PUSH2 0x2F37 JUMP JUMPDEST POP POP PUSH1 0x1 DUP3 SHL PUSH2 0x203A JUMP JUMPDEST POP PUSH1 0x20 DUP4 LT PUSH2 0x133 DUP4 LT AND PUSH1 0x4E DUP5 LT PUSH1 0xB DUP5 LT AND OR ISZERO PUSH2 0x328F JUMPI POP DUP2 DUP2 EXP PUSH2 0x203A JUMP JUMPDEST PUSH2 0x3299 DUP4 DUP4 PUSH2 0x31D1 JUMP JUMPDEST DUP1 PUSH1 0x0 NOT DIV DUP3 GT ISZERO PUSH2 0x32AD JUMPI PUSH2 0x32AD PUSH2 0x2F37 JUMP JUMPDEST MUL SWAP4 SWAP3 POP POP POP JUMP JUMPDEST PUSH1 0x0 PUSH2 0x9AA DUP4 DUP4 PUSH2 0x3214 JUMP JUMPDEST DUP1 MLOAD PUSH10 0xFFFFFFFFFFFFFFFFFFFF DUP2 AND DUP2 EQ PUSH2 0x2AE7 JUMPI PUSH1 0x0 DUP1 REVERT JUMPDEST PUSH1 0x0 DUP1 PUSH1 0x0 DUP1 PUSH1 0x0 PUSH1 0xA0 DUP7 DUP9 SUB SLT ISZERO PUSH2 0x32F3 JUMPI PUSH1 0x0 DUP1 REVERT JUMPDEST PUSH2 0x32FC DUP7 PUSH2 0x32C1 JUMP JUMPDEST SWAP5 POP PUSH1 0x20 DUP7 ADD MLOAD SWAP4 POP PUSH1 0x40 DUP7 ADD MLOAD SWAP3 POP PUSH1 0x60 DUP7 ADD MLOAD SWAP2 POP PUSH2 0x331F PUSH1 0x80 DUP8 ADD PUSH2 0x32C1 JUMP JUMPDEST SWAP1 POP SWAP3 SWAP6 POP SWAP3 SWAP6 SWAP1 SWAP4 POP JUMP JUMPDEST PUSH1 0x0 PUSH1 0x20 DUP3 DUP5 SUB SLT ISZERO PUSH2 0x333D JUMPI PUSH1 0x0 DUP1 REVERT JUMPDEST DUP2 MLOAD PUSH1 0xFF DUP2 AND DUP2 EQ PUSH2 0x9AA JUMPI PUSH1 0x0 DUP1 REVERT JUMPDEST PUSH1 0x0 PUSH2 0x9AA PUSH1 0xFF DUP5 AND DUP4 PUSH2 0x3214 JUMP JUMPDEST PUSH1 0x0 DUP3 MLOAD PUSH2 0x3027 DUP2 DUP5 PUSH1 0x20 DUP8 ADD PUSH2 0x2CFC JUMP JUMPDEST PUSH1 0x20 DUP2 MSTORE PUSH1 0x0 PUSH2 0x9AA PUSH1 0x20 DUP4 ADD DUP5 PUSH2 0x2D20 JUMP INVALID 0xCC 0xDB 0xCE BASEFEE 0xC0 0xB5 0xE9 SELFBALANCE 0xC2 0xB4 0x2F 0xBD DELEGATECALL 0xC INVALID BLOCKHASH 0xFB SWAP14 PUSH12 0x6C9BB1879D7C032D9B9C9E5E ADDRESS LOG2 PUSH5 0x6970667358 0x22 SLT KECCAK256 0xB8 0xD PUSH25 0x8C19F6CA1D1E9772ABB29AD2D3F6FD00DFAB785A492F081B0D EXP LOG4 0xA5 0x25 PUSH5 0x736F6C6343 STOP ADDMOD SGT STOP CALLER "},"methodIdentifiers":{"EAS_SCHEMA()":"25705f8b","FALLBACK_DECIMALS()":"e3ed7809","FALLBACK_PRICE()":"6ebe413e","FEE_TYPE_MAPPING(uint8)":"c550403f","MINIMAL_PAYMENT_FEE()":"0f7f630a","MINIMAL_PAYMENT_FEE_DENOMINATOR()":"27cb0ba1","NATIVE_USD_STALE_THRESHOLD()":"e4bbdc73","NATIVE_WEI_MULTIPLIER()":"f2339fe8","PAYMENT_FEE_PERCENTAGE()":"5c73f163","PAYMENT_FEE_PERCENTAGE_DENOMINATOR()":"03f613dc","PAYMENT_FEE_SLIPPAGE_PERCENT()":"83a4c7e1","addAdmin(address)":"70480275","addPublicGood(address)":"5cfdb086","addSupportedERC20(address)":"d73acee5","admins(address)":"429b62e5","batchSendTo((uint8,address,uint256,uint256,address,string)[])":"44a8b1c6","calculateBatchFee((uint8,address,uint256,uint256,address,string)[])":"464108cd","changeMinimalPaymentFee(uint256,uint256)":"80fa375f","changePaymentFeePercentage(uint256,uint256)":"0728c7d2","checkSequencer()":"dc8daf93","deleteAdmin(address)":"27e1f7df","deletePublicGood(address)":"b20d0bff","deleteSupportedERC20(address)":"81967267","getPaymentFee(uint256,uint8,address)":"39c1c403","getPaymentFeePost(uint256,uint8,address)":"834907b2","owner()":"8da5cb5b","publicGoods(address)":"82313032","renounceOwnership()":"715018a6","sendERC1155To(address,uint256,uint256,address,string)":"7129607a","sendERC20To(address,uint256,address,string)":"15c6d01e","sendERC721To(address,uint256,address,string)":"8d157db8","sendNativeTo(address,string)":"5a7754d3","supportedERC20(address)":"9332c37b","transferOwnership(address)":"f2fde38b","withdraw()":"3ccfd60b","withdrawToken(address)":"89476069"}}}}}