{
  "_format": "hh-sol-artifact-1",
  "contractName": "MaticPriceAggregatorV3Mock",
  "sourceName": "src/contracts/mocks/MaticPriceAggregatorV3Mock.sol",
  "abi": [
    {
      "inputs": [],
      "name": "decimals",
      "outputs": [
        {
          "internalType": "uint8",
          "name": "",
          "type": "uint8"
        }
      ],
      "stateMutability": "pure",
      "type": "function"
    },
    {
      "inputs": [],
      "name": "description",
      "outputs": [
        {
          "internalType": "string",
          "name": "",
          "type": "string"
        }
      ],
      "stateMutability": "pure",
      "type": "function"
    },
    {
      "inputs": [],
      "name": "dollarToWei",
      "outputs": [
        {
          "internalType": "uint256",
          "name": "",
          "type": "uint256"
        }
      ],
      "stateMutability": "view",
      "type": "function"
    },
    {
      "inputs": [
        {
          "internalType": "uint80",
          "name": "",
          "type": "uint80"
        }
      ],
      "name": "getRoundData",
      "outputs": [
        {
          "internalType": "uint80",
          "name": "roundId",
          "type": "uint80"
        },
        {
          "internalType": "int256",
          "name": "answer",
          "type": "int256"
        },
        {
          "internalType": "uint256",
          "name": "startedAt",
          "type": "uint256"
        },
        {
          "internalType": "uint256",
          "name": "updatedAt",
          "type": "uint256"
        },
        {
          "internalType": "uint80",
          "name": "answeredInRound",
          "type": "uint80"
        }
      ],
      "stateMutability": "view",
      "type": "function"
    },
    {
      "inputs": [],
      "name": "latestRoundData",
      "outputs": [
        {
          "internalType": "uint80",
          "name": "roundId",
          "type": "uint80"
        },
        {
          "internalType": "int256",
          "name": "answer",
          "type": "int256"
        },
        {
          "internalType": "uint256",
          "name": "startedAt",
          "type": "uint256"
        },
        {
          "internalType": "uint256",
          "name": "updatedAt",
          "type": "uint256"
        },
        {
          "internalType": "uint80",
          "name": "answeredInRound",
          "type": "uint80"
        }
      ],
      "stateMutability": "view",
      "type": "function"
    },
    {
      "inputs": [
        {
          "internalType": "int256",
          "name": "_price",
          "type": "int256"
        }
      ],
      "name": "setPrice",
      "outputs": [],
      "stateMutability": "nonpayable",
      "type": "function"
    },
    {
      "inputs": [],
      "name": "version",
      "outputs": [
        {
          "internalType": "uint256",
          "name": "",
          "type": "uint256"
        }
      ],
      "stateMutability": "pure",
      "type": "function"
    }
  ],
  "bytecode": "0x60806040526305a995c060005534801561001857600080fd5b50610475806100286000396000f3fe608060405234801561001057600080fd5b506004361061007d5760003560e01c80638234e68c1161005b5780638234e68c146100da5780639a6fc8f5146100e2578063f7a308061461012c578063feaf968c1461014157600080fd5b8063313ce5671461008257806354fd4d50146100965780637284e416146100a7575b600080fd5b604051600881526020015b60405180910390f35b60035b60405190815260200161008d565b60408051808201825260118152704d41544943202d3e20555344204d6f636b60781b6020820152905161008d9190610245565b610099610149565b6100f56100f0366004610293565b6101e2565b6040805169ffffffffffffffffffff968716815260208101959095528401929092526060830152909116608082015260a00161008d565b61013f61013a3660046102c6565b600055565b005b6100f5610214565b600080610154610214565b505050915050600081136101ae5760405162461bcd60e51b815260206004820152601f60248201527f556e61626c6520746f207265747269657665204d415449432070726963652e00604482015260640160405180910390fd5b60006101bc6008600a6103db565b9050816101d182670de0b6b3a76400006103ea565b6101db9190610417565b9250505090565b600080808080806101fd69ffffffffffffffffffff4361042b565b600054909890975042965086955088945092505050565b6000808080808061022f69ffffffffffffffffffff4361042b565b6000549097909650429550859450879350915050565b600060208083528351808285015260005b8181101561027257858101830151858201604001528201610256565b506000604082860101526040601f19601f8301168501019250505092915050565b6000602082840312156102a557600080fd5b813569ffffffffffffffffffff811681146102bf57600080fd5b9392505050565b6000602082840312156102d857600080fd5b5035919050565b634e487b7160e01b600052601160045260246000fd5b600181815b80851115610330578160001904821115610316576103166102df565b8085161561032357918102915b93841c93908002906102fa565b509250929050565b600082610347575060016103d5565b81610354575060006103d5565b816001811461036a576002811461037457610390565b60019150506103d5565b60ff841115610385576103856102df565b50506001821b6103d5565b5060208310610133831016604e8410600b84101617156103b3575081810a6103d5565b6103bd83836102f5565b80600019048211156103d1576103d16102df565b0290505b92915050565b60006102bf60ff841683610338565b80820281158282048414176103d5576103d56102df565b634e487b7160e01b600052601260045260246000fd5b60008261042657610426610401565b500490565b60008261043a5761043a610401565b50069056fea26469706673582212205835846e161391bef7879889bea861eb1d9620235c2bd2f0d24a120b7177d5dd64736f6c63430008130033",
  "linkReferences": {},
  "deployedLinkReferences": {}
}