{
  "_format": "hh-sol-artifact-1",
  "contractName": "Tipping",
  "sourceName": "src/contracts/Tipping.sol",
  "abi": [
    {
      "inputs": [
        {
          "internalType": "bool",
          "name": "_supportsChainlink",
          "type": "bool"
        },
        {
          "internalType": "bool",
          "name": "_supportsEAS",
          "type": "bool"
        },
        {
          "internalType": "address",
          "name": "_nativeUsdAggregator",
          "type": "address"
        },
        {
          "internalType": "address",
          "name": "_sequencerAddress",
          "type": "address"
        },
        {
          "internalType": "uint256",
          "name": "_stalenessThreshold",
          "type": "uint256"
        },
        {
          "internalType": "int256",
          "name": "_fallbackPrice",
          "type": "int256"
        },
        {
          "internalType": "uint256",
          "name": "_fallbackDecimals",
          "type": "uint256"
        },
        {
          "internalType": "address",
          "name": "_eas",
          "type": "address"
        },
        {
          "internalType": "bytes32",
          "name": "_easSchema",
          "type": "bytes32"
        }
      ],
      "stateMutability": "nonpayable",
      "type": "constructor"
    },
    {
      "inputs": [],
      "name": "AddressIsNull",
      "type": "error"
    },
    {
      "inputs": [],
      "name": "CoinSendFailed",
      "type": "error"
    },
    {
      "inputs": [],
      "name": "DenominatorTooSmall",
      "type": "error"
    },
    {
      "inputs": [
        {
          "internalType": "uint256",
          "name": "value",
          "type": "uint256"
        },
        {
          "internalType": "uint256",
          "name": "fee",
          "type": "uint256"
        },
        {
          "internalType": "uint256",
          "name": "msg",
          "type": "uint256"
        }
      ],
      "name": "FeeHigherThanProvidedNativeCurrency",
      "type": "error"
    },
    {
      "inputs": [],
      "name": "InvalidEAS",
      "type": "error"
    },
    {
      "inputs": [],
      "name": "MinimalFeePercentageTooBig",
      "type": "error"
    },
    {
      "inputs": [],
      "name": "MinimalFeeTooBig",
      "type": "error"
    },
    {
      "inputs": [],
      "name": "OnlyAdminCanWithdraw",
      "type": "error"
    },
    {
      "inputs": [],
      "name": "PayingWithNative",
      "type": "error"
    },
    {
      "inputs": [],
      "name": "PaymentFeeTooSmall",
      "type": "error"
    },
    {
      "inputs": [],
      "name": "PercentageFeeTooSmall",
      "type": "error"
    },
    {
      "inputs": [],
      "name": "RenounceOwnershipNotAllowed",
      "type": "error"
    },
    {
      "inputs": [],
      "name": "UnsupportedAssetType",
      "type": "error"
    },
    {
      "inputs": [],
      "name": "UnsupportedAssetType",
      "type": "error"
    },
    {
      "inputs": [],
      "name": "ValueSentTooSmall",
      "type": "error"
    },
    {
      "inputs": [],
      "name": "WithdrawFailed",
      "type": "error"
    },
    {
      "anonymous": false,
      "inputs": [
        {
          "indexed": false,
          "internalType": "string",
          "name": "reason",
          "type": "string"
        },
        {
          "indexed": false,
          "internalType": "uint256",
          "name": "fee",
          "type": "uint256"
        }
      ],
      "name": "BatchFee",
      "type": "event"
    },
    {
      "anonymous": false,
      "inputs": [
        {
          "indexed": false,
          "internalType": "string",
          "name": "reason",
          "type": "string"
        }
      ],
      "name": "OracleFailed",
      "type": "event"
    },
    {
      "anonymous": false,
      "inputs": [
        {
          "indexed": true,
          "internalType": "address",
          "name": "previousOwner",
          "type": "address"
        },
        {
          "indexed": true,
          "internalType": "address",
          "name": "newOwner",
          "type": "address"
        }
      ],
      "name": "OwnershipTransferred",
      "type": "event"
    },
    {
      "anonymous": false,
      "inputs": [
        {
          "indexed": true,
          "internalType": "address",
          "name": "recipientAddress",
          "type": "address"
        },
        {
          "indexed": false,
          "internalType": "string",
          "name": "message",
          "type": "string"
        },
        {
          "indexed": true,
          "internalType": "address",
          "name": "sender",
          "type": "address"
        },
        {
          "indexed": false,
          "internalType": "enum AssetType",
          "name": "assetType",
          "type": "uint8"
        },
        {
          "indexed": true,
          "internalType": "address",
          "name": "tokenAddress",
          "type": "address"
        },
        {
          "indexed": false,
          "internalType": "uint256",
          "name": "tokenId",
          "type": "uint256"
        },
        {
          "indexed": false,
          "internalType": "uint256",
          "name": "amount",
          "type": "uint256"
        },
        {
          "indexed": false,
          "internalType": "uint256",
          "name": "fee",
          "type": "uint256"
        }
      ],
      "name": "TipMessage",
      "type": "event"
    },
    {
      "inputs": [],
      "name": "EAS_SCHEMA",
      "outputs": [
        {
          "internalType": "bytes32",
          "name": "",
          "type": "bytes32"
        }
      ],
      "stateMutability": "view",
      "type": "function"
    },
    {
      "inputs": [],
      "name": "FALLBACK_DECIMALS",
      "outputs": [
        {
          "internalType": "uint256",
          "name": "",
          "type": "uint256"
        }
      ],
      "stateMutability": "view",
      "type": "function"
    },
    {
      "inputs": [],
      "name": "FALLBACK_PRICE",
      "outputs": [
        {
          "internalType": "int256",
          "name": "",
          "type": "int256"
        }
      ],
      "stateMutability": "view",
      "type": "function"
    },
    {
      "inputs": [
        {
          "internalType": "enum AssetType",
          "name": "",
          "type": "uint8"
        }
      ],
      "name": "FEE_TYPE_MAPPING",
      "outputs": [
        {
          "internalType": "enum FeeType",
          "name": "",
          "type": "uint8"
        }
      ],
      "stateMutability": "view",
      "type": "function"
    },
    {
      "inputs": [],
      "name": "MINIMAL_PAYMENT_FEE",
      "outputs": [
        {
          "internalType": "uint256",
          "name": "",
          "type": "uint256"
        }
      ],
      "stateMutability": "view",
      "type": "function"
    },
    {
      "inputs": [],
      "name": "MINIMAL_PAYMENT_FEE_DENOMINATOR",
      "outputs": [
        {
          "internalType": "uint256",
          "name": "",
          "type": "uint256"
        }
      ],
      "stateMutability": "view",
      "type": "function"
    },
    {
      "inputs": [],
      "name": "NATIVE_USD_STALE_THRESHOLD",
      "outputs": [
        {
          "internalType": "uint256",
          "name": "",
          "type": "uint256"
        }
      ],
      "stateMutability": "view",
      "type": "function"
    },
    {
      "inputs": [],
      "name": "NATIVE_WEI_MULTIPLIER",
      "outputs": [
        {
          "internalType": "uint256",
          "name": "",
          "type": "uint256"
        }
      ],
      "stateMutability": "view",
      "type": "function"
    },
    {
      "inputs": [],
      "name": "PAYMENT_FEE_PERCENTAGE",
      "outputs": [
        {
          "internalType": "uint256",
          "name": "",
          "type": "uint256"
        }
      ],
      "stateMutability": "view",
      "type": "function"
    },
    {
      "inputs": [],
      "name": "PAYMENT_FEE_PERCENTAGE_DENOMINATOR",
      "outputs": [
        {
          "internalType": "uint256",
          "name": "",
          "type": "uint256"
        }
      ],
      "stateMutability": "view",
      "type": "function"
    },
    {
      "inputs": [],
      "name": "PAYMENT_FEE_SLIPPAGE_PERCENT",
      "outputs": [
        {
          "internalType": "uint256",
          "name": "",
          "type": "uint256"
        }
      ],
      "stateMutability": "view",
      "type": "function"
    },
    {
      "inputs": [
        {
          "internalType": "address",
          "name": "_adminAddress",
          "type": "address"
        }
      ],
      "name": "addAdmin",
      "outputs": [],
      "stateMutability": "nonpayable",
      "type": "function"
    },
    {
      "inputs": [
        {
          "internalType": "address",
          "name": "publicGoodAddress",
          "type": "address"
        }
      ],
      "name": "addPublicGood",
      "outputs": [],
      "stateMutability": "nonpayable",
      "type": "function"
    },
    {
      "inputs": [
        {
          "internalType": "address",
          "name": "erc20Address",
          "type": "address"
        }
      ],
      "name": "addSupportedERC20",
      "outputs": [],
      "stateMutability": "nonpayable",
      "type": "function"
    },
    {
      "inputs": [
        {
          "internalType": "address",
          "name": "",
          "type": "address"
        }
      ],
      "name": "admins",
      "outputs": [
        {
          "internalType": "bool",
          "name": "",
          "type": "bool"
        }
      ],
      "stateMutability": "view",
      "type": "function"
    },
    {
      "inputs": [
        {
          "components": [
            {
              "internalType": "enum AssetType",
              "name": "assetType",
              "type": "uint8"
            },
            {
              "internalType": "address",
              "name": "recipient",
              "type": "address"
            },
            {
              "internalType": "uint256",
              "name": "amount",
              "type": "uint256"
            },
            {
              "internalType": "uint256",
              "name": "tokenId",
              "type": "uint256"
            },
            {
              "internalType": "address",
              "name": "tokenAddress",
              "type": "address"
            },
            {
              "internalType": "string",
              "name": "message",
              "type": "string"
            }
          ],
          "internalType": "struct BatchCall[]",
          "name": "calls",
          "type": "tuple[]"
        }
      ],
      "name": "batchSendTo",
      "outputs": [],
      "stateMutability": "payable",
      "type": "function"
    },
    {
      "inputs": [
        {
          "components": [
            {
              "internalType": "enum AssetType",
              "name": "assetType",
              "type": "uint8"
            },
            {
              "internalType": "address",
              "name": "recipient",
              "type": "address"
            },
            {
              "internalType": "uint256",
              "name": "amount",
              "type": "uint256"
            },
            {
              "internalType": "uint256",
              "name": "tokenId",
              "type": "uint256"
            },
            {
              "internalType": "address",
              "name": "tokenAddress",
              "type": "address"
            },
            {
              "internalType": "string",
              "name": "message",
              "type": "string"
            }
          ],
          "internalType": "struct BatchCall[]",
          "name": "calls",
          "type": "tuple[]"
        }
      ],
      "name": "calculateBatchFee",
      "outputs": [
        {
          "components": [
            {
              "internalType": "enum AssetType",
              "name": "assetType",
              "type": "uint8"
            },
            {
              "internalType": "address",
              "name": "recipient",
              "type": "address"
            },
            {
              "internalType": "uint256",
              "name": "amount",
              "type": "uint256"
            },
            {
              "internalType": "uint256",
              "name": "tokenId",
              "type": "uint256"
            },
            {
              "internalType": "address",
              "name": "tokenAddress",
              "type": "address"
            },
            {
              "internalType": "string",
              "name": "message",
              "type": "string"
            },
            {
              "internalType": "uint256",
              "name": "nativeAmount",
              "type": "uint256"
            }
          ],
          "internalType": "struct AdjustedBatchCall[]",
          "name": "resultCalls",
          "type": "tuple[]"
        }
      ],
      "stateMutability": "view",
      "type": "function"
    },
    {
      "inputs": [
        {
          "internalType": "uint256",
          "name": "_minimalPaymentFee",
          "type": "uint256"
        },
        {
          "internalType": "uint256",
          "name": "_paymentFeeDenominator",
          "type": "uint256"
        }
      ],
      "name": "changeMinimalPaymentFee",
      "outputs": [],
      "stateMutability": "nonpayable",
      "type": "function"
    },
    {
      "inputs": [
        {
          "internalType": "uint256",
          "name": "_paymentFeePercentage",
          "type": "uint256"
        },
        {
          "internalType": "uint256",
          "name": "_paymentFeeDenominator",
          "type": "uint256"
        }
      ],
      "name": "changePaymentFeePercentage",
      "outputs": [],
      "stateMutability": "nonpayable",
      "type": "function"
    },
    {
      "inputs": [],
      "name": "checkSequencer",
      "outputs": [
        {
          "internalType": "bool",
          "name": "",
          "type": "bool"
        }
      ],
      "stateMutability": "view",
      "type": "function"
    },
    {
      "inputs": [
        {
          "internalType": "address",
          "name": "_adminAddress",
          "type": "address"
        }
      ],
      "name": "deleteAdmin",
      "outputs": [],
      "stateMutability": "nonpayable",
      "type": "function"
    },
    {
      "inputs": [
        {
          "internalType": "address",
          "name": "publicGoodAddress",
          "type": "address"
        }
      ],
      "name": "deletePublicGood",
      "outputs": [],
      "stateMutability": "nonpayable",
      "type": "function"
    },
    {
      "inputs": [
        {
          "internalType": "address",
          "name": "erc20Address",
          "type": "address"
        }
      ],
      "name": "deleteSupportedERC20",
      "outputs": [],
      "stateMutability": "nonpayable",
      "type": "function"
    },
    {
      "inputs": [
        {
          "internalType": "uint256",
          "name": "_value",
          "type": "uint256"
        },
        {
          "internalType": "enum AssetType",
          "name": "_assetType",
          "type": "uint8"
        },
        {
          "internalType": "address",
          "name": "_recipient",
          "type": "address"
        }
      ],
      "name": "getPaymentFee",
      "outputs": [
        {
          "internalType": "uint256",
          "name": "",
          "type": "uint256"
        }
      ],
      "stateMutability": "view",
      "type": "function"
    },
    {
      "inputs": [],
      "name": "owner",
      "outputs": [
        {
          "internalType": "address",
          "name": "",
          "type": "address"
        }
      ],
      "stateMutability": "view",
      "type": "function"
    },
    {
      "inputs": [
        {
          "internalType": "address",
          "name": "",
          "type": "address"
        }
      ],
      "name": "publicGoods",
      "outputs": [
        {
          "internalType": "bool",
          "name": "",
          "type": "bool"
        }
      ],
      "stateMutability": "view",
      "type": "function"
    },
    {
      "inputs": [],
      "name": "renounceOwnership",
      "outputs": [],
      "stateMutability": "view",
      "type": "function"
    },
    {
      "inputs": [
        {
          "internalType": "address",
          "name": "_recipient",
          "type": "address"
        },
        {
          "internalType": "uint256",
          "name": "_tokenId",
          "type": "uint256"
        },
        {
          "internalType": "uint256",
          "name": "_amount",
          "type": "uint256"
        },
        {
          "internalType": "address",
          "name": "_assetContractAddress",
          "type": "address"
        },
        {
          "internalType": "string",
          "name": "_message",
          "type": "string"
        }
      ],
      "name": "sendERC1155To",
      "outputs": [],
      "stateMutability": "payable",
      "type": "function"
    },
    {
      "inputs": [
        {
          "internalType": "address",
          "name": "_recipient",
          "type": "address"
        },
        {
          "internalType": "uint256",
          "name": "_amount",
          "type": "uint256"
        },
        {
          "internalType": "address",
          "name": "_tokenContractAddr",
          "type": "address"
        },
        {
          "internalType": "string",
          "name": "_message",
          "type": "string"
        }
      ],
      "name": "sendERC20To",
      "outputs": [],
      "stateMutability": "payable",
      "type": "function"
    },
    {
      "inputs": [
        {
          "internalType": "address",
          "name": "_recipient",
          "type": "address"
        },
        {
          "internalType": "uint256",
          "name": "_tokenId",
          "type": "uint256"
        },
        {
          "internalType": "address",
          "name": "_nftContractAddress",
          "type": "address"
        },
        {
          "internalType": "string",
          "name": "_message",
          "type": "string"
        }
      ],
      "name": "sendERC721To",
      "outputs": [],
      "stateMutability": "payable",
      "type": "function"
    },
    {
      "inputs": [
        {
          "internalType": "address",
          "name": "_recipient",
          "type": "address"
        },
        {
          "internalType": "string",
          "name": "_message",
          "type": "string"
        }
      ],
      "name": "sendNativeTo",
      "outputs": [],
      "stateMutability": "payable",
      "type": "function"
    },
    {
      "inputs": [
        {
          "internalType": "address",
          "name": "",
          "type": "address"
        }
      ],
      "name": "supportedERC20",
      "outputs": [
        {
          "internalType": "bool",
          "name": "",
          "type": "bool"
        }
      ],
      "stateMutability": "view",
      "type": "function"
    },
    {
      "inputs": [
        {
          "internalType": "address",
          "name": "newOwner",
          "type": "address"
        }
      ],
      "name": "transferOwnership",
      "outputs": [],
      "stateMutability": "nonpayable",
      "type": "function"
    },
    {
      "inputs": [],
      "name": "withdraw",
      "outputs": [],
      "stateMutability": "nonpayable",
      "type": "function"
    },
    {
      "inputs": [
        {
          "internalType": "address",
          "name": "_tokenContract",
          "type": "address"
        }
      ],
      "name": "withdrawToken",
      "outputs": [],
      "stateMutability": "nonpayable",
      "type": "function"
    }
  ],
  "bytecode": "0x610140604052670de0b6b3a7640000600255600a6003556103e8600455600160055560016006553480156200003357600080fd5b506040516200346b3803806200346b833981016040819052620000569162000284565b86868686868686620000683362000206565b600180556001600160a01b03821662000094576040516341bc07ff60e11b815260040160405180910390fd5b6001600160a01b0391821660805260a0528516620000c55760405163fb7566d760e01b815260040160405180910390fd5b6001600160a01b0394851660c0529290931660e0819052600d805491151560ff19928316179055600a91909155600b92909255600c55336000908152600e602090815260408220805484166001179055600790527f6d5257204ebe7d88fd91ae87941cb2dd9d8062b64ae5a2bd2d28ec40b9fbf6df8054831690557fb39221ace053465ec3453ce2b36430bd138b997ecea25c1043da0c366812b8288054831660029081179091557fb7c774451310d1be4108bc180d1b52823cb0ee0274a6c0081bcaf94f115fb96d80548416821790557f3be6fd20d5acfde5b873b48692cd31f4d3c7e8ee8a813af4696af8859e5ca6c6805484169091179055600490527fb805995a7ec585a251200611a61d179cfd7fb105e1ab17dc415a7336783786f78054909116905550505050931515610100525050151561012052506200031b565b600080546001600160a01b038381166001600160a01b0319831681178455604051919092169283917f8be0079c531659141344cd1fd0a4f28419497f9722a3daafe3b4186f6b6457e09190a35050565b805180151581146200026757600080fd5b919050565b80516001600160a01b03811681146200026757600080fd5b60008060008060008060008060006101208a8c031215620002a457600080fd5b620002af8a62000256565b9850620002bf60208b0162000256565b9750620002cf60408b016200026c565b9650620002df60608b016200026c565b955060808a0151945060a08a0151935060c08a015192506200030460e08b016200026c565b91506101008a015190509295985092959850929598565b60805160a05160c05160e05161010051610120516130eb620003806000396000611d9201526000611df40152600061251201526000818161245d015281816125b7015261265601526000818161028f01526120ed015260006120b301526130eb6000f3fe6080604052600436106102045760003560e01c80637129607a116101185780639332c37b116100a0578063dc8daf931161006f578063dc8daf93146105d0578063e3ed7809146105ea578063e4bbdc7314610600578063f2339fe814610616578063f2fde38b1461062c57600080fd5b80639332c37b14610523578063b20d0bff14610553578063c550403f14610573578063d73acee5146105b057600080fd5b806382313032116100e7578063823130321461048357806383a4c7e1146104b357806389476069146104c85780638d157db8146104e85780638da5cb5b146104fb57600080fd5b80637129607a1461041b578063715018a61461042e57806380fa375f14610443578063819672671461046357600080fd5b80633ccfd60b1161019b5780635a7754d31161016a5780635a7754d31461039c5780635c73f163146103af5780635cfdb086146103c55780636ebe413e146103e557806370480275146103fb57600080fd5b80633ccfd60b14610307578063429b62e51461031c57806344a8b1c61461035c578063464108cd1461036f57600080fd5b806325705f8b116101d757806325705f8b1461027d57806327cb0ba1146102b157806327e1f7df146102c757806339c1c403146102e757600080fd5b806303f613dc146102095780630728c7d2146102325780630f7f630a1461025457806315c6d01e1461026a575b600080fd5b34801561021557600080fd5b5061021f60045481565b6040519081526020015b60405180910390f35b34801561023e57600080fd5b5061025261024d36600461282d565b61064c565b005b34801561026057600080fd5b5061021f60055481565b61025261027836600461290e565b6106d6565b34801561028957600080fd5b5061021f7f000000000000000000000000000000000000000000000000000000000000000081565b3480156102bd57600080fd5b5061021f60065481565b3480156102d357600080fd5b506102526102e2366004612976565b6107b4565b3480156102f357600080fd5b5061021f6103023660046129a0565b6107f0565b34801561031357600080fd5b506102526108d7565b34801561032857600080fd5b5061034c610337366004612976565b600e6020526000908152604090205460ff1681565b6040519015158152602001610229565b61025261036a3660046129dc565b610989565b34801561037b57600080fd5b5061038f61038a3660046129dc565b6111e9565b6040516102299190612acb565b6102526103aa366004612b8c565b611713565b3480156103bb57600080fd5b5061021f60035481565b3480156103d157600080fd5b506102526103e0366004612976565b611793565b3480156103f157600080fd5b5061021f600b5481565b34801561040757600080fd5b50610252610416366004612976565b6117cf565b610252610429366004612bda565b61180b565b34801561043a57600080fd5b50610252611890565b34801561044f57600080fd5b5061025261045e36600461282d565b6118b1565b34801561046f57600080fd5b5061025261047e366004612976565b61193e565b34801561048f57600080fd5b5061034c61049e366004612976565b60096020526000908152604090205460ff1681565b3480156104bf57600080fd5b5061021f600581565b3480156104d457600080fd5b506102526104e3366004612976565b611977565b6102526104f636600461290e565b611a3f565b34801561050757600080fd5b506000546040516001600160a01b039091168152602001610229565b34801561052f57600080fd5b5061034c61053e366004612976565b60086020526000908152604090205460ff1681565b34801561055f57600080fd5b5061025261056e366004612976565b611abe565b34801561057f57600080fd5b506105a361058e366004612c4c565b60076020526000908152604090205460ff1681565b6040516102299190612c67565b3480156105bc57600080fd5b506102526105cb366004612976565b611af7565b3480156105dc57600080fd5b50600d5461034c9060ff1681565b3480156105f657600080fd5b5061021f600c5481565b34801561060c57600080fd5b5061021f600a5481565b34801561062257600080fd5b5061021f60025481565b34801561063857600080fd5b50610252610647366004612976565b611b33565b610654611ba9565b6000821161067557604051631ebf5cd960e21b815260040160405180910390fd5b6000811161069657604051634b0be53160e11b815260040160405180910390fd5b6005816106a4846064612c97565b6106ae9190612cae565b106106cb57604051623ff07b60e31b815260040160405180910390fd5b600391909155600455565b6106de611c03565b60006106ec84333086611c5c565b6001600160a01b03841660009081526008602052604090205490915060019060ff161561073557506004341561073557604051633aae617160e21b815260040160405180910390fd5b60008061074683898660008a611d6d565b91509150610755818988611ddb565b856001600160a01b0316336001600160a01b0316896001600160a01b0316600080516020613096833981519152888760008789604051610799959493929190612cd0565b60405180910390a4505050506107ae60018055565b50505050565b6107bc611ba9565b6107c4611c03565b6001600160a01b0381166000908152600e60205260409020805460ff191690556107ed60018055565b50565b6001600160a01b03811660009081526009602052604081205460ff1615610819575060006108d0565b6000610823611df0565b9050600061083086611e2c565b905060006007600087600481111561084a5761084a612a51565b600481111561085b5761085b612a51565b815260208101919091526040016000205460ff169050600281600281111561088557610885612a51565b03610895578293505050506108d0565b60008160028111156108a9576108a9612a51565b036108b8575091506108d09050565b828211156108ca575091506108d09050565b50909150505b9392505050565b336000908152600e602052604090205460ff16151560011461090c57604051633d78cd9b60e11b815260040160405180910390fd5b610914611c03565b604051600090339047908381818185875af1925050503d8060008114610956576040519150601f19603f3d011682016040523d82523d6000602084013e61095b565b606091505b505090508061097d57604051631d42c86760e21b815260040160405180910390fd5b5061098760018055565b565b610991611c03565b60008060008060005b858110156111415760008787838181106109b6576109b6612d0e565b90506020028101906109c89190612d24565b6109d6906020810190612c4c565b9050600860008989858181106109ee576109ee612d0e565b9050602002810190610a009190612d24565b610a119060a0810190608001612976565b6001600160a01b0316815260208101919091526040016000205460ff1615610a37575060045b6000816004811115610a4b57610a4b612a51565b03610b1857610ab981898985818110610a6657610a66612d0e565b9050602002810190610a789190612d24565b610a89906040810190602001612976565b8a8a86818110610a9b57610a9b612d0e565b9050602002810190610aad9190612d24565b60400135600080611d6d565b96509450610afb888884818110610ad257610ad2612d0e565b9050602002810190610ae49190612d24565b610af5906040810190602001612976565b87611e4f565b610b058685612d44565b9350610b118584612d44565b9250610ffa565b6001816004811115610b2c57610b2c612a51565b1480610b4957506004816004811115610b4757610b47612a51565b145b15610d86576000610bb7898985818110610b6557610b65612d0e565b9050602002810190610b779190612d24565b6040013533308c8c88818110610b8f57610b8f612d0e565b9050602002810190610ba19190612d24565b610bb29060a0810190608001612976565b611c5c565b9050610c2f828a8a86818110610bcf57610bcf612d0e565b9050602002810190610be19190612d24565b610bf2906040810190602001612976565b8360008d8d89818110610c0757610c07612d0e565b9050602002810190610c199190612d24565b610c2a9060a0810190608001612976565b611d6d565b975095506001826004811115610c4757610c47612a51565b03610d0d57610c568685612d44565b93507ff2c41ddcbdccb01d70ea4f13d42df52be2f9f2f77ea3d21817595cfab08332d986604051610cad919060408082526009908201526865726332305f66656560b81b6060820152602081019190915260800190565b60405180910390a160408051818152600e818301526d195c98cc8c17d9995957dd5cd95960921b60608201526020810186905290517ff2c41ddcbdccb01d70ea4f13d42df52be2f9f2f77ea3d21817595cfab08332d99181900360800190a15b610d80878a8a86818110610d2357610d23612d0e565b9050602002810190610d359190612d24565b610d46906040810190602001612976565b8b8b87818110610d5857610d58612d0e565b9050602002810190610d6a9190612d24565b610d7b9060a0810190608001612976565b611ddb565b50610ffa565b6002816004811115610d9a57610d9a612a51565b1480610db757506003816004811115610db557610db5612a51565b145b15610fe157610e5781898985818110610dd257610dd2612d0e565b9050602002810190610de49190612d24565b610df5906040810190602001612976565b8a8a86818110610e0757610e07612d0e565b9050602002810190610e199190612d24565b604001358b8b87818110610e2f57610e2f612d0e565b9050602002810190610e419190612d24565b606001358c8c88818110610c0757610c07612d0e565b965094506002816004811115610e6f57610e6f612a51565b03610f1457610f0f888884818110610e8957610e89612d0e565b9050602002810190610e9b9190612d24565b60600135338a8a86818110610eb257610eb2612d0e565b9050602002810190610ec49190612d24565b610ed5906040810190602001612976565b8b8b87818110610ee757610ee7612d0e565b9050602002810190610ef99190612d24565b610f0a9060a0810190608001612976565b611ec8565b610fd7565b610fd7888884818110610f2957610f29612d0e565b9050602002810190610f3b9190612d24565b60600135898985818110610f5157610f51612d0e565b9050602002810190610f639190612d24565b60400135338b8b87818110610f7a57610f7a612d0e565b9050602002810190610f8c9190612d24565b610f9d906040810190602001612976565b8c8c88818110610faf57610faf612d0e565b9050602002810190610fc19190612d24565b610fd29060a0810190608001612976565b611f3c565b610b118584612d44565b6040516328c354e560e01b815260040160405180910390fd5b87878381811061100c5761100c612d0e565b905060200281019061101e9190612d24565b61102f9060a0810190608001612976565b6001600160a01b03163389898581811061104b5761104b612d0e565b905060200281019061105d9190612d24565b61106e906040810190602001612976565b6001600160a01b03166000805160206130968339815191528b8b8781811061109857611098612d0e565b90506020028101906110aa9190612d24565b6110b89060a0810190612d57565b8d8d898181106110ca576110ca612d0e565b90506020028101906110dc9190612d24565b6110ea906020810190612c4c565b8e8e8a8181106110fc576110fc612d0e565b905060200281019061110e9190612d24565b606001358d8d60405161112696959493929190612da5565b60405180910390a4508061113981612dfa565b91505061099a565b5060408051818152600e818301526d19995957dd5cd95917dd1bdd185b60921b60608201526020810183905290517ff2c41ddcbdccb01d70ea4f13d42df52be2f9f2f77ea3d21817595cfab08332d99181900360800190a16111a38183612d44565b3410156111d85760405163783331e560e01b815260048101839052602481018290523460448201526064015b60405180910390fd5b505050506111e560018055565b5050565b60608167ffffffffffffffff8111156112045761120461286b565b60405190808252806020026020018201604052801561126a57816020015b6040805160e0810182526000808252602080830182905292820181905260608083018290526080830182905260a083015260c082015282526000199092019101816112225790505b50905060005b8281101561170c57600084848381811061128c5761128c612d0e565b905060200281019061129e9190612d24565b6112ac906020810190612c4c565b9050600860008686858181106112c4576112c4612d0e565b90506020028101906112d69190612d24565b6112e79060a0810190608001612976565b6001600160a01b0316815260208101919091526040016000205460ff161561130d575060045b8083838151811061132057611320612d0e565b602002602001015160000190600481111561133d5761133d612a51565b9081600481111561135057611350612a51565b90525084848381811061136557611365612d0e565b90506020028101906113779190612d24565b611388906040810190602001612976565b83838151811061139a5761139a612d0e565b6020908102919091018101516001600160a01b039092169101528484838181106113c6576113c6612d0e565b90506020028101906113d89190612d24565b604001358383815181106113ee576113ee612d0e565b6020026020010151604001818152505084848381811061141057611410612d0e565b90506020028101906114229190612d24565b6060013583838151811061143857611438612d0e565b6020026020010151606001818152505084848381811061145a5761145a612d0e565b905060200281019061146c9190612d24565b61147d9060a0810190608001612976565b83838151811061148f5761148f612d0e565b6020026020010151608001906001600160a01b031690816001600160a01b0316815250508484838181106114c5576114c5612d0e565b90506020028101906114d79190612d24565b6114e59060a0810190612d57565b8080601f016020809104026020016040519081016040528093929190818152602001838380828437600092019190915250508551869250859150811061152d5761152d612d0e565b602002602001015160a00181905250600061159f86868581811061155357611553612d0e565b90506020028101906115659190612d24565b604001358388888781811061157c5761157c612d0e565b905060200281019061158e9190612d24565b610302906040810190602001612976565b905060008260048111156115b5576115b5612a51565b0361165557808484815181106115cd576115cd612d0e565b6020026020010151604001516115e39190612d44565b8484815181106115f5576115f5612d0e565b602002602001015160c00181815250508084848151811061161857611618612d0e565b60200260200101516040015161162e9190612d44565b84848151811061164057611640612d0e565b602002602001015160400181815250506116f7565b600482600481111561166957611669612a51565b03611681578084848151811061161857611618612d0e565b600182600481111561169557611695612a51565b14806116b2575060028260048111156116b0576116b0612a51565b145b806116ce575060038260048111156116cc576116cc612a51565b145b15610fe157808484815181106116e6576116e6612d0e565b602002602001015160c00181815250505b5050808061170490612dfa565b915050611270565b5092915050565b61171b611c03565b60008061172d60008534600080611d6d565b9150915061173b8482611e4f565b60006001600160a01b0316336001600160a01b0316856001600160a01b0316600080516020613096833981519152866000808789604051611780959493929190612cd0565b60405180910390a450506111e560018055565b61179b611ba9565b6117a3611c03565b6001600160a01b0381166000908152600960205260409020805460ff191660011790556107ed60018055565b6117d7611ba9565b6117df611c03565b6001600160a01b0381166000908152600e60205260409020805460ff191660011790556107ed60018055565b611813611c03565b6000611823600387868887611d6d565b5090506118338585338987611f3c565b826001600160a01b0316336001600160a01b0316876001600160a01b03166000805160206130968339815191528560038a8a88604051611877959493929190612cd0565b60405180910390a45061188960018055565b5050505050565b611898611ba9565b6040516396c553eb60e01b815260040160405180910390fd5b6118b9611ba9565b600082116118da57604051637b4631c560e11b815260040160405180910390fd5b600081116118fb57604051634b0be53160e11b815260040160405180910390fd5b60056119078284612cae565b101580611915575060058210155b15611933576040516361b23ca760e11b815260040160405180910390fd5b600591909155600655565b611946611ba9565b61194e611c03565b6001600160a01b0381166000908152600860205260409020805460ff191690556107ed60018055565b336000908152600e602052604090205460ff1615156001146119ac57604051633d78cd9b60e11b815260040160405180910390fd5b6119b4611c03565b6040516370a0823160e01b81523060048201528190611a359033906001600160a01b038416906370a0823190602401602060405180830381865afa158015611a00573d6000803e3d6000fd5b505050506040513d601f19601f82011682018060405250810190611a249190612e13565b6001600160a01b0384169190611fc6565b506107ed60018055565b611a47611c03565b6000611a5860028660018787611d6d565b509050611a6784338786611ec8565b826001600160a01b0316336001600160a01b0316866001600160a01b031660008051602061309683398151915285600289600188604051611aac959493929190612cd0565b60405180910390a4506107ae60018055565b611ac6611ba9565b611ace611c03565b6001600160a01b0381166000908152600960205260409020805460ff191690556107ed60018055565b611aff611ba9565b611b07611c03565b6001600160a01b0381166000908152600860205260409020805460ff191660011790556107ed60018055565b611b3b611ba9565b6001600160a01b038116611ba05760405162461bcd60e51b815260206004820152602660248201527f4f776e61626c653a206e6577206f776e657220697320746865207a65726f206160448201526564647265737360d01b60648201526084016111cf565b6107ed81612029565b6000546001600160a01b031633146109875760405162461bcd60e51b815260206004820181905260248201527f4f776e61626c653a2063616c6c6572206973206e6f7420746865206f776e657260448201526064016111cf565b600260015403611c555760405162461bcd60e51b815260206004820152601f60248201527f5265656e7472616e637947756172643a207265656e7472616e742063616c6c0060448201526064016111cf565b6002600155565b6040516370a0823160e01b81526001600160a01b03838116600483015260009183918391908316906370a0823190602401602060405180830381865afa158015611caa573d6000803e3d6000fd5b505050506040513d601f19601f82011682018060405250810190611cce9190612e13565b9050611ce56001600160a01b03831687878a612079565b6040516370a0823160e01b81526001600160a01b038681166004830152600091908416906370a0823190602401602060405180830381865afa158015611d2f573d6000803e3d6000fd5b505050506040513d601f19601f82011682018060405250810190611d539190612e13565b9050611d5f8282612e2c565b93505050505b949350505050565b6001600160a01b038416600090815260096020526040812054819060ff1615611dc2577f000000000000000000000000000000000000000000000000000000000000000015611dc257611dc2868487876120b1565b611dcd858888612204565b909890975095505050505050565b806107ae6001600160a01b0382168486611fc6565b60007f000000000000000000000000000000000000000000000000000000000000000015611e2557611e20612316565b905090565b5060055490565b600060045460035483611e3f9190612c97565b611e499190612cae565b92915050565b6000826001600160a01b03168260405160006040518083038185875af1925050503d8060008114611e9c576040519150601f19603f3d011682016040523d82523d6000602084013e611ea1565b606091505b5050905080611ec357604051633e1ee4eb60e11b815260040160405180910390fd5b505050565b6040516323b872dd60e01b81526001600160a01b0384811660048301528381166024830152604482018690528291908216906323b872dd90606401600060405180830381600087803b158015611f1d57600080fd5b505af1158015611f31573d6000803e3d6000fd5b505050505050505050565b604051637921219560e11b81526001600160a01b0384811660048301528381166024830152604482018790526064820186905260a06084830152600060a483015282919082169063f242432a9060c401600060405180830381600087803b158015611fa657600080fd5b505af1158015611fba573d6000803e3d6000fd5b50505050505050505050565b6040516001600160a01b038316602482015260448101829052611ec390849063a9059cbb60e01b906064015b60408051601f198184030181529190526020810180516001600160e01b03166001600160e01b03199093169290921790915261233a565b600080546001600160a01b038381166001600160a01b0319831681178455604051919092169283917f8be0079c531659141344cd1fd0a4f28419497f9722a3daafe3b4186f6b6457e09190a35050565b6040516001600160a01b03808516602483015283166044820152606481018290526107ae9085906323b872dd60e01b90608401611ff2565b7f00000000000000000000000000000000000000000000000000000000000000006001600160a01b031663f17325e760405180604001604052807f000000000000000000000000000000000000000000000000000000000000000081526020016040518060c00160405280336001600160a01b03168152602001600067ffffffffffffffff1681526020016000151581526020016000801b81526020018989898960405160200161218994939291906001600160a01b0394851681529290931660208301526040820152606081019190915260800190565b604051602081830303815290604052815260200160008152508152506040518263ffffffff1660e01b81526004016121c19190612e3f565b6020604051808303816000875af11580156121e0573d6000803e3d6000fd5b505050506040513d601f19601f820116820180604052508101906118899190612e13565b6000806000612211611df0565b9050600061221e8761240f565b6001600160a01b03861660009081526009602052604090205490915060ff161561224e576000935086925061230c565b60006007600088600481111561226657612266612a51565b600481111561227757612277612a51565b815260208101919091526040016000205460ff16600281111561229c5761229c612a51565b036122b5579250826122ae8188612e2c565b925061230c565b60646122c2600582612e2c565b6122cc9084612c97565b6122d69190612cae565b3410156122f55760405162b9d9cb60e11b815260040160405180910390fd5b81341061230457819350612308565b3493505b8692505b5050935093915050565b6000600654600554612326612442565b6123309190612c97565b611e209190612cae565b600061238f826040518060400160405280602081526020017f5361666545524332303a206c6f772d6c6576656c2063616c6c206661696c6564815250856001600160a01b031661270a9092919063ffffffff16565b90508051600014806123b05750808060200190518101906123b09190612ec2565b611ec35760405162461bcd60e51b815260206004820152602a60248201527f5361666545524332303a204552433230206f7065726174696f6e20646964206e6044820152691bdd081cdd58d8d9595960b21b60648201526084016111cf565b60006003546004546124219190612d44565b60045461242e9084612c97565b6124389190612cae565b611e499083612e2c565b600b54600c5460009190829061245990600a612fc8565b90507f00000000000000000000000000000000000000000000000000000000000000006001600160a01b031663feaf968c6040518163ffffffff1660e01b815260040160a060405180830381865afa9250505080156124d5575060408051601f3d908101601f191682019092526124d291810190612fee565b60015b156126ea576000841380156124e957508115155b80156125005750600a546124fd8342612e2c565b11155b156126e457600d5460ff1615612651577f00000000000000000000000000000000000000000000000000000000000000006001600160a01b031663feaf968c6040518163ffffffff1660e01b815260040160a060405180830381865afa92505050801561258a575060408051601f3d908101601f1916820190925261258791810190612fee565b60015b156126e4578315600061259d8542612e2c565b90508180156125ad5750600a5481115b15612645578a9d507f00000000000000000000000000000000000000000000000000000000000000006001600160a01b031663313ce5676040518163ffffffff1660e01b8152600401602060405180830381865afa158015612613573d6000803e3d6000fd5b505050506040513d601f19601f82011682018060405250810190612637919061303e565b61264290600a613061565b9c505b505050505050506126e4565b8396507f00000000000000000000000000000000000000000000000000000000000000006001600160a01b031663313ce5676040518163ffffffff1660e01b8152600401602060405180830381865afa1580156126b2573d6000803e3d6000fd5b505050506040513d601f19601f820116820180604052508101906126d6919061303e565b6126e190600a613061565b95505b50505050505b81816002546126f99190612c97565b6127039190612cae565b9250505090565b6060611d65848460008585600080866001600160a01b031685876040516127319190613070565b60006040518083038185875af1925050503d806000811461276e576040519150601f19603f3d011682016040523d82523d6000602084013e612773565b606091505b50915091506127848783838761278f565b979650505050505050565b606083156127fe5782516000036127f7576001600160a01b0385163b6127f75760405162461bcd60e51b815260206004820152601d60248201527f416464726573733a2063616c6c20746f206e6f6e2d636f6e747261637400000060448201526064016111cf565b5081611d65565b611d6583838151156128135781518083602001fd5b8060405162461bcd60e51b81526004016111cf9190613082565b6000806040838503121561284057600080fd5b50508035926020909101359150565b80356001600160a01b038116811461286657600080fd5b919050565b634e487b7160e01b600052604160045260246000fd5b600082601f83011261289257600080fd5b813567ffffffffffffffff808211156128ad576128ad61286b565b604051601f8301601f19908116603f011681019082821181831017156128d5576128d561286b565b816040528381528660208588010111156128ee57600080fd5b836020870160208301376000602085830101528094505050505092915050565b6000806000806080858703121561292457600080fd5b61292d8561284f565b9350602085013592506129426040860161284f565b9150606085013567ffffffffffffffff81111561295e57600080fd5b61296a87828801612881565b91505092959194509250565b60006020828403121561298857600080fd5b6108d08261284f565b80356005811061286657600080fd5b6000806000606084860312156129b557600080fd5b833592506129c560208501612991565b91506129d36040850161284f565b90509250925092565b600080602083850312156129ef57600080fd5b823567ffffffffffffffff80821115612a0757600080fd5b818501915085601f830112612a1b57600080fd5b813581811115612a2a57600080fd5b8660208260051b8501011115612a3f57600080fd5b60209290920196919550909350505050565b634e487b7160e01b600052602160045260246000fd5b60058110612a7757612a77612a51565b9052565b60005b83811015612a96578181015183820152602001612a7e565b50506000910152565b60008151808452612ab7816020860160208601612a7b565b601f01601f19169290920160200192915050565b60006020808301818452808551808352604092508286019150828160051b87010184880160005b83811015612b7e57603f19898403018552815160e0612b12858351612a67565b818901516001600160a01b03908116868b01528883015189870152606080840151908701526080808401519091169086015260a080830151868201839052612b5c83880182612a9f565b60c0948501519790940196909652505094870194925090860190600101612af2565b509098975050505050505050565b60008060408385031215612b9f57600080fd5b612ba88361284f565b9150602083013567ffffffffffffffff811115612bc457600080fd5b612bd085828601612881565b9150509250929050565b600080600080600060a08688031215612bf257600080fd5b612bfb8661284f565b94506020860135935060408601359250612c176060870161284f565b9150608086013567ffffffffffffffff811115612c3357600080fd5b612c3f88828901612881565b9150509295509295909350565b600060208284031215612c5e57600080fd5b6108d082612991565b6020810160038310612c7b57612c7b612a51565b91905290565b634e487b7160e01b600052601160045260246000fd5b8082028115828204841417611e4957611e49612c81565b600082612ccb57634e487b7160e01b600052601260045260246000fd5b500490565b60a081526000612ce360a0830188612a9f565b9050612cf26020830187612a67565b8460408301528360608301528260808301529695505050505050565b634e487b7160e01b600052603260045260246000fd5b6000823560be19833603018112612d3a57600080fd5b9190910192915050565b80820180821115611e4957611e49612c81565b6000808335601e19843603018112612d6e57600080fd5b83018035915067ffffffffffffffff821115612d8957600080fd5b602001915036819003821315612d9e57600080fd5b9250929050565b60a081528560a0820152858760c0830137600060c08783010152600060c0601f19601f8901168301019050612ddd6020830187612a67565b846040830152836060830152826080830152979650505050505050565b600060018201612e0c57612e0c612c81565b5060010190565b600060208284031215612e2557600080fd5b5051919050565b81810381811115611e4957611e49612c81565b60208152815160208201526000602083015160408084015260018060a01b03815116606084015267ffffffffffffffff60208201511660808401526040810151151560a0840152606081015160c0840152608081015160c060e0850152612eaa610120850182612a9f565b905060a0820151610100850152809250505092915050565b600060208284031215612ed457600080fd5b815180151581146108d057600080fd5b600181815b80851115612f1f578160001904821115612f0557612f05612c81565b80851615612f1257918102915b93841c9390800290612ee9565b509250929050565b600082612f3657506001611e49565b81612f4357506000611e49565b8160018114612f595760028114612f6357612f7f565b6001915050611e49565b60ff841115612f7457612f74612c81565b50506001821b611e49565b5060208310610133831016604e8410600b8410161715612fa2575081810a611e49565b612fac8383612ee4565b8060001904821115612fc057612fc0612c81565b029392505050565b60006108d08383612f27565b805169ffffffffffffffffffff8116811461286657600080fd5b600080600080600060a0868803121561300657600080fd5b61300f86612fd4565b945060208601519350604086015192506060860151915061303260808701612fd4565b90509295509295909350565b60006020828403121561305057600080fd5b815160ff811681146108d057600080fd5b60006108d060ff841683612f27565b60008251612d3a818460208701612a7b565b6020815260006108d06020830184612a9f56feccdbce48c0b5e947c2b42fbdf40cfe40fb9d6b6c9bb1879d7c032d9b9c9e5e30a2646970667358221220f625229c53bcd6a13baab7f3e46ef907c564d168697c6d1654ce67e497c0931964736f6c63430008130033",
  "linkReferences": {},
  "deployedLinkReferences": {}
}