{
  "_format": "hh-sol-artifact-1",
  "contractName": "MockEAS",
  "sourceName": "src/contracts/mocks/MockEAS.sol",
  "abi": [
    {
      "inputs": [],
      "stateMutability": "nonpayable",
      "type": "constructor"
    },
    {
      "anonymous": false,
      "inputs": [
        {
          "indexed": true,
          "internalType": "address",
          "name": "recipient",
          "type": "address"
        },
        {
          "indexed": true,
          "internalType": "address",
          "name": "attester",
          "type": "address"
        },
        {
          "indexed": true,
          "internalType": "bytes32",
          "name": "schema",
          "type": "bytes32"
        }
      ],
      "name": "Attested",
      "type": "event"
    },
    {
      "inputs": [
        {
          "components": [
            {
              "internalType": "bytes32",
              "name": "schema",
              "type": "bytes32"
            },
            {
              "components": [
                {
                  "internalType": "address",
                  "name": "recipient",
                  "type": "address"
                },
                {
                  "internalType": "uint64",
                  "name": "expirationTime",
                  "type": "uint64"
                },
                {
                  "internalType": "bool",
                  "name": "revocable",
                  "type": "bool"
                },
                {
                  "internalType": "bytes32",
                  "name": "refUID",
                  "type": "bytes32"
                },
                {
                  "internalType": "bytes",
                  "name": "data",
                  "type": "bytes"
                },
                {
                  "internalType": "uint256",
                  "name": "value",
                  "type": "uint256"
                }
              ],
              "internalType": "struct MockEAS.AttestationRequestData",
              "name": "data",
              "type": "tuple"
            }
          ],
          "internalType": "struct MockEAS.AttestationRequest",
          "name": "request",
          "type": "tuple"
        }
      ],
      "name": "attest",
      "outputs": [
        {
          "internalType": "bytes32",
          "name": "",
          "type": "bytes32"
        }
      ],
      "stateMutability": "payable",
      "type": "function"
    }
  ],
  "bytecode": "0x608060405234801561001057600080fd5b50610166806100206000396000f3fe60806040526004361061001e5760003560e01c8063f17325e714610023575b600080fd5b6100366100313660046100a5565b610048565b60405190815260200160405180910390f35b600081353361005a60208501856100e7565b610068906020810190610107565b6001600160a01b03167fd038532080ba497c69f7102b5ecfdd06028f5390c68e0b799fe1d4a5bc75dfdd60405160405180910390a4506000919050565b6000602082840312156100b757600080fd5b813567ffffffffffffffff8111156100ce57600080fd5b8201604081850312156100e057600080fd5b9392505050565b6000823560be198336030181126100fd57600080fd5b9190910192915050565b60006020828403121561011957600080fd5b81356001600160a01b03811681146100e057600080fdfea264697066735822122041c247f30cd15e48fc298c5315639108b2ec8bb73c0ead4432783a02d961f6ae64736f6c63430008130033",
  "linkReferences": {},
  "deployedLinkReferences": {}
}